{
  "contractName": "LandRegistry",
  "abi": [
    {
      "inputs": [],
      "stateMutability": "nonpayable",
      "type": "constructor"
    },
    {
      "anonymous": false,
      "inputs": [
        {
          "indexed": true,
          "internalType": "address",
          "name": "owner",
          "type": "address"
        },
        {
          "indexed": true,
          "internalType": "uint256",
          "name": "propertyId",
          "type": "uint256"
        }
      ],
      "name": "LandAdded",
      "type": "event"
    },
    {
      "inputs": [],
      "name": "propertiesContract",
      "outputs": [
        {
          "internalType": "contract Property",
          "name": "",
          "type": "address"
        }
      ],
      "stateMutability": "view",
      "type": "function"
    },
    {
      "inputs": [
        {
          "internalType": "uint256",
          "name": "",
          "type": "uint256"
        }
      ],
      "name": "revenueDeptIdToEmployee",
      "outputs": [
        {
          "internalType": "address",
          "name": "",
          "type": "address"
        }
      ],
      "stateMutability": "view",
      "type": "function"
    },
    {
      "inputs": [],
      "name": "restrictedFunction",
      "outputs": [],
      "stateMutability": "nonpayable",
      "type": "function"
    },
    {
      "inputs": [
        {
          "internalType": "address",
          "name": "contractAddress",
          "type": "address"
        }
      ],
      "name": "setTransferOwnershipContractAddress",
      "outputs": [],
      "stateMutability": "nonpayable",
      "type": "function"
    },
    {
      "inputs": [
        {
          "internalType": "uint256",
          "name": "_locationId",
          "type": "uint256"
        },
        {
          "internalType": "uint256",
          "name": "_revenueDepartmentId",
          "type": "uint256"
        },
        {
          "internalType": "uint256",
          "name": "_surveyNumber",
          "type": "uint256"
        },
        {
          "internalType": "uint256",
          "name": "_area",
          "type": "uint256"
        }
      ],
      "name": "addLand",
      "outputs": [
        {
          "internalType": "uint256",
          "name": "",
          "type": "uint256"
        }
      ],
      "stateMutability": "nonpayable",
      "type": "function"
    },
    {
      "inputs": [
        {
          "internalType": "uint256",
          "name": "_propertyId",
          "type": "uint256"
        }
      ],
      "name": "getPropertyDetails",
      "outputs": [
        {
          "components": [
            {
              "internalType": "uint256",
              "name": "propertyId",
              "type": "uint256"
            },
            {
              "internalType": "uint256",
              "name": "locationId",
              "type": "uint256"
            },
            {
              "internalType": "uint256",
              "name": "revenueDepartmentId",
              "type": "uint256"
            },
            {
              "internalType": "uint256",
              "name": "surveyNumber",
              "type": "uint256"
            },
            {
              "internalType": "address",
              "name": "owner",
              "type": "address"
            },
            {
              "internalType": "uint256",
              "name": "area",
              "type": "uint256"
            },
            {
              "internalType": "uint256",
              "name": "price",
              "type": "uint256"
            },
            {
              "internalType": "uint256",
              "name": "registeredTime",
              "type": "uint256"
            },
            {
              "internalType": "address",
              "name": "employeeId",
              "type": "address"
            },
            {
              "internalType": "string",
              "name": "scheduledDate",
              "type": "string"
            },
            {
              "internalType": "string",
              "name": "rejectedReason",
              "type": "string"
            },
            {
              "internalType": "enum Property.StateOfProperty",
              "name": "state",
              "type": "uint8"
            }
          ],
          "internalType": "struct Property.Land",
          "name": "",
          "type": "tuple"
        }
      ],
      "stateMutability": "view",
      "type": "function"
    },
    {
      "inputs": [
        {
          "internalType": "address",
          "name": "_owner",
          "type": "address"
        }
      ],
      "name": "getPropertiesOfOwner",
      "outputs": [
        {
          "components": [
            {
              "internalType": "uint256",
              "name": "propertyId",
              "type": "uint256"
            },
            {
              "internalType": "uint256",
              "name": "locationId",
              "type": "uint256"
            },
            {
              "internalType": "uint256",
              "name": "revenueDepartmentId",
              "type": "uint256"
            },
            {
              "internalType": "uint256",
              "name": "surveyNumber",
              "type": "uint256"
            },
            {
              "internalType": "address",
              "name": "owner",
              "type": "address"
            },
            {
              "internalType": "uint256",
              "name": "area",
              "type": "uint256"
            },
            {
              "internalType": "uint256",
              "name": "price",
              "type": "uint256"
            },
            {
              "internalType": "uint256",
              "name": "registeredTime",
              "type": "uint256"
            },
            {
              "internalType": "address",
              "name": "employeeId",
              "type": "address"
            },
            {
              "internalType": "string",
              "name": "scheduledDate",
              "type": "string"
            },
            {
              "internalType": "string",
              "name": "rejectedReason",
              "type": "string"
            },
            {
              "internalType": "enum Property.StateOfProperty",
              "name": "state",
              "type": "uint8"
            }
          ],
          "internalType": "struct Property.Land[]",
          "name": "",
          "type": "tuple[]"
        }
      ],
      "stateMutability": "view",
      "type": "function"
    },
    {
      "inputs": [
        {
          "internalType": "uint256",
          "name": "_revenueDeptId",
          "type": "uint256"
        }
      ],
      "name": "getPropertiesByRevenueDeptId",
      "outputs": [
        {
          "components": [
            {
              "internalType": "uint256",
              "name": "propertyId",
              "type": "uint256"
            },
            {
              "internalType": "uint256",
              "name": "locationId",
              "type": "uint256"
            },
            {
              "internalType": "uint256",
              "name": "revenueDepartmentId",
              "type": "uint256"
            },
            {
              "internalType": "uint256",
              "name": "surveyNumber",
              "type": "uint256"
            },
            {
              "internalType": "address",
              "name": "owner",
              "type": "address"
            },
            {
              "internalType": "uint256",
              "name": "area",
              "type": "uint256"
            },
            {
              "internalType": "uint256",
              "name": "price",
              "type": "uint256"
            },
            {
              "internalType": "uint256",
              "name": "registeredTime",
              "type": "uint256"
            },
            {
              "internalType": "address",
              "name": "employeeId",
              "type": "address"
            },
            {
              "internalType": "string",
              "name": "scheduledDate",
              "type": "string"
            },
            {
              "internalType": "string",
              "name": "rejectedReason",
              "type": "string"
            },
            {
              "internalType": "enum Property.StateOfProperty",
              "name": "state",
              "type": "uint8"
            }
          ],
          "internalType": "struct Property.Land[]",
          "name": "",
          "type": "tuple[]"
        }
      ],
      "stateMutability": "view",
      "type": "function"
    },
    {
      "inputs": [
        {
          "internalType": "uint256",
          "name": "revenueDeptId",
          "type": "uint256"
        },
        {
          "internalType": "address",
          "name": "employeeAddress",
          "type": "address"
        }
      ],
      "name": "mapRevenueDeptIdToEmployee",
      "outputs": [],
      "stateMutability": "nonpayable",
      "type": "function"
    },
    {
      "inputs": [
        {
          "internalType": "uint256",
          "name": "_propertyId",
          "type": "uint256"
        }
      ],
      "name": "verifyProperty",
      "outputs": [],
      "stateMutability": "nonpayable",
      "type": "function"
    },
    {
      "inputs": [
        {
          "internalType": "uint256",
          "name": "_propertyId",
          "type": "uint256"
        },
        {
          "internalType": "string",
          "name": "_reason",
          "type": "string"
        }
      ],
      "name": "rejectProperty",
      "outputs": [],
      "stateMutability": "nonpayable",
      "type": "function"
    },
    {
      "inputs": [
        {
          "internalType": "uint256",
          "name": "_propertyId",
          "type": "uint256"
        },
        {
          "internalType": "address",
          "name": "newOwner",
          "type": "address"
        }
      ],
      "name": "transferOwnership",
      "outputs": [],
      "stateMutability": "nonpayable",
      "type": "function"
    },
    {
      "inputs": [],
      "name": "getPropertiesContract",
      "outputs": [
        {
          "internalType": "address",
          "name": "",
          "type": "address"
        }
      ],
      "stateMutability": "view",
      "type": "function"
    }
  ],
  "bytecode": "0x60806040526000600160146101000a81548160ff0219169083151502179055503480156200002c57600080fd5b50336000806101000a81548173ffffffffffffffffffffffffffffffffffffffff021916908373ffffffffffffffffffffffffffffffffffffffff1602179055506000600160006101000a81548173ffffffffffffffffffffffffffffffffffffffff021916908373ffffffffffffffffffffffffffffffffffffffff1602179055506000600160146101000a81548160ff021916908315150217905550604051620000d8906200013c565b604051809103906000f080158015620000f5573d6000803e3d6000fd5b50600260006101000a81548173ffffffffffffffffffffffffffffffffffffffff021916908373ffffffffffffffffffffffffffffffffffffffff1602179055506200014a565b611fd68062002a0183390190565b6128a7806200015a6000396000f3fe608060405234801561001057600080fd5b50600436106100cf5760003560e01c80634212a8ae1161008c578063a6262ba311610066578063a6262ba3146101fc578063b9fe2ff414610218578063ddef358d14610236578063e90b6c7214610266576100cf565b80634212a8ae146101a6578063677ff942146101c2578063777acf37146101f2576100cf565b806301da8a48146100d45780630ce89b46146101045780630cf36e5714610120578063126dbe431461013c57806329507f731461016c5780633aeb6d7614610188575b600080fd5b6100ee60048036038101906100e991906115ee565b610296565b6040516100fb9190611664565b60405180910390f35b61011e600480360381019061011991906117c5565b610437565b005b61013a6004803603810190610135919061187f565b610577565b005b610156600480360381019061015191906118ac565b61062b565b6040516101639190611af8565b60405180910390f35b61018660048036038101906101819190611b1a565b6106db565b005b610190610a14565b60405161019d9190611bb9565b60405180910390f35b6101c060048036038101906101bb91906118ac565b610a3a565b005b6101dc60048036038101906101d7919061187f565b610b77565b6040516101e99190611da1565b60405180910390f35b6101fa610d67565b005b61021660048036038101906102119190611b1a565b610e4c565b005b610220610f85565b60405161022d9190611dd2565b60405180910390f35b610250600480360381019061024b91906118ac565b610faf565b60405161025d9190611da1565b60405180910390f35b610280600480360381019061027b91906118ac565b611173565b60405161028d9190611dd2565b60405180910390f35b6000803390506000600260009054906101000a900473ffffffffffffffffffffffffffffffffffffffff1673ffffffffffffffffffffffffffffffffffffffff16630240258988888886896040518663ffffffff1660e01b8152600401610301959493929190611ded565b6020604051808303816000875af1158015610320573d6000803e3d6000fd5b505050506040513d601f19601f820116820180604052508101906103449190611e55565b9050600360008373ffffffffffffffffffffffffffffffffffffffff1673ffffffffffffffffffffffffffffffffffffffff16815260200190815260200160002081908060018154018082558091505060019003906000526020600020016000909190919091505560046000878152602001908152602001600020819080600181540180825580915050600190039060005260206000200160009091909190915055808273ffffffffffffffffffffffffffffffffffffffff167f6273d4d594c3e9579a60a0212122fd582600ec6505e091f5863299f8c7c17e4f60405160405180910390a38092505050949350505050565b610440826111a6565b6005600082815260200190815260200160002060009054906101000a900473ffffffffffffffffffffffffffffffffffffffff1673ffffffffffffffffffffffffffffffffffffffff163373ffffffffffffffffffffffffffffffffffffffff16146104e1576040517f08c379a00000000000000000000000000000000000000000000000000000000081526004016104d890611f05565b60405180910390fd5b600260009054906101000a900473ffffffffffffffffffffffffffffffffffffffff1673ffffffffffffffffffffffffffffffffffffffff166397f15c028433856040518463ffffffff1660e01b815260040161054093929190611f5e565b600060405180830381600087803b15801561055a57600080fd5b505af115801561056e573d6000803e3d6000fd5b50505050505050565b60001515600160149054906101000a900460ff161515146105cd576040517f08c379a00000000000000000000000000000000000000000000000000000000081526004016105c490611fe8565b60405180910390fd5b80600160006101000a81548173ffffffffffffffffffffffffffffffffffffffff021916908373ffffffffffffffffffffffffffffffffffffffff16021790555060018060146101000a81548160ff02191690831515021790555050565b610633611505565b600260009054906101000a900473ffffffffffffffffffffffffffffffffffffffff1673ffffffffffffffffffffffffffffffffffffffff1663fbb62fe7836040518263ffffffff1660e01b815260040161068e9190611664565b600060405180830381865afa1580156106ab573d6000803e3d6000fd5b505050506040513d6000823e3d601f19601f820116820180604052508101906106d49190612216565b9050919050565b600160009054906101000a900473ffffffffffffffffffffffffffffffffffffffff1673ffffffffffffffffffffffffffffffffffffffff163373ffffffffffffffffffffffffffffffffffffffff161461076b576040517f08c379a0000000000000000000000000000000000000000000000000000000008152600401610762906122d1565b60405180910390fd5b6000600260009054906101000a900473ffffffffffffffffffffffffffffffffffffffff1673ffffffffffffffffffffffffffffffffffffffff1663fbb62fe7846040518263ffffffff1660e01b81526004016107c89190611664565b600060405180830381865afa1580156107e5573d6000803e3d6000fd5b505050506040513d6000823e3d601f19601f8201168201806040525081019061080e9190612216565b6080015190506000600360008373ffffffffffffffffffffffffffffffffffffffff1673ffffffffffffffffffffffffffffffffffffffff168152602001908152602001600020905060005b8180549050811015610918578482828154811061087a576108796122f1565b5b90600052602060002001540361090557816001838054905061089c919061234f565b815481106108ad576108ac6122f1565b5b90600052602060002001548282815481106108cb576108ca6122f1565b5b9060005260206000200181905550818054806108ea576108e9612383565b5b60019003818190600052602060002001600090559055610918565b8080610910906123b2565b91505061085a565b50600360008473ffffffffffffffffffffffffffffffffffffffff1673ffffffffffffffffffffffffffffffffffffffff168152602001908152602001600020849080600181540180825580915050600190039060005260206000200160009091909190915055600260009054906101000a900473ffffffffffffffffffffffffffffffffffffffff1673ffffffffffffffffffffffffffffffffffffffff16637192711f85856040518363ffffffff1660e01b81526004016109dc9291906123fa565b600060405180830381600087803b1580156109f657600080fd5b505af1158015610a0a573d6000803e3d6000fd5b5050505050505050565b600260009054906101000a900473ffffffffffffffffffffffffffffffffffffffff1681565b610a43816111a6565b6005600082815260200190815260200160002060009054906101000a900473ffffffffffffffffffffffffffffffffffffffff1673ffffffffffffffffffffffffffffffffffffffff163373ffffffffffffffffffffffffffffffffffffffff1614610ae4576040517f08c379a0000000000000000000000000000000000000000000000000000000008152600401610adb90611f05565b60405180910390fd5b600260009054906101000a900473ffffffffffffffffffffffffffffffffffffffff1673ffffffffffffffffffffffffffffffffffffffff1663f4eff9da83336040518363ffffffff1660e01b8152600401610b419291906123fa565b600060405180830381600087803b158015610b5b57600080fd5b505af1158015610b6f573d6000803e3d6000fd5b505050505050565b60606000600360008473ffffffffffffffffffffffffffffffffffffffff1673ffffffffffffffffffffffffffffffffffffffff168152602001908152602001600020805480602002602001604051908101604052809291908181526020018280548015610c0457602002820191906000526020600020905b815481526020019060010190808311610bf0575b505050505090506000815167ffffffffffffffff811115610c2857610c2761169a565b5b604051908082528060200260200182016040528015610c6157816020015b610c4e611505565b815260200190600190039081610c465790505b50905060005b8251811015610d5c57600260009054906101000a900473ffffffffffffffffffffffffffffffffffffffff1673ffffffffffffffffffffffffffffffffffffffff1663fbb62fe7848381518110610cc157610cc06122f1565b5b60200260200101516040518263ffffffff1660e01b8152600401610ce59190611664565b600060405180830381865afa158015610d02573d6000803e3d6000fd5b505050506040513d6000823e3d601f19601f82011682018060405250810190610d2b9190612216565b828281518110610d3e57610d3d6122f1565b5b60200260200101819052508080610d54906123b2565b915050610c67565b508092505050919050565b60008054906101000a900473ffffffffffffffffffffffffffffffffffffffff1673ffffffffffffffffffffffffffffffffffffffff163373ffffffffffffffffffffffffffffffffffffffff1614610dbf33611254565b610de860008054906101000a900473ffffffffffffffffffffffffffffffffffffffff16611254565b604051602001610df992919061251d565b60405160208183030381529060405290610e49576040517f08c379a0000000000000000000000000000000000000000000000000000000008152600401610e409190612557565b60405180910390fd5b50565b60008054906101000a900473ffffffffffffffffffffffffffffffffffffffff1673ffffffffffffffffffffffffffffffffffffffff163373ffffffffffffffffffffffffffffffffffffffff1614610ea433611254565b610ecd60008054906101000a900473ffffffffffffffffffffffffffffffffffffffff16611254565b604051602001610ede92919061251d565b60405160208183030381529060405290610f2e576040517f08c379a0000000000000000000000000000000000000000000000000000000008152600401610f259190612557565b60405180910390fd5b50806005600084815260200190815260200160002060006101000a81548173ffffffffffffffffffffffffffffffffffffffff021916908373ffffffffffffffffffffffffffffffffffffffff1602179055505050565b6000600260009054906101000a900473ffffffffffffffffffffffffffffffffffffffff16905090565b606060006004600084815260200190815260200160002080548060200260200160405190810160405280929190818152602001828054801561101057602002820191906000526020600020905b815481526020019060010190808311610ffc575b505050505090506000815167ffffffffffffffff8111156110345761103361169a565b5b60405190808252806020026020018201604052801561106d57816020015b61105a611505565b8152602001906001900390816110525790505b50905060005b825181101561116857600260009054906101000a900473ffffffffffffffffffffffffffffffffffffffff1673ffffffffffffffffffffffffffffffffffffffff1663fbb62fe78483815181106110cd576110cc6122f1565b5b60200260200101516040518263ffffffff1660e01b81526004016110f19190611664565b600060405180830381865afa15801561110e573d6000803e3d6000fd5b505050506040513d6000823e3d601f19601f820116820180604052508101906111379190612216565b82828151811061114a576111496122f1565b5b60200260200101819052508080611160906123b2565b915050611073565b508092505050919050565b60056020528060005260406000206000915054906101000a900473ffffffffffffffffffffffffffffffffffffffff1681565b6000600260009054906101000a900473ffffffffffffffffffffffffffffffffffffffff1673ffffffffffffffffffffffffffffffffffffffff1663fbb62fe7836040518263ffffffff1660e01b81526004016112039190611664565b600060405180830381865afa158015611220573d6000803e3d6000fd5b505050506040513d6000823e3d601f19601f820116820180604052508101906112499190612216565b604001519050919050565b60606000602a67ffffffffffffffff8111156112735761127261169a565b5b6040519080825280601f01601f1916602001820160405280156112a55781602001600182028036833780820191505090505b5090507f3000000000000000000000000000000000000000000000000000000000000000816000815181106112dd576112dc6122f1565b5b60200101907effffffffffffffffffffffffffffffffffffffffffffffffffffffffffffff1916908160001a9053507f780000000000000000000000000000000000000000000000000000000000000081600181518110611341576113406122f1565b5b60200101907effffffffffffffffffffffffffffffffffffffffffffffffffffffffffffff1916908160001a90535060005b60148110156114c157600081601361138b919061234f565b60086113979190612579565b60026113a391906126ee565b8573ffffffffffffffffffffffffffffffffffffffff166113c49190612768565b60f81b90506113e160108260f81c6113dc91906127a6565b6114cb565b8360028460026113f19190612579565b6113fb91906127d7565b8151811061140c5761140b6122f1565b5b60200101907effffffffffffffffffffffffffffffffffffffffffffffffffffffffffffff1916908160001a90535061145360108260f81c61144e919061280b565b6114cb565b8360038460026114639190612579565b61146d91906127d7565b8151811061147e5761147d6122f1565b5b60200101907effffffffffffffffffffffffffffffffffffffffffffffffffffffffffffff1916908160001a9053505080806114b9906123b2565b915050611373565b5080915050919050565b6000600a8260ff16106114ed576057826114e5919061283c565b60f81b6114fe565b6030826114fa919061283c565b60f81b5b9050919050565b60405180610180016040528060008152602001600081526020016000815260200160008152602001600073ffffffffffffffffffffffffffffffffffffffff168152602001600081526020016000815260200160008152602001600073ffffffffffffffffffffffffffffffffffffffff16815260200160608152602001606081526020016000600581111561159e5761159d611976565b5b81525090565b6000604051905090565b600080fd5b600080fd5b6000819050919050565b6115cb816115b8565b81146115d657600080fd5b50565b6000813590506115e8816115c2565b92915050565b60008060008060808587031215611608576116076115ae565b5b6000611616878288016115d9565b9450506020611627878288016115d9565b9350506040611638878288016115d9565b9250506060611649878288016115d9565b91505092959194509250565b61165e816115b8565b82525050565b60006020820190506116796000830184611655565b92915050565b600080fd5b600080fd5b6000601f19601f8301169050919050565b7f4e487b7100000000000000000000000000000000000000000000000000000000600052604160045260246000fd5b6116d282611689565b810181811067ffffffffffffffff821117156116f1576116f061169a565b5b80604052505050565b60006117046115a4565b905061171082826116c9565b919050565b600067ffffffffffffffff8211156117305761172f61169a565b5b61173982611689565b9050602081019050919050565b82818337600083830152505050565b600061176861176384611715565b6116fa565b90508281526020810184848401111561178457611783611684565b5b61178f848285611746565b509392505050565b600082601f8301126117ac576117ab61167f565b5b81356117bc848260208601611755565b91505092915050565b600080604083850312156117dc576117db6115ae565b5b60006117ea858286016115d9565b925050602083013567ffffffffffffffff81111561180b5761180a6115b3565b5b61181785828601611797565b9150509250929050565b600073ffffffffffffffffffffffffffffffffffffffff82169050919050565b600061184c82611821565b9050919050565b61185c81611841565b811461186757600080fd5b50565b60008135905061187981611853565b92915050565b600060208284031215611895576118946115ae565b5b60006118a38482850161186a565b91505092915050565b6000602082840312156118c2576118c16115ae565b5b60006118d0848285016115d9565b91505092915050565b6118e2816115b8565b82525050565b6118f181611841565b82525050565b600081519050919050565b600082825260208201905092915050565b60005b83811015611931578082015181840152602081019050611916565b60008484015250505050565b6000611948826118f7565b6119528185611902565b9350611962818560208601611913565b61196b81611689565b840191505092915050565b7f4e487b7100000000000000000000000000000000000000000000000000000000600052602160045260246000fd5b600681106119b6576119b5611976565b5b50565b60008190506119c7826119a5565b919050565b60006119d7826119b9565b9050919050565b6119e7816119cc565b82525050565b600061018083016000830151611a0660008601826118d9565b506020830151611a1960208601826118d9565b506040830151611a2c60408601826118d9565b506060830151611a3f60608601826118d9565b506080830151611a5260808601826118e8565b5060a0830151611a6560a08601826118d9565b5060c0830151611a7860c08601826118d9565b5060e0830151611a8b60e08601826118d9565b50610100830151611aa06101008601826118e8565b50610120830151848203610120860152611aba828261193d565b915050610140830151848203610140860152611ad6828261193d565b915050610160830151611aed6101608601826119de565b508091505092915050565b60006020820190508181036000830152611b1281846119ed565b905092915050565b60008060408385031215611b3157611b306115ae565b5b6000611b3f858286016115d9565b9250506020611b508582860161186a565b9150509250929050565b6000819050919050565b6000611b7f611b7a611b7584611821565b611b5a565b611821565b9050919050565b6000611b9182611b64565b9050919050565b6000611ba382611b86565b9050919050565b611bb381611b98565b82525050565b6000602082019050611bce6000830184611baa565b92915050565b600081519050919050565b600082825260208201905092915050565b6000819050602082019050919050565b600061018083016000830151611c1960008601826118d9565b506020830151611c2c60208601826118d9565b506040830151611c3f60408601826118d9565b506060830151611c5260608601826118d9565b506080830151611c6560808601826118e8565b5060a0830151611c7860a08601826118d9565b5060c0830151611c8b60c08601826118d9565b5060e0830151611c9e60e08601826118d9565b50610100830151611cb36101008601826118e8565b50610120830151848203610120860152611ccd828261193d565b915050610140830151848203610140860152611ce9828261193d565b915050610160830151611d006101608601826119de565b508091505092915050565b6000611d178383611c00565b905092915050565b6000602082019050919050565b6000611d3782611bd4565b611d418185611bdf565b935083602082028501611d5385611bf0565b8060005b85811015611d8f5784840389528151611d708582611d0b565b9450611d7b83611d1f565b925060208a01995050600181019050611d57565b50829750879550505050505092915050565b60006020820190508181036000830152611dbb8184611d2c565b905092915050565b611dcc81611841565b82525050565b6000602082019050611de76000830184611dc3565b92915050565b600060a082019050611e026000830188611655565b611e0f6020830187611655565b611e1c6040830186611655565b611e296060830185611dc3565b611e366080830184611655565b9695505050505050565b600081519050611e4f816115c2565b92915050565b600060208284031215611e6b57611e6a6115ae565b5b6000611e7984828501611e40565b91505092915050565b600082825260208201905092915050565b7f4f6e6c792074686520726576656e7565206465706172746d656e7420656d706c60008201527f6f7965652063616e2063616c6c20746869732066756e6374696f6e2e00000000602082015250565b6000611eef603c83611e82565b9150611efa82611e93565b604082019050919050565b60006020820190508181036000830152611f1e81611ee2565b9050919050565b6000611f30826118f7565b611f3a8185611e82565b9350611f4a818560208601611913565b611f5381611689565b840191505092915050565b6000606082019050611f736000830186611655565b611f806020830185611dc3565b8181036040830152611f928184611f25565b9050949350505050565b7f416c6c6f776564204f6e6c79204f6e636520746f2063616c6c00000000000000600082015250565b6000611fd2601983611e82565b9150611fdd82611f9c565b602082019050919050565b6000602082019050818103600083015261200181611fc5565b9050919050565b600080fd5b600080fd5b60008151905061202181611853565b92915050565b600061203a61203584611715565b6116fa565b90508281526020810184848401111561205657612055611684565b5b612061848285611913565b509392505050565b600082601f83011261207e5761207d61167f565b5b815161208e848260208601612027565b91505092915050565b600681106120a457600080fd5b50565b6000815190506120b681612097565b92915050565b600061018082840312156120d3576120d2612008565b5b6120de6101806116fa565b905060006120ee84828501611e40565b600083015250602061210284828501611e40565b602083015250604061211684828501611e40565b604083015250606061212a84828501611e40565b606083015250608061213e84828501612012565b60808301525060a061215284828501611e40565b60a08301525060c061216684828501611e40565b60c08301525060e061217a84828501611e40565b60e08301525061010061218f84828501612012565b6101008301525061012082015167ffffffffffffffff8111156121b5576121b461200d565b5b6121c184828501612069565b6101208301525061014082015167ffffffffffffffff8111156121e7576121e661200d565b5b6121f384828501612069565b61014083015250610160612209848285016120a7565b6101608301525092915050565b60006020828403121561222c5761222b6115ae565b5b600082015167ffffffffffffffff81111561224a576122496115b3565b5b612256848285016120bc565b91505092915050565b7f4f6e6c79205472616e736665724f664f776e65725368697020436f6e7472616360008201527f7420416c6c6f7765640000000000000000000000000000000000000000000000602082015250565b60006122bb602983611e82565b91506122c68261225f565b604082019050919050565b600060208201905081810360008301526122ea816122ae565b9050919050565b7f4e487b7100000000000000000000000000000000000000000000000000000000600052603260045260246000fd5b7f4e487b7100000000000000000000000000000000000000000000000000000000600052601160045260246000fd5b600061235a826115b8565b9150612365836115b8565b925082820390508181111561237d5761237c612320565b5b92915050565b7f4e487b7100000000000000000000000000000000000000000000000000000000600052603160045260246000fd5b60006123bd826115b8565b91507fffffffffffffffffffffffffffffffffffffffffffffffffffffffffffffffff82036123ef576123ee612320565b5b600182019050919050565b600060408201905061240f6000830185611655565b61241c6020830184611dc3565b9392505050565b600081905092915050565b7f43616c6c6572206973206e6f7420746865206f776e65722e2043616c6c65723a60008201527f2000000000000000000000000000000000000000000000000000000000000000602082015250565b600061248a602183612423565b91506124958261242e565b602182019050919050565b60006124ab826118f7565b6124b58185612423565b93506124c5818560208601611913565b80840191505092915050565b7f2c204f776e65723a200000000000000000000000000000000000000000000000600082015250565b6000612507600983612423565b9150612512826124d1565b600982019050919050565b60006125288261247d565b915061253482856124a0565b915061253f826124fa565b915061254b82846124a0565b91508190509392505050565b600060208201905081810360008301526125718184611f25565b905092915050565b6000612584826115b8565b915061258f836115b8565b925082820261259d816115b8565b915082820484148315176125b4576125b3612320565b5b5092915050565b60008160011c9050919050565b6000808291508390505b6001851115612612578086048111156125ee576125ed612320565b5b60018516156125fd5780820291505b808102905061260b856125bb565b94506125d2565b94509492505050565b60008261262b57600190506126e7565b8161263957600090506126e7565b816001811461264f576002811461265957612688565b60019150506126e7565b60ff84111561266b5761266a612320565b5b8360020a91508482111561268257612681612320565b5b506126e7565b5060208310610133831016604e8410600b84101617156126bd5782820a9050838111156126b8576126b7612320565b5b6126e7565b6126ca84848460016125c8565b925090508184048111156126e1576126e0612320565b5b81810290505b9392505050565b60006126f9826115b8565b9150612704836115b8565b92506127317fffffffffffffffffffffffffffffffffffffffffffffffffffffffffffffffff848461261b565b905092915050565b7f4e487b7100000000000000000000000000000000000000000000000000000000600052601260045260246000fd5b6000612773826115b8565b915061277e836115b8565b92508261278e5761278d612739565b5b828204905092915050565b600060ff82169050919050565b60006127b182612799565b91506127bc83612799565b9250826127cc576127cb612739565b5b828204905092915050565b60006127e2826115b8565b91506127ed836115b8565b925082820190508082111561280557612804612320565b5b92915050565b600061281682612799565b915061282183612799565b92508261283157612830612739565b5b828206905092915050565b600061284782612799565b915061285283612799565b9250828201905060ff81111561286b5761286a612320565b5b9291505056fea2646970667358221220578086c7bc2b9fab1ec8a0a93e055b2b907bfdcf32edbaa7769128ab07b1588564736f6c63430008120033608060405234801561001057600080fd5b50611fb6806100206000396000f3fe608060405234801561001057600080fd5b506004361061009e5760003560e01c806397f15c021161006657806397f15c02146101435780639bcff9ba1461015f578063e261f1e51461017b578063f4eff9da146101b6578063fbb62fe7146101d25761009e565b806302402589146100a357806313fe24f7146100d35780637192711f146100ef57806377d90c661461010b5780637b5484a814610127575b600080fd5b6100bd60048036038101906100b8919061134d565b610202565b6040516100ca91906113d7565b60405180910390f35b6100ed60048036038101906100e8919061155d565b610428565b005b61010960048036038101906101049190611674565b61061f565b005b610125600480360381019061012091906116b4565b61070d565b005b610141600480360381019061013c9190611674565b610837565b005b61015d600480360381019061015891906116e1565b610974565b005b61017960048036038101906101749190611674565b610a86565b005b610195600480360381019061019091906116b4565b610bc3565b6040516101ad9c9b9a99989796959493929190611855565b60405180910390f35b6101d060048036038101906101cb9190611674565b610d80565b005b6101ec60048036038101906101e791906116b4565b610e6e565b6040516101f99190611a9f565b60405180910390f35b60006001600081548092919061021790611af0565b919050555060405180610180016040528060015481526020018781526020018681526020018581526020018473ffffffffffffffffffffffffffffffffffffffff16815260200183815260200160008152602001428152602001600073ffffffffffffffffffffffffffffffffffffffff168152602001604051806020016040528060008152508152602001604051806020016040528060008152508152602001600060058111156102cc576102cb6117de565b5b81525060008060015481526020019081526020016000206000820151816000015560208201518160010155604082015181600201556060820151816003015560808201518160040160006101000a81548173ffffffffffffffffffffffffffffffffffffffff021916908373ffffffffffffffffffffffffffffffffffffffff16021790555060a0820151816005015560c0820151816006015560e082015181600701556101008201518160080160006101000a81548173ffffffffffffffffffffffffffffffffffffffff021916908373ffffffffffffffffffffffffffffffffffffffff1602179055506101208201518160090190816103ce9190611d44565b5061014082015181600a0190816103e59190611d44565b5061016082015181600b0160006101000a81548160ff02191690836005811115610412576104116117de565b5b0217905550905050600154905095945050505050565b60008060008c81526020019081526020016000206000015403610480576040517f08c379a000000000000000000000000000000000000000000000000000000000815260040161047790611e62565b60405180910390fd5b886000808c815260200190815260200160002060010181905550876000808c815260200190815260200160002060020181905550866000808c815260200190815260200160002060030181905550856000808c815260200190815260200160002060040160006101000a81548173ffffffffffffffffffffffffffffffffffffffff021916908373ffffffffffffffffffffffffffffffffffffffff160217905550846000808c815260200190815260200160002060050181905550836000808c815260200190815260200160002060080160006101000a81548173ffffffffffffffffffffffffffffffffffffffff021916908373ffffffffffffffffffffffffffffffffffffffff160217905550826000808c815260200190815260200160002060090190816105b29190611d44565b50816000808c8152602001908152602001600020600a0190816105d59190611d44565b50806000808c8152602001908152602001600020600b0160006101000a81548160ff0219169083600581111561060e5761060d6117de565b5b021790555050505050505050505050565b60008060008481526020019081526020016000206000015403610677576040517f08c379a000000000000000000000000000000000000000000000000000000000815260040161066e90611e62565b60405180910390fd5b8060008084815260200190815260200160002060040160006101000a81548173ffffffffffffffffffffffffffffffffffffffff021916908373ffffffffffffffffffffffffffffffffffffffff1602179055506005600080848152602001908152602001600020600b0160006101000a81548160ff02191690836005811115610704576107036117de565b5b02179055505050565b60008060008381526020019081526020016000206000015403610765576040517f08c379a000000000000000000000000000000000000000000000000000000000815260040161075c90611e62565b60405180910390fd5b6000808281526020019081526020016000206000808201600090556001820160009055600282016000905560038201600090556004820160006101000a81549073ffffffffffffffffffffffffffffffffffffffff02191690556005820160009055600682016000905560078201600090556008820160006101000a81549073ffffffffffffffffffffffffffffffffffffffff021916905560098201600061080e91906111a9565b600a8201600061081e91906111a9565b600b820160006101000a81549060ff0219169055505050565b6000806000848152602001908152602001600020600001540361088f576040517f08c379a000000000000000000000000000000000000000000000000000000000815260040161088690611e62565b60405180910390fd5b8073ffffffffffffffffffffffffffffffffffffffff1660008084815260200190815260200160002060040160009054906101000a900473ffffffffffffffffffffffffffffffffffffffff1673ffffffffffffffffffffffffffffffffffffffff1614610932576040517f08c379a000000000000000000000000000000000000000000000000000000000815260040161092990611ece565b60405180910390fd5b6002600080848152602001908152602001600020600b0160006101000a81548160ff0219169083600581111561096b5761096a6117de565b5b02179055505050565b600080600085815260200190815260200160002060000154036109cc576040517f08c379a00000000000000000000000000000000000000000000000000000000081526004016109c390611e62565b60405180910390fd5b8160008085815260200190815260200160002060080160006101000a81548173ffffffffffffffffffffffffffffffffffffffff021916908373ffffffffffffffffffffffffffffffffffffffff1602179055506003600080858152602001908152602001600020600b0160006101000a81548160ff02191690836005811115610a5957610a586117de565b5b021790555080600080858152602001908152602001600020600a019081610a809190611d44565b50505050565b60008060008481526020019081526020016000206000015403610ade576040517f08c379a0000000000000000000000000000000000000000000000000000000008152600401610ad590611e62565b60405180910390fd5b8073ffffffffffffffffffffffffffffffffffffffff1660008084815260200190815260200160002060040160009054906101000a900473ffffffffffffffffffffffffffffffffffffffff1673ffffffffffffffffffffffffffffffffffffffff1614610b81576040517f08c379a0000000000000000000000000000000000000000000000000000000008152600401610b7890611f60565b60405180910390fd5b6004600080848152602001908152602001600020600b0160006101000a81548160ff02191690836005811115610bba57610bb96117de565b5b02179055505050565b60006020528060005260406000206000915090508060000154908060010154908060020154908060030154908060040160009054906101000a900473ffffffffffffffffffffffffffffffffffffffff16908060050154908060060154908060070154908060080160009054906101000a900473ffffffffffffffffffffffffffffffffffffffff1690806009018054610c5c90611b67565b80601f0160208091040260200160405190810160405280929190818152602001828054610c8890611b67565b8015610cd55780601f10610caa57610100808354040283529160200191610cd5565b820191906000526020600020905b815481529060010190602001808311610cb857829003601f168201915b50505050509080600a018054610cea90611b67565b80601f0160208091040260200160405190810160405280929190818152602001828054610d1690611b67565b8015610d635780601f10610d3857610100808354040283529160200191610d63565b820191906000526020600020905b815481529060010190602001808311610d4657829003601f168201915b50505050509080600b0160009054906101000a900460ff1690508c565b60008060008481526020019081526020016000206000015403610dd8576040517f08c379a0000000000000000000000000000000000000000000000000000000008152600401610dcf90611e62565b60405180910390fd5b8060008084815260200190815260200160002060080160006101000a81548173ffffffffffffffffffffffffffffffffffffffff021916908373ffffffffffffffffffffffffffffffffffffffff1602179055506002600080848152602001908152602001600020600b0160006101000a81548160ff02191690836005811115610e6557610e646117de565b5b02179055505050565b610e766111e9565b60008060008481526020019081526020016000206000015403610ece576040517f08c379a0000000000000000000000000000000000000000000000000000000008152600401610ec590611e62565b60405180910390fd5b60405180610180016040528083815260200160008085815260200190815260200160002060010154815260200160008085815260200190815260200160002060020154815260200160008085815260200190815260200160002060030154815260200160008085815260200190815260200160002060040160009054906101000a900473ffffffffffffffffffffffffffffffffffffffff1673ffffffffffffffffffffffffffffffffffffffff16815260200160008085815260200190815260200160002060050154815260200160008085815260200190815260200160002060060154815260200160008085815260200190815260200160002060070154815260200160008085815260200190815260200160002060080160009054906101000a900473ffffffffffffffffffffffffffffffffffffffff1673ffffffffffffffffffffffffffffffffffffffff168152602001600080858152602001908152602001600020600901805461104490611b67565b80601f016020809104026020016040519081016040528092919081815260200182805461107090611b67565b80156110bd5780601f10611092576101008083540402835291602001916110bd565b820191906000526020600020905b8154815290600101906020018083116110a057829003601f168201915b50505050508152602001600080858152602001908152602001600020600a0180546110e790611b67565b80601f016020809104026020016040519081016040528092919081815260200182805461111390611b67565b80156111605780601f1061113557610100808354040283529160200191611160565b820191906000526020600020905b81548152906001019060200180831161114357829003601f168201915b50505050508152602001600080858152602001908152602001600020600b0160009054906101000a900460ff16600581111561119f5761119e6117de565b5b8152509050919050565b5080546111b590611b67565b6000825580601f106111c757506111e6565b601f0160209004906000526020600020908101906111e59190611288565b5b50565b60405180610180016040528060008152602001600081526020016000815260200160008152602001600073ffffffffffffffffffffffffffffffffffffffff168152602001600081526020016000815260200160008152602001600073ffffffffffffffffffffffffffffffffffffffff168152602001606081526020016060815260200160006005811115611282576112816117de565b5b81525090565b5b808211156112a1576000816000905550600101611289565b5090565b6000604051905090565b600080fd5b600080fd5b6000819050919050565b6112cc816112b9565b81146112d757600080fd5b50565b6000813590506112e9816112c3565b92915050565b600073ffffffffffffffffffffffffffffffffffffffff82169050919050565b600061131a826112ef565b9050919050565b61132a8161130f565b811461133557600080fd5b50565b60008135905061134781611321565b92915050565b600080600080600060a08688031215611369576113686112af565b5b6000611377888289016112da565b9550506020611388888289016112da565b9450506040611399888289016112da565b93505060606113aa88828901611338565b92505060806113bb888289016112da565b9150509295509295909350565b6113d1816112b9565b82525050565b60006020820190506113ec60008301846113c8565b92915050565b600080fd5b600080fd5b6000601f19601f8301169050919050565b7f4e487b7100000000000000000000000000000000000000000000000000000000600052604160045260246000fd5b611445826113fc565b810181811067ffffffffffffffff821117156114645761146361140d565b5b80604052505050565b60006114776112a5565b9050611483828261143c565b919050565b600067ffffffffffffffff8211156114a3576114a261140d565b5b6114ac826113fc565b9050602081019050919050565b82818337600083830152505050565b60006114db6114d684611488565b61146d565b9050828152602081018484840111156114f7576114f66113f7565b5b6115028482856114b9565b509392505050565b600082601f83011261151f5761151e6113f2565b5b813561152f8482602086016114c8565b91505092915050565b6006811061154557600080fd5b50565b60008135905061155781611538565b92915050565b6000806000806000806000806000806101408b8d031215611581576115806112af565b5b600061158f8d828e016112da565b9a505060206115a08d828e016112da565b99505060406115b18d828e016112da565b98505060606115c28d828e016112da565b97505060806115d38d828e01611338565b96505060a06115e48d828e016112da565b95505060c06115f58d828e01611338565b94505060e08b013567ffffffffffffffff811115611616576116156112b4565b5b6116228d828e0161150a565b9350506101008b013567ffffffffffffffff811115611644576116436112b4565b5b6116508d828e0161150a565b9250506101206116628d828e01611548565b9150509295989b9194979a5092959850565b6000806040838503121561168b5761168a6112af565b5b6000611699858286016112da565b92505060206116aa85828601611338565b9150509250929050565b6000602082840312156116ca576116c96112af565b5b60006116d8848285016112da565b91505092915050565b6000806000606084860312156116fa576116f96112af565b5b6000611708868287016112da565b935050602061171986828701611338565b925050604084013567ffffffffffffffff81111561173a576117396112b4565b5b6117468682870161150a565b9150509250925092565b6117598161130f565b82525050565b600081519050919050565b600082825260208201905092915050565b60005b8381101561179957808201518184015260208101905061177e565b60008484015250505050565b60006117b08261175f565b6117ba818561176a565b93506117ca81856020860161177b565b6117d3816113fc565b840191505092915050565b7f4e487b7100000000000000000000000000000000000000000000000000000000600052602160045260246000fd5b6006811061181e5761181d6117de565b5b50565b600081905061182f8261180d565b919050565b600061183f82611821565b9050919050565b61184f81611834565b82525050565b60006101808201905061186b600083018f6113c8565b611878602083018e6113c8565b611885604083018d6113c8565b611892606083018c6113c8565b61189f608083018b611750565b6118ac60a083018a6113c8565b6118b960c08301896113c8565b6118c660e08301886113c8565b6118d4610100830187611750565b8181036101208301526118e781866117a5565b90508181036101408301526118fc81856117a5565b905061190c610160830184611846565b9d9c50505050505050505050505050565b611926816112b9565b82525050565b6119358161130f565b82525050565b600082825260208201905092915050565b60006119578261175f565b611961818561193b565b935061197181856020860161177b565b61197a816113fc565b840191505092915050565b61198e81611834565b82525050565b6000610180830160008301516119ad600086018261191d565b5060208301516119c0602086018261191d565b5060408301516119d3604086018261191d565b5060608301516119e6606086018261191d565b5060808301516119f9608086018261192c565b5060a0830151611a0c60a086018261191d565b5060c0830151611a1f60c086018261191d565b5060e0830151611a3260e086018261191d565b50610100830151611a4761010086018261192c565b50610120830151848203610120860152611a61828261194c565b915050610140830151848203610140860152611a7d828261194c565b915050610160830151611a94610160860182611985565b508091505092915050565b60006020820190508181036000830152611ab98184611994565b905092915050565b7f4e487b7100000000000000000000000000000000000000000000000000000000600052601160045260246000fd5b6000611afb826112b9565b91507fffffffffffffffffffffffffffffffffffffffffffffffffffffffffffffffff8203611b2d57611b2c611ac1565b5b600182019050919050565b7f4e487b7100000000000000000000000000000000000000000000000000000000600052602260045260246000fd5b60006002820490506001821680611b7f57607f821691505b602082108103611b9257611b91611b38565b5b50919050565b60008190508160005260206000209050919050565b60006020601f8301049050919050565b600082821b905092915050565b600060088302611bfa7fffffffffffffffffffffffffffffffffffffffffffffffffffffffffffffffff82611bbd565b611c048683611bbd565b95508019841693508086168417925050509392505050565b6000819050919050565b6000611c41611c3c611c37846112b9565b611c1c565b6112b9565b9050919050565b6000819050919050565b611c5b83611c26565b611c6f611c6782611c48565b848454611bca565b825550505050565b600090565b611c84611c77565b611c8f818484611c52565b505050565b5b81811015611cb357611ca8600082611c7c565b600181019050611c95565b5050565b601f821115611cf857611cc981611b98565b611cd284611bad565b81016020851015611ce1578190505b611cf5611ced85611bad565b830182611c94565b50505b505050565b600082821c905092915050565b6000611d1b60001984600802611cfd565b1980831691505092915050565b6000611d348383611d0a565b9150826002028217905092915050565b611d4d8261175f565b67ffffffffffffffff811115611d6657611d6561140d565b5b611d708254611b67565b611d7b828285611cb7565b600060209050601f831160018114611dae5760008415611d9c578287015190505b611da68582611d28565b865550611e0e565b601f198416611dbc86611b98565b60005b82811015611de457848901518255600182019150602085019450602081019050611dbf565b86831015611e015784890151611dfd601f891682611d0a565b8355505b6001600288020188555050505b505050505050565b7f4c616e6420646f6573206e6f7420657869737400000000000000000000000000600082015250565b6000611e4c60138361176a565b9150611e5782611e16565b602082019050919050565b60006020820190508181036000830152611e7b81611e3f565b9050919050565b7f6f6e6c79206f776e65722068697320616c6c6f77656400000000000000000000600082015250565b6000611eb860168361176a565b9150611ec382611e82565b602082019050919050565b60006020820190508181036000830152611ee781611eab565b9050919050565b7f6f6e6c79206f776e65722063616e206d616b6520617661696c61626c6520746f60008201527f2073656c6c000000000000000000000000000000000000000000000000000000602082015250565b6000611f4a60258361176a565b9150611f5582611eee565b604082019050919050565b60006020820190508181036000830152611f7981611f3d565b905091905056fea26469706673582212207ddaec60f19884756b4d34c9738c66988accc10b870c12712b6032fc525d1fac64736f6c63430008120033",
  "immutableReferences": {},
  "source": "// SPDX-License-Identifier: MIT\r\npragma solidity >=0.4.22 <0.9.0;\r\n\r\n\r\nimport \"./Properties.sol\";\r\n\r\ncontract LandRegistry{\r\n\r\n    address private contractOwner;\r\n    address private transferOwnershipContractAddress;\r\n    bool private transferOwnershipContractAddressUpdated = false;\r\n\r\n    Property public propertiesContract;\r\n    \r\n    \r\n    constructor(){\r\n        contractOwner = msg.sender;\r\n        transferOwnershipContractAddress = address(0);\r\n        transferOwnershipContractAddressUpdated = false;\r\n        propertiesContract = new Property();\r\n    }\r\n\r\n    // modifiers \r\n\r\n   \r\n\r\n\r\n\r\n\r\n    modifier onlyRevenueDeptEmployee(uint256 revenueDeptId) {\r\n        require(msg.sender == revenueDeptIdToEmployee[revenueDeptId], \"Only the revenue department employee can call this function.\");\r\n        _;\r\n    }\r\n\r\n    // events\r\n    event LandAdded(address indexed owner,uint256 indexed propertyId);\r\n\r\n\r\n\r\n    // mapping owner and thier properties\r\n    mapping(address => uint256[]) private propertiesOfOwner;\r\n\r\n    // mapping revenue Department and properties under control of them \r\n    // for verification procedures\r\n    mapping(uint256 => uint256[]) private propertiesControlledByRevenueDept;\r\n\r\n\r\n    \r\n    // mapping of revenue department id to employee address\r\n    mapping (uint256 => address) public revenueDeptIdToEmployee;\r\n\r\n    modifier onlyOwner() {\r\n        require(\r\n            msg.sender == contractOwner, \r\n            string(\r\n                abi.encodePacked(\r\n                    \"Caller is not the owner. Caller: \", \r\n                    toAsciiString(msg.sender),\r\n                    \", Owner: \", \r\n                    toAsciiString(contractOwner)\r\n                )\r\n            )\r\n        );\r\n        _;\r\n    }\r\n\r\n    function toAsciiString(address x) internal pure returns (string memory) {\r\n        bytes memory s = new bytes(42);\r\n        s[0] = \"0\";\r\n        s[1] = \"x\";\r\n        for (uint i = 0; i < 20; i++) {\r\n            bytes1 b = bytes1(uint8(uint(uint160(x)) / (2**(8*(19 - i)))));\r\n            s[2*i+2] = char(uint8(b) / 16);\r\n            s[2*i+3] = char(uint8(b) % 16);\r\n        }\r\n        return string(s);\r\n    }\r\n\r\n    function char(uint8 b) internal pure returns (bytes1) {\r\n        return b < 10 ? bytes1(b + 48) : bytes1(b + 87);\r\n    }\r\n\r\n    function restrictedFunction() public onlyOwner {\r\n        // Function logic here\r\n    }\r\n\r\n    function setTransferOwnershipContractAddress(\r\n        address contractAddress\r\n        ) public {\r\n            \r\n            // This function can be called only once \r\n            require(transferOwnershipContractAddressUpdated==false,\"Allowed Only Once to call\");\r\n            \r\n            // setting contract address\r\n            transferOwnershipContractAddress = contractAddress;\r\n\r\n            // Make transferOwnership contrat updated as True \r\n            // So,that no body calls it again\r\n            transferOwnershipContractAddressUpdated = true;\r\n    }\r\n\r\n\r\n\r\n\r\n    // add Land and maps to owner\r\n    function addLand(\r\n        uint256 _locationId,\r\n        uint256 _revenueDepartmentId,\r\n        uint256 _surveyNumber,\r\n        uint256 _area\r\n        ) public returns (uint256) {\r\n        \r\n        // check already land present or not \r\n        // with revernue dept id, location id, survey number\r\n\r\n        address _owner = msg.sender;\r\n        uint256 propertyId = propertiesContract.addLand(\r\n                                                        _locationId,\r\n                                                        _revenueDepartmentId,\r\n                                                        _surveyNumber,\r\n                                                        _owner,\r\n                                                        _area\r\n                                                    );\r\n\r\n\r\n        // adding property id to owner list\r\n        propertiesOfOwner[_owner].push(propertyId);\r\n\r\n        // adding property id to revenue department\r\n        propertiesControlledByRevenueDept[_revenueDepartmentId].push(propertyId);\r\n\r\n\r\n        emit LandAdded(_owner,propertyId);\r\n        \r\n        return propertyId;\r\n    }\r\n\r\n\r\n    function getPropertyDetails(\r\n        uint256 _propertyId\r\n        ) public view returns (Property.Land memory){\r\n\r\n        return propertiesContract.getLandDetailsAsStruct(_propertyId);\r\n    }\r\n\r\n\r\n\r\n    // returns the property details of a owner\r\n    function getPropertiesOfOwner(\r\n        address _owner\r\n        ) public view returns (\r\n        Property.Land[] memory\r\n        ) {\r\n            uint256[] memory propertyIds = propertiesOfOwner[_owner];\r\n            Property.Land[] memory properties = new Property.Land[](propertyIds.length);\r\n            \r\n            for (uint256 i = 0; i < propertyIds.length; i++) {\r\n            //   properties[i] = propertiesContract.lands(propertyIds[i]);\r\n                properties[i] = propertiesContract.getLandDetailsAsStruct(propertyIds[i]);\r\n            }\r\n               \r\n                \r\n            return properties;\r\n    }\r\n\r\n\r\n    \r\n    // return the property details based on revenue Dept\r\n    function getPropertiesByRevenueDeptId(\r\n        uint256 _revenueDeptId\r\n        ) public view returns (\r\n        Property.Land[] memory\r\n        ) {\r\n            uint256[] memory propertyIds = propertiesControlledByRevenueDept[_revenueDeptId];\r\n            \r\n            Property.Land[] memory properties = new Property.Land[](propertyIds.length);\r\n            \r\n            for (uint256 i = 0; i < propertyIds.length; i++) {\r\n            //   properties[i] = propertiesContract.lands(propertyIds[i]);\r\n                properties[i] = propertiesContract.getLandDetailsAsStruct(propertyIds[i]);\r\n            }\r\n               \r\n                \r\n            return properties;\r\n    }\r\n            \r\n\r\n    // map to revenue department id to employee address\r\n    function mapRevenueDeptIdToEmployee(\r\n        uint256 revenueDeptId, \r\n        address employeeAddress\r\n        ) public onlyOwner {\r\n        \r\n        revenueDeptIdToEmployee[revenueDeptId] = employeeAddress;\r\n    }\r\n\r\n\r\n    function getRevenueDeptId(uint256 propertyId) private view returns (uint256) {\r\n        return propertiesContract.getLandDetailsAsStruct(propertyId).revenueDepartmentId;\r\n    }\r\n\r\n    function verifyProperty(\r\n        uint256 _propertyId\r\n        ) public onlyRevenueDeptEmployee(getRevenueDeptId(_propertyId)) {\r\n        \r\n        propertiesContract.changeStateToVerifed(_propertyId, msg.sender);\r\n\r\n    }\r\n\r\n    function rejectProperty(\r\n        uint256 _propertyId,\r\n        string memory _reason\r\n        ) public onlyRevenueDeptEmployee(getRevenueDeptId(_propertyId)) {\r\n        \r\n            propertiesContract.changeStateToRejected(_propertyId, msg.sender,_reason);\r\n\r\n    }\r\n\r\n\r\n\r\n\r\n    function transferOwnership(uint256 _propertyId, address newOwner) public {\r\n        \r\n        require(msg.sender==transferOwnershipContractAddress,\"Only TransferOfOwnerShip Contract Allowed\");\r\n        \r\n        // Remove property from old owner's list\r\n        address oldOwner  = propertiesContract.getLandDetailsAsStruct(_propertyId).owner;\r\n\r\n        uint256[] storage propertiesOfOldOwner = propertiesOfOwner[oldOwner];\r\n        for (uint i = 0; i < propertiesOfOldOwner.length; i++) {\r\n            if (propertiesOfOldOwner[i] == _propertyId) {\r\n                propertiesOfOldOwner[i] = propertiesOfOldOwner[propertiesOfOldOwner.length - 1];\r\n                propertiesOfOldOwner.pop();\r\n                break;\r\n            }\r\n        }\r\n\r\n        // Add Property to new owner's list\r\n        propertiesOfOwner[newOwner].push(_propertyId);\r\n\r\n        propertiesContract.updateOwner(_propertyId, newOwner);\r\n\r\n        \r\n\r\n    }\r\n\r\n    function getPropertiesContract() public view returns (address){\r\n        return address(propertiesContract);\r\n    }\r\n   \r\n}\r\n\r\n",
  "sourcePath": "C:\\Users\\Dantez Mwaxh\\Land-Registraion-System-with-Blockchain\\Smart_contracts\\contracts\\LandRegistry.sol",
  "compiler": {
    "name": "solc",
    "version": "0.8.18+commit.87f61d96.Emscripten.clang"
  },
  "schemaVersion": "3.4.16",
  "updatedAt": "2025-03-26T13:28:50.206Z",
  "devdoc": {
    "kind": "dev",
    "methods": {},
    "version": 1
  },
  "userdoc": {
    "kind": "user",
    "methods": {},
    "version": 1
  }
}