{
  "contractName": "LandRegistry",
  "abi": [
    {
      "inputs": [
        {
          "internalType": "address",
          "name": "_usersContractAddress",
          "type": "address"
        }
      ],
      "stateMutability": "nonpayable",
      "type": "constructor"
    },
    {
      "anonymous": false,
      "inputs": [
        {
          "indexed": true,
          "internalType": "address",
          "name": "owner",
          "type": "address"
        },
        {
          "indexed": true,
          "internalType": "uint256",
          "name": "propertyId",
          "type": "uint256"
        }
      ],
      "name": "LandAdded",
      "type": "event"
    },
    {
      "inputs": [],
      "name": "propertiesContract",
      "outputs": [
        {
          "internalType": "contract Property",
          "name": "",
          "type": "address"
        }
      ],
      "stateMutability": "view",
      "type": "function",
      "constant": true
    },
    {
      "inputs": [
        {
          "internalType": "uint256",
          "name": "",
          "type": "uint256"
        }
      ],
      "name": "revenueDeptIdToEmployee",
      "outputs": [
        {
          "internalType": "address",
          "name": "",
          "type": "address"
        }
      ],
      "stateMutability": "view",
      "type": "function",
      "constant": true
    },
    {
      "inputs": [],
      "name": "usersContract",
      "outputs": [
        {
          "internalType": "contract Users",
          "name": "",
          "type": "address"
        }
      ],
      "stateMutability": "view",
      "type": "function",
      "constant": true
    },
    {
      "inputs": [],
      "name": "restrictedFunction",
      "outputs": [],
      "stateMutability": "nonpayable",
      "type": "function"
    },
    {
      "inputs": [
        {
          "internalType": "address",
          "name": "contractAddress",
          "type": "address"
        }
      ],
      "name": "setTransferOwnershipContractAddress",
      "outputs": [],
      "stateMutability": "nonpayable",
      "type": "function"
    },
    {
      "inputs": [
        {
          "internalType": "uint256",
          "name": "_locationId",
          "type": "uint256"
        },
        {
          "internalType": "uint256",
          "name": "_revenueDepartmentId",
          "type": "uint256"
        },
        {
          "internalType": "uint256",
          "name": "_surveyNumber",
          "type": "uint256"
        },
        {
          "internalType": "uint256",
          "name": "_area",
          "type": "uint256"
        }
      ],
      "name": "addLand",
      "outputs": [
        {
          "internalType": "uint256",
          "name": "",
          "type": "uint256"
        }
      ],
      "stateMutability": "nonpayable",
      "type": "function"
    },
    {
      "inputs": [
        {
          "internalType": "uint256",
          "name": "_propertyId",
          "type": "uint256"
        }
      ],
      "name": "getPropertyDetails",
      "outputs": [
        {
          "components": [
            {
              "internalType": "uint256",
              "name": "propertyId",
              "type": "uint256"
            },
            {
              "internalType": "uint256",
              "name": "locationId",
              "type": "uint256"
            },
            {
              "internalType": "uint256",
              "name": "revenueDepartmentId",
              "type": "uint256"
            },
            {
              "internalType": "uint256",
              "name": "surveyNumber",
              "type": "uint256"
            },
            {
              "internalType": "address",
              "name": "owner",
              "type": "address"
            },
            {
              "internalType": "uint256",
              "name": "area",
              "type": "uint256"
            },
            {
              "internalType": "uint256",
              "name": "price",
              "type": "uint256"
            },
            {
              "internalType": "uint256",
              "name": "registeredTime",
              "type": "uint256"
            },
            {
              "internalType": "address",
              "name": "employeeId",
              "type": "address"
            },
            {
              "internalType": "string",
              "name": "scheduledDate",
              "type": "string"
            },
            {
              "internalType": "string",
              "name": "rejectedReason",
              "type": "string"
            },
            {
              "internalType": "enum Property.StateOfProperty",
              "name": "state",
              "type": "uint8"
            }
          ],
          "internalType": "struct Property.Land",
          "name": "",
          "type": "tuple"
        }
      ],
      "stateMutability": "view",
      "type": "function",
      "constant": true
    },
    {
      "inputs": [
        {
          "internalType": "address",
          "name": "_owner",
          "type": "address"
        }
      ],
      "name": "getPropertiesOfOwner",
      "outputs": [
        {
          "components": [
            {
              "internalType": "uint256",
              "name": "propertyId",
              "type": "uint256"
            },
            {
              "internalType": "uint256",
              "name": "locationId",
              "type": "uint256"
            },
            {
              "internalType": "uint256",
              "name": "revenueDepartmentId",
              "type": "uint256"
            },
            {
              "internalType": "uint256",
              "name": "surveyNumber",
              "type": "uint256"
            },
            {
              "internalType": "address",
              "name": "owner",
              "type": "address"
            },
            {
              "internalType": "uint256",
              "name": "area",
              "type": "uint256"
            },
            {
              "internalType": "uint256",
              "name": "price",
              "type": "uint256"
            },
            {
              "internalType": "uint256",
              "name": "registeredTime",
              "type": "uint256"
            },
            {
              "internalType": "address",
              "name": "employeeId",
              "type": "address"
            },
            {
              "internalType": "string",
              "name": "scheduledDate",
              "type": "string"
            },
            {
              "internalType": "string",
              "name": "rejectedReason",
              "type": "string"
            },
            {
              "internalType": "enum Property.StateOfProperty",
              "name": "state",
              "type": "uint8"
            }
          ],
          "internalType": "struct Property.Land[]",
          "name": "",
          "type": "tuple[]"
        }
      ],
      "stateMutability": "view",
      "type": "function",
      "constant": true
    },
    {
      "inputs": [
        {
          "internalType": "uint256",
          "name": "_revenueDeptId",
          "type": "uint256"
        }
      ],
      "name": "getPropertiesByRevenueDeptId",
      "outputs": [
        {
          "components": [
            {
              "internalType": "uint256",
              "name": "propertyId",
              "type": "uint256"
            },
            {
              "internalType": "uint256",
              "name": "locationId",
              "type": "uint256"
            },
            {
              "internalType": "uint256",
              "name": "revenueDepartmentId",
              "type": "uint256"
            },
            {
              "internalType": "uint256",
              "name": "surveyNumber",
              "type": "uint256"
            },
            {
              "internalType": "address",
              "name": "owner",
              "type": "address"
            },
            {
              "internalType": "uint256",
              "name": "area",
              "type": "uint256"
            },
            {
              "internalType": "uint256",
              "name": "price",
              "type": "uint256"
            },
            {
              "internalType": "uint256",
              "name": "registeredTime",
              "type": "uint256"
            },
            {
              "internalType": "address",
              "name": "employeeId",
              "type": "address"
            },
            {
              "internalType": "string",
              "name": "scheduledDate",
              "type": "string"
            },
            {
              "internalType": "string",
              "name": "rejectedReason",
              "type": "string"
            },
            {
              "internalType": "enum Property.StateOfProperty",
              "name": "state",
              "type": "uint8"
            }
          ],
          "internalType": "struct Property.Land[]",
          "name": "",
          "type": "tuple[]"
        }
      ],
      "stateMutability": "view",
      "type": "function",
      "constant": true
    },
    {
      "inputs": [
        {
          "internalType": "uint256",
          "name": "revenueDeptId",
          "type": "uint256"
        },
        {
          "internalType": "address",
          "name": "employeeAddress",
          "type": "address"
        }
      ],
      "name": "mapRevenueDeptIdToEmployee",
      "outputs": [],
      "stateMutability": "nonpayable",
      "type": "function"
    },
    {
      "inputs": [
        {
          "internalType": "uint256",
          "name": "_propertyId",
          "type": "uint256"
        }
      ],
      "name": "verifyProperty",
      "outputs": [],
      "stateMutability": "nonpayable",
      "type": "function"
    },
    {
      "inputs": [
        {
          "internalType": "uint256",
          "name": "_propertyId",
          "type": "uint256"
        },
        {
          "internalType": "string",
          "name": "_reason",
          "type": "string"
        }
      ],
      "name": "rejectProperty",
      "outputs": [],
      "stateMutability": "nonpayable",
      "type": "function"
    },
    {
      "inputs": [
        {
          "internalType": "uint256",
          "name": "_propertyId",
          "type": "uint256"
        },
        {
          "internalType": "address",
          "name": "newOwner",
          "type": "address"
        }
      ],
      "name": "transferOwnership",
      "outputs": [],
      "stateMutability": "nonpayable",
      "type": "function"
    },
    {
      "inputs": [],
      "name": "getPropertiesContract",
      "outputs": [
        {
          "internalType": "address",
          "name": "",
          "type": "address"
        }
      ],
      "stateMutability": "view",
      "type": "function",
      "constant": true
    }
  ],
  "bytecode": "0x60806040526000600160146101000a81548160ff0219169083151502179055503480156200002c57600080fd5b5060405162004b7538038062004b7583398181016040528101906200005291906200021b565b336000806101000a81548173ffffffffffffffffffffffffffffffffffffffff021916908373ffffffffffffffffffffffffffffffffffffffff1602179055506000600160006101000a81548173ffffffffffffffffffffffffffffffffffffffff021916908373ffffffffffffffffffffffffffffffffffffffff1602179055506000600160146101000a81548160ff021916908315150217905550604051620000fd90620001a3565b604051809103906000f0801580156200011a573d6000803e3d6000fd5b50600260006101000a81548173ffffffffffffffffffffffffffffffffffffffff021916908373ffffffffffffffffffffffffffffffffffffffff16021790555080600360006101000a81548173ffffffffffffffffffffffffffffffffffffffff021916908373ffffffffffffffffffffffffffffffffffffffff160217905550506200024d565b611fd68062002b9f83390190565b600080fd5b600073ffffffffffffffffffffffffffffffffffffffff82169050919050565b6000620001e382620001b6565b9050919050565b620001f581620001d6565b81146200020157600080fd5b50565b6000815190506200021581620001ea565b92915050565b600060208284031215620002345762000233620001b1565b5b6000620002448482850162000204565b91505092915050565b612942806200025d6000396000f3fe608060405234801561001057600080fd5b50600436106100ea5760003560e01c80634212a8ae1161008c578063a6262ba311610066578063a6262ba314610235578063b9fe2ff414610251578063ddef358d1461026f578063e90b6c721461029f576100ea565b80634212a8ae146101df578063677ff942146101fb578063777acf371461022b576100ea565b8063126dbe43116100c8578063126dbe4314610157578063142ebf3c1461018757806329507f73146101a55780633aeb6d76146101c1576100ea565b806301da8a48146100ef5780630ce89b461461011f5780630cf36e571461013b575b600080fd5b6101096004803603810190610104919061164d565b6102cf565b60405161011691906116c3565b60405180910390f35b61013960048036038101906101349190611824565b610470565b005b610155600480360381019061015091906118de565b6105b0565b005b610171600480360381019061016c919061190b565b610664565b60405161017e9190611b57565b60405180910390f35b61018f610714565b60405161019c9190611bd8565b60405180910390f35b6101bf60048036038101906101ba9190611bf3565b61073a565b005b6101c9610a73565b6040516101d69190611c54565b60405180910390f35b6101f960048036038101906101f4919061190b565b610a99565b005b610215600480360381019061021091906118de565b610bd6565b6040516102229190611e3c565b60405180910390f35b610233610dc6565b005b61024f600480360381019061024a9190611bf3565b610eab565b005b610259610fe4565b6040516102669190611e6d565b60405180910390f35b6102896004803603810190610284919061190b565b61100e565b6040516102969190611e3c565b60405180910390f35b6102b960048036038101906102b4919061190b565b6111d2565b6040516102c69190611e6d565b60405180910390f35b6000803390506000600260009054906101000a900473ffffffffffffffffffffffffffffffffffffffff1673ffffffffffffffffffffffffffffffffffffffff16630240258988888886896040518663ffffffff1660e01b815260040161033a959493929190611e88565b6020604051808303816000875af1158015610359573d6000803e3d6000fd5b505050506040513d601f19601f8201168201806040525081019061037d9190611ef0565b9050600460008373ffffffffffffffffffffffffffffffffffffffff1673ffffffffffffffffffffffffffffffffffffffff16815260200190815260200160002081908060018154018082558091505060019003906000526020600020016000909190919091505560056000878152602001908152602001600020819080600181540180825580915050600190039060005260206000200160009091909190915055808273ffffffffffffffffffffffffffffffffffffffff167f6273d4d594c3e9579a60a0212122fd582600ec6505e091f5863299f8c7c17e4f60405160405180910390a38092505050949350505050565b61047982611205565b6006600082815260200190815260200160002060009054906101000a900473ffffffffffffffffffffffffffffffffffffffff1673ffffffffffffffffffffffffffffffffffffffff163373ffffffffffffffffffffffffffffffffffffffff161461051a576040517f08c379a000000000000000000000000000000000000000000000000000000000815260040161051190611fa0565b60405180910390fd5b600260009054906101000a900473ffffffffffffffffffffffffffffffffffffffff1673ffffffffffffffffffffffffffffffffffffffff166397f15c028433856040518463ffffffff1660e01b815260040161057993929190611ff9565b600060405180830381600087803b15801561059357600080fd5b505af11580156105a7573d6000803e3d6000fd5b50505050505050565b60001515600160149054906101000a900460ff16151514610606576040517f08c379a00000000000000000000000000000000000000000000000000000000081526004016105fd90612083565b60405180910390fd5b80600160006101000a81548173ffffffffffffffffffffffffffffffffffffffff021916908373ffffffffffffffffffffffffffffffffffffffff16021790555060018060146101000a81548160ff02191690831515021790555050565b61066c611564565b600260009054906101000a900473ffffffffffffffffffffffffffffffffffffffff1673ffffffffffffffffffffffffffffffffffffffff1663fbb62fe7836040518263ffffffff1660e01b81526004016106c791906116c3565b600060405180830381865afa1580156106e4573d6000803e3d6000fd5b505050506040513d6000823e3d601f19601f8201168201806040525081019061070d91906122b1565b9050919050565b600360009054906101000a900473ffffffffffffffffffffffffffffffffffffffff1681565b600160009054906101000a900473ffffffffffffffffffffffffffffffffffffffff1673ffffffffffffffffffffffffffffffffffffffff163373ffffffffffffffffffffffffffffffffffffffff16146107ca576040517f08c379a00000000000000000000000000000000000000000000000000000000081526004016107c19061236c565b60405180910390fd5b6000600260009054906101000a900473ffffffffffffffffffffffffffffffffffffffff1673ffffffffffffffffffffffffffffffffffffffff1663fbb62fe7846040518263ffffffff1660e01b815260040161082791906116c3565b600060405180830381865afa158015610844573d6000803e3d6000fd5b505050506040513d6000823e3d601f19601f8201168201806040525081019061086d91906122b1565b6080015190506000600460008373ffffffffffffffffffffffffffffffffffffffff1673ffffffffffffffffffffffffffffffffffffffff168152602001908152602001600020905060005b818054905081101561097757848282815481106108d9576108d861238c565b5b9060005260206000200154036109645781600183805490506108fb91906123ea565b8154811061090c5761090b61238c565b5b906000526020600020015482828154811061092a5761092961238c565b5b9060005260206000200181905550818054806109495761094861241e565b5b60019003818190600052602060002001600090559055610977565b808061096f9061244d565b9150506108b9565b50600460008473ffffffffffffffffffffffffffffffffffffffff1673ffffffffffffffffffffffffffffffffffffffff168152602001908152602001600020849080600181540180825580915050600190039060005260206000200160009091909190915055600260009054906101000a900473ffffffffffffffffffffffffffffffffffffffff1673ffffffffffffffffffffffffffffffffffffffff16637192711f85856040518363ffffffff1660e01b8152600401610a3b929190612495565b600060405180830381600087803b158015610a5557600080fd5b505af1158015610a69573d6000803e3d6000fd5b5050505050505050565b600260009054906101000a900473ffffffffffffffffffffffffffffffffffffffff1681565b610aa281611205565b6006600082815260200190815260200160002060009054906101000a900473ffffffffffffffffffffffffffffffffffffffff1673ffffffffffffffffffffffffffffffffffffffff163373ffffffffffffffffffffffffffffffffffffffff1614610b43576040517f08c379a0000000000000000000000000000000000000000000000000000000008152600401610b3a90611fa0565b60405180910390fd5b600260009054906101000a900473ffffffffffffffffffffffffffffffffffffffff1673ffffffffffffffffffffffffffffffffffffffff1663f4eff9da83336040518363ffffffff1660e01b8152600401610ba0929190612495565b600060405180830381600087803b158015610bba57600080fd5b505af1158015610bce573d6000803e3d6000fd5b505050505050565b60606000600460008473ffffffffffffffffffffffffffffffffffffffff1673ffffffffffffffffffffffffffffffffffffffff168152602001908152602001600020805480602002602001604051908101604052809291908181526020018280548015610c6357602002820191906000526020600020905b815481526020019060010190808311610c4f575b505050505090506000815167ffffffffffffffff811115610c8757610c866116f9565b5b604051908082528060200260200182016040528015610cc057816020015b610cad611564565b815260200190600190039081610ca55790505b50905060005b8251811015610dbb57600260009054906101000a900473ffffffffffffffffffffffffffffffffffffffff1673ffffffffffffffffffffffffffffffffffffffff1663fbb62fe7848381518110610d2057610d1f61238c565b5b60200260200101516040518263ffffffff1660e01b8152600401610d4491906116c3565b600060405180830381865afa158015610d61573d6000803e3d6000fd5b505050506040513d6000823e3d601f19601f82011682018060405250810190610d8a91906122b1565b828281518110610d9d57610d9c61238c565b5b60200260200101819052508080610db39061244d565b915050610cc6565b508092505050919050565b60008054906101000a900473ffffffffffffffffffffffffffffffffffffffff1673ffffffffffffffffffffffffffffffffffffffff163373ffffffffffffffffffffffffffffffffffffffff1614610e1e336112b3565b610e4760008054906101000a900473ffffffffffffffffffffffffffffffffffffffff166112b3565b604051602001610e589291906125b8565b60405160208183030381529060405290610ea8576040517f08c379a0000000000000000000000000000000000000000000000000000000008152600401610e9f91906125f2565b60405180910390fd5b50565b60008054906101000a900473ffffffffffffffffffffffffffffffffffffffff1673ffffffffffffffffffffffffffffffffffffffff163373ffffffffffffffffffffffffffffffffffffffff1614610f03336112b3565b610f2c60008054906101000a900473ffffffffffffffffffffffffffffffffffffffff166112b3565b604051602001610f3d9291906125b8565b60405160208183030381529060405290610f8d576040517f08c379a0000000000000000000000000000000000000000000000000000000008152600401610f8491906125f2565b60405180910390fd5b50806006600084815260200190815260200160002060006101000a81548173ffffffffffffffffffffffffffffffffffffffff021916908373ffffffffffffffffffffffffffffffffffffffff1602179055505050565b6000600260009054906101000a900473ffffffffffffffffffffffffffffffffffffffff16905090565b606060006005600084815260200190815260200160002080548060200260200160405190810160405280929190818152602001828054801561106f57602002820191906000526020600020905b81548152602001906001019080831161105b575b505050505090506000815167ffffffffffffffff811115611093576110926116f9565b5b6040519080825280602002602001820160405280156110cc57816020015b6110b9611564565b8152602001906001900390816110b15790505b50905060005b82518110156111c757600260009054906101000a900473ffffffffffffffffffffffffffffffffffffffff1673ffffffffffffffffffffffffffffffffffffffff1663fbb62fe784838151811061112c5761112b61238c565b5b60200260200101516040518263ffffffff1660e01b815260040161115091906116c3565b600060405180830381865afa15801561116d573d6000803e3d6000fd5b505050506040513d6000823e3d601f19601f8201168201806040525081019061119691906122b1565b8282815181106111a9576111a861238c565b5b602002602001018190525080806111bf9061244d565b9150506110d2565b508092505050919050565b60066020528060005260406000206000915054906101000a900473ffffffffffffffffffffffffffffffffffffffff1681565b6000600260009054906101000a900473ffffffffffffffffffffffffffffffffffffffff1673ffffffffffffffffffffffffffffffffffffffff1663fbb62fe7836040518263ffffffff1660e01b815260040161126291906116c3565b600060405180830381865afa15801561127f573d6000803e3d6000fd5b505050506040513d6000823e3d601f19601f820116820180604052508101906112a891906122b1565b604001519050919050565b60606000602a67ffffffffffffffff8111156112d2576112d16116f9565b5b6040519080825280601f01601f1916602001820160405280156113045781602001600182028036833780820191505090505b5090507f30000000000000000000000000000000000000000000000000000000000000008160008151811061133c5761133b61238c565b5b60200101907effffffffffffffffffffffffffffffffffffffffffffffffffffffffffffff1916908160001a9053507f7800000000000000000000000000000000000000000000000000000000000000816001815181106113a05761139f61238c565b5b60200101907effffffffffffffffffffffffffffffffffffffffffffffffffffffffffffff1916908160001a90535060005b60148110156115205760008160136113ea91906123ea565b60086113f69190612614565b60026114029190612789565b8573ffffffffffffffffffffffffffffffffffffffff166114239190612803565b60f81b905061144060108260f81c61143b9190612841565b61152a565b8360028460026114509190612614565b61145a9190612872565b8151811061146b5761146a61238c565b5b60200101907effffffffffffffffffffffffffffffffffffffffffffffffffffffffffffff1916908160001a9053506114b260108260f81c6114ad91906128a6565b61152a565b8360038460026114c29190612614565b6114cc9190612872565b815181106114dd576114dc61238c565b5b60200101907effffffffffffffffffffffffffffffffffffffffffffffffffffffffffffff1916908160001a9053505080806115189061244d565b9150506113d2565b5080915050919050565b6000600a8260ff161061154c5760578261154491906128d7565b60f81b61155d565b60308261155991906128d7565b60f81b5b9050919050565b60405180610180016040528060008152602001600081526020016000815260200160008152602001600073ffffffffffffffffffffffffffffffffffffffff168152602001600081526020016000815260200160008152602001600073ffffffffffffffffffffffffffffffffffffffff1681526020016060815260200160608152602001600060058111156115fd576115fc6119d5565b5b81525090565b6000604051905090565b600080fd5b600080fd5b6000819050919050565b61162a81611617565b811461163557600080fd5b50565b60008135905061164781611621565b92915050565b600080600080608085870312156116675761166661160d565b5b600061167587828801611638565b945050602061168687828801611638565b935050604061169787828801611638565b92505060606116a887828801611638565b91505092959194509250565b6116bd81611617565b82525050565b60006020820190506116d860008301846116b4565b92915050565b600080fd5b600080fd5b6000601f19601f8301169050919050565b7f4e487b7100000000000000000000000000000000000000000000000000000000600052604160045260246000fd5b611731826116e8565b810181811067ffffffffffffffff821117156117505761174f6116f9565b5b80604052505050565b6000611763611603565b905061176f8282611728565b919050565b600067ffffffffffffffff82111561178f5761178e6116f9565b5b611798826116e8565b9050602081019050919050565b82818337600083830152505050565b60006117c76117c284611774565b611759565b9050828152602081018484840111156117e3576117e26116e3565b5b6117ee8482856117a5565b509392505050565b600082601f83011261180b5761180a6116de565b5b813561181b8482602086016117b4565b91505092915050565b6000806040838503121561183b5761183a61160d565b5b600061184985828601611638565b925050602083013567ffffffffffffffff81111561186a57611869611612565b5b611876858286016117f6565b9150509250929050565b600073ffffffffffffffffffffffffffffffffffffffff82169050919050565b60006118ab82611880565b9050919050565b6118bb816118a0565b81146118c657600080fd5b50565b6000813590506118d8816118b2565b92915050565b6000602082840312156118f4576118f361160d565b5b6000611902848285016118c9565b91505092915050565b6000602082840312156119215761192061160d565b5b600061192f84828501611638565b91505092915050565b61194181611617565b82525050565b611950816118a0565b82525050565b600081519050919050565b600082825260208201905092915050565b60005b83811015611990578082015181840152602081019050611975565b60008484015250505050565b60006119a782611956565b6119b18185611961565b93506119c1818560208601611972565b6119ca816116e8565b840191505092915050565b7f4e487b7100000000000000000000000000000000000000000000000000000000600052602160045260246000fd5b60068110611a1557611a146119d5565b5b50565b6000819050611a2682611a04565b919050565b6000611a3682611a18565b9050919050565b611a4681611a2b565b82525050565b600061018083016000830151611a656000860182611938565b506020830151611a786020860182611938565b506040830151611a8b6040860182611938565b506060830151611a9e6060860182611938565b506080830151611ab16080860182611947565b5060a0830151611ac460a0860182611938565b5060c0830151611ad760c0860182611938565b5060e0830151611aea60e0860182611938565b50610100830151611aff610100860182611947565b50610120830151848203610120860152611b19828261199c565b915050610140830151848203610140860152611b35828261199c565b915050610160830151611b4c610160860182611a3d565b508091505092915050565b60006020820190508181036000830152611b718184611a4c565b905092915050565b6000819050919050565b6000611b9e611b99611b9484611880565b611b79565b611880565b9050919050565b6000611bb082611b83565b9050919050565b6000611bc282611ba5565b9050919050565b611bd281611bb7565b82525050565b6000602082019050611bed6000830184611bc9565b92915050565b60008060408385031215611c0a57611c0961160d565b5b6000611c1885828601611638565b9250506020611c29858286016118c9565b9150509250929050565b6000611c3e82611ba5565b9050919050565b611c4e81611c33565b82525050565b6000602082019050611c696000830184611c45565b92915050565b600081519050919050565b600082825260208201905092915050565b6000819050602082019050919050565b600061018083016000830151611cb46000860182611938565b506020830151611cc76020860182611938565b506040830151611cda6040860182611938565b506060830151611ced6060860182611938565b506080830151611d006080860182611947565b5060a0830151611d1360a0860182611938565b5060c0830151611d2660c0860182611938565b5060e0830151611d3960e0860182611938565b50610100830151611d4e610100860182611947565b50610120830151848203610120860152611d68828261199c565b915050610140830151848203610140860152611d84828261199c565b915050610160830151611d9b610160860182611a3d565b508091505092915050565b6000611db28383611c9b565b905092915050565b6000602082019050919050565b6000611dd282611c6f565b611ddc8185611c7a565b935083602082028501611dee85611c8b565b8060005b85811015611e2a5784840389528151611e0b8582611da6565b9450611e1683611dba565b925060208a01995050600181019050611df2565b50829750879550505050505092915050565b60006020820190508181036000830152611e568184611dc7565b905092915050565b611e67816118a0565b82525050565b6000602082019050611e826000830184611e5e565b92915050565b600060a082019050611e9d60008301886116b4565b611eaa60208301876116b4565b611eb760408301866116b4565b611ec46060830185611e5e565b611ed160808301846116b4565b9695505050505050565b600081519050611eea81611621565b92915050565b600060208284031215611f0657611f0561160d565b5b6000611f1484828501611edb565b91505092915050565b600082825260208201905092915050565b7f4f6e6c792074686520726576656e7565206465706172746d656e7420656d706c60008201527f6f7965652063616e2063616c6c20746869732066756e6374696f6e2e00000000602082015250565b6000611f8a603c83611f1d565b9150611f9582611f2e565b604082019050919050565b60006020820190508181036000830152611fb981611f7d565b9050919050565b6000611fcb82611956565b611fd58185611f1d565b9350611fe5818560208601611972565b611fee816116e8565b840191505092915050565b600060608201905061200e60008301866116b4565b61201b6020830185611e5e565b818103604083015261202d8184611fc0565b9050949350505050565b7f416c6c6f776564204f6e6c79204f6e636520746f2063616c6c00000000000000600082015250565b600061206d601983611f1d565b915061207882612037565b602082019050919050565b6000602082019050818103600083015261209c81612060565b9050919050565b600080fd5b600080fd5b6000815190506120bc816118b2565b92915050565b60006120d56120d084611774565b611759565b9050828152602081018484840111156120f1576120f06116e3565b5b6120fc848285611972565b509392505050565b600082601f830112612119576121186116de565b5b81516121298482602086016120c2565b91505092915050565b6006811061213f57600080fd5b50565b60008151905061215181612132565b92915050565b6000610180828403121561216e5761216d6120a3565b5b612179610180611759565b9050600061218984828501611edb565b600083015250602061219d84828501611edb565b60208301525060406121b184828501611edb565b60408301525060606121c584828501611edb565b60608301525060806121d9848285016120ad565b60808301525060a06121ed84828501611edb565b60a08301525060c061220184828501611edb565b60c08301525060e061221584828501611edb565b60e08301525061010061222a848285016120ad565b6101008301525061012082015167ffffffffffffffff8111156122505761224f6120a8565b5b61225c84828501612104565b6101208301525061014082015167ffffffffffffffff811115612282576122816120a8565b5b61228e84828501612104565b610140830152506101606122a484828501612142565b6101608301525092915050565b6000602082840312156122c7576122c661160d565b5b600082015167ffffffffffffffff8111156122e5576122e4611612565b5b6122f184828501612157565b91505092915050565b7f4f6e6c79205472616e736665724f664f776e65725368697020436f6e7472616360008201527f7420416c6c6f7765640000000000000000000000000000000000000000000000602082015250565b6000612356602983611f1d565b9150612361826122fa565b604082019050919050565b6000602082019050818103600083015261238581612349565b9050919050565b7f4e487b7100000000000000000000000000000000000000000000000000000000600052603260045260246000fd5b7f4e487b7100000000000000000000000000000000000000000000000000000000600052601160045260246000fd5b60006123f582611617565b915061240083611617565b9250828203905081811115612418576124176123bb565b5b92915050565b7f4e487b7100000000000000000000000000000000000000000000000000000000600052603160045260246000fd5b600061245882611617565b91507fffffffffffffffffffffffffffffffffffffffffffffffffffffffffffffffff820361248a576124896123bb565b5b600182019050919050565b60006040820190506124aa60008301856116b4565b6124b76020830184611e5e565b9392505050565b600081905092915050565b7f43616c6c6572206973206e6f7420746865206f776e65722e2043616c6c65723a60008201527f2000000000000000000000000000000000000000000000000000000000000000602082015250565b60006125256021836124be565b9150612530826124c9565b602182019050919050565b600061254682611956565b61255081856124be565b9350612560818560208601611972565b80840191505092915050565b7f2c204f776e65723a200000000000000000000000000000000000000000000000600082015250565b60006125a26009836124be565b91506125ad8261256c565b600982019050919050565b60006125c382612518565b91506125cf828561253b565b91506125da82612595565b91506125e6828461253b565b91508190509392505050565b6000602082019050818103600083015261260c8184611fc0565b905092915050565b600061261f82611617565b915061262a83611617565b925082820261263881611617565b9150828204841483151761264f5761264e6123bb565b5b5092915050565b60008160011c9050919050565b6000808291508390505b60018511156126ad57808604811115612689576126886123bb565b5b60018516156126985780820291505b80810290506126a685612656565b945061266d565b94509492505050565b6000826126c65760019050612782565b816126d45760009050612782565b81600181146126ea57600281146126f457612723565b6001915050612782565b60ff841115612706576127056123bb565b5b8360020a91508482111561271d5761271c6123bb565b5b50612782565b5060208310610133831016604e8410600b84101617156127585782820a905083811115612753576127526123bb565b5b612782565b6127658484846001612663565b9250905081840481111561277c5761277b6123bb565b5b81810290505b9392505050565b600061279482611617565b915061279f83611617565b92506127cc7fffffffffffffffffffffffffffffffffffffffffffffffffffffffffffffffff84846126b6565b905092915050565b7f4e487b7100000000000000000000000000000000000000000000000000000000600052601260045260246000fd5b600061280e82611617565b915061281983611617565b925082612829576128286127d4565b5b828204905092915050565b600060ff82169050919050565b600061284c82612834565b915061285783612834565b925082612867576128666127d4565b5b828204905092915050565b600061287d82611617565b915061288883611617565b92508282019050808211156128a05761289f6123bb565b5b92915050565b60006128b182612834565b91506128bc83612834565b9250826128cc576128cb6127d4565b5b828206905092915050565b60006128e282612834565b91506128ed83612834565b9250828201905060ff811115612906576129056123bb565b5b9291505056fea2646970667358221220527f84b58520ba3ccb2087aadf9ebde15f90353046ebfc13b5b2e6fa7a86bc2a64736f6c63430008120033608060405234801561001057600080fd5b50611fb6806100206000396000f3fe608060405234801561001057600080fd5b506004361061009e5760003560e01c806397f15c021161006657806397f15c02146101435780639bcff9ba1461015f578063e261f1e51461017b578063f4eff9da146101b6578063fbb62fe7146101d25761009e565b806302402589146100a357806313fe24f7146100d35780637192711f146100ef57806377d90c661461010b5780637b5484a814610127575b600080fd5b6100bd60048036038101906100b8919061134d565b610202565b6040516100ca91906113d7565b60405180910390f35b6100ed60048036038101906100e8919061155d565b610428565b005b61010960048036038101906101049190611674565b61061f565b005b610125600480360381019061012091906116b4565b61070d565b005b610141600480360381019061013c9190611674565b610837565b005b61015d600480360381019061015891906116e1565b610974565b005b61017960048036038101906101749190611674565b610a86565b005b610195600480360381019061019091906116b4565b610bc3565b6040516101ad9c9b9a99989796959493929190611855565b60405180910390f35b6101d060048036038101906101cb9190611674565b610d80565b005b6101ec60048036038101906101e791906116b4565b610e6e565b6040516101f99190611a9f565b60405180910390f35b60006001600081548092919061021790611af0565b919050555060405180610180016040528060015481526020018781526020018681526020018581526020018473ffffffffffffffffffffffffffffffffffffffff16815260200183815260200160008152602001428152602001600073ffffffffffffffffffffffffffffffffffffffff168152602001604051806020016040528060008152508152602001604051806020016040528060008152508152602001600060058111156102cc576102cb6117de565b5b81525060008060015481526020019081526020016000206000820151816000015560208201518160010155604082015181600201556060820151816003015560808201518160040160006101000a81548173ffffffffffffffffffffffffffffffffffffffff021916908373ffffffffffffffffffffffffffffffffffffffff16021790555060a0820151816005015560c0820151816006015560e082015181600701556101008201518160080160006101000a81548173ffffffffffffffffffffffffffffffffffffffff021916908373ffffffffffffffffffffffffffffffffffffffff1602179055506101208201518160090190816103ce9190611d44565b5061014082015181600a0190816103e59190611d44565b5061016082015181600b0160006101000a81548160ff02191690836005811115610412576104116117de565b5b0217905550905050600154905095945050505050565b60008060008c81526020019081526020016000206000015403610480576040517f08c379a000000000000000000000000000000000000000000000000000000000815260040161047790611e62565b60405180910390fd5b886000808c815260200190815260200160002060010181905550876000808c815260200190815260200160002060020181905550866000808c815260200190815260200160002060030181905550856000808c815260200190815260200160002060040160006101000a81548173ffffffffffffffffffffffffffffffffffffffff021916908373ffffffffffffffffffffffffffffffffffffffff160217905550846000808c815260200190815260200160002060050181905550836000808c815260200190815260200160002060080160006101000a81548173ffffffffffffffffffffffffffffffffffffffff021916908373ffffffffffffffffffffffffffffffffffffffff160217905550826000808c815260200190815260200160002060090190816105b29190611d44565b50816000808c8152602001908152602001600020600a0190816105d59190611d44565b50806000808c8152602001908152602001600020600b0160006101000a81548160ff0219169083600581111561060e5761060d6117de565b5b021790555050505050505050505050565b60008060008481526020019081526020016000206000015403610677576040517f08c379a000000000000000000000000000000000000000000000000000000000815260040161066e90611e62565b60405180910390fd5b8060008084815260200190815260200160002060040160006101000a81548173ffffffffffffffffffffffffffffffffffffffff021916908373ffffffffffffffffffffffffffffffffffffffff1602179055506005600080848152602001908152602001600020600b0160006101000a81548160ff02191690836005811115610704576107036117de565b5b02179055505050565b60008060008381526020019081526020016000206000015403610765576040517f08c379a000000000000000000000000000000000000000000000000000000000815260040161075c90611e62565b60405180910390fd5b6000808281526020019081526020016000206000808201600090556001820160009055600282016000905560038201600090556004820160006101000a81549073ffffffffffffffffffffffffffffffffffffffff02191690556005820160009055600682016000905560078201600090556008820160006101000a81549073ffffffffffffffffffffffffffffffffffffffff021916905560098201600061080e91906111a9565b600a8201600061081e91906111a9565b600b820160006101000a81549060ff0219169055505050565b6000806000848152602001908152602001600020600001540361088f576040517f08c379a000000000000000000000000000000000000000000000000000000000815260040161088690611e62565b60405180910390fd5b8073ffffffffffffffffffffffffffffffffffffffff1660008084815260200190815260200160002060040160009054906101000a900473ffffffffffffffffffffffffffffffffffffffff1673ffffffffffffffffffffffffffffffffffffffff1614610932576040517f08c379a000000000000000000000000000000000000000000000000000000000815260040161092990611ece565b60405180910390fd5b6002600080848152602001908152602001600020600b0160006101000a81548160ff0219169083600581111561096b5761096a6117de565b5b02179055505050565b600080600085815260200190815260200160002060000154036109cc576040517f08c379a00000000000000000000000000000000000000000000000000000000081526004016109c390611e62565b60405180910390fd5b8160008085815260200190815260200160002060080160006101000a81548173ffffffffffffffffffffffffffffffffffffffff021916908373ffffffffffffffffffffffffffffffffffffffff1602179055506003600080858152602001908152602001600020600b0160006101000a81548160ff02191690836005811115610a5957610a586117de565b5b021790555080600080858152602001908152602001600020600a019081610a809190611d44565b50505050565b60008060008481526020019081526020016000206000015403610ade576040517f08c379a0000000000000000000000000000000000000000000000000000000008152600401610ad590611e62565b60405180910390fd5b8073ffffffffffffffffffffffffffffffffffffffff1660008084815260200190815260200160002060040160009054906101000a900473ffffffffffffffffffffffffffffffffffffffff1673ffffffffffffffffffffffffffffffffffffffff1614610b81576040517f08c379a0000000000000000000000000000000000000000000000000000000008152600401610b7890611f60565b60405180910390fd5b6004600080848152602001908152602001600020600b0160006101000a81548160ff02191690836005811115610bba57610bb96117de565b5b02179055505050565b60006020528060005260406000206000915090508060000154908060010154908060020154908060030154908060040160009054906101000a900473ffffffffffffffffffffffffffffffffffffffff16908060050154908060060154908060070154908060080160009054906101000a900473ffffffffffffffffffffffffffffffffffffffff1690806009018054610c5c90611b67565b80601f0160208091040260200160405190810160405280929190818152602001828054610c8890611b67565b8015610cd55780601f10610caa57610100808354040283529160200191610cd5565b820191906000526020600020905b815481529060010190602001808311610cb857829003601f168201915b50505050509080600a018054610cea90611b67565b80601f0160208091040260200160405190810160405280929190818152602001828054610d1690611b67565b8015610d635780601f10610d3857610100808354040283529160200191610d63565b820191906000526020600020905b815481529060010190602001808311610d4657829003601f168201915b50505050509080600b0160009054906101000a900460ff1690508c565b60008060008481526020019081526020016000206000015403610dd8576040517f08c379a0000000000000000000000000000000000000000000000000000000008152600401610dcf90611e62565b60405180910390fd5b8060008084815260200190815260200160002060080160006101000a81548173ffffffffffffffffffffffffffffffffffffffff021916908373ffffffffffffffffffffffffffffffffffffffff1602179055506002600080848152602001908152602001600020600b0160006101000a81548160ff02191690836005811115610e6557610e646117de565b5b02179055505050565b610e766111e9565b60008060008481526020019081526020016000206000015403610ece576040517f08c379a0000000000000000000000000000000000000000000000000000000008152600401610ec590611e62565b60405180910390fd5b60405180610180016040528083815260200160008085815260200190815260200160002060010154815260200160008085815260200190815260200160002060020154815260200160008085815260200190815260200160002060030154815260200160008085815260200190815260200160002060040160009054906101000a900473ffffffffffffffffffffffffffffffffffffffff1673ffffffffffffffffffffffffffffffffffffffff16815260200160008085815260200190815260200160002060050154815260200160008085815260200190815260200160002060060154815260200160008085815260200190815260200160002060070154815260200160008085815260200190815260200160002060080160009054906101000a900473ffffffffffffffffffffffffffffffffffffffff1673ffffffffffffffffffffffffffffffffffffffff168152602001600080858152602001908152602001600020600901805461104490611b67565b80601f016020809104026020016040519081016040528092919081815260200182805461107090611b67565b80156110bd5780601f10611092576101008083540402835291602001916110bd565b820191906000526020600020905b8154815290600101906020018083116110a057829003601f168201915b50505050508152602001600080858152602001908152602001600020600a0180546110e790611b67565b80601f016020809104026020016040519081016040528092919081815260200182805461111390611b67565b80156111605780601f1061113557610100808354040283529160200191611160565b820191906000526020600020905b81548152906001019060200180831161114357829003601f168201915b50505050508152602001600080858152602001908152602001600020600b0160009054906101000a900460ff16600581111561119f5761119e6117de565b5b8152509050919050565b5080546111b590611b67565b6000825580601f106111c757506111e6565b601f0160209004906000526020600020908101906111e59190611288565b5b50565b60405180610180016040528060008152602001600081526020016000815260200160008152602001600073ffffffffffffffffffffffffffffffffffffffff168152602001600081526020016000815260200160008152602001600073ffffffffffffffffffffffffffffffffffffffff168152602001606081526020016060815260200160006005811115611282576112816117de565b5b81525090565b5b808211156112a1576000816000905550600101611289565b5090565b6000604051905090565b600080fd5b600080fd5b6000819050919050565b6112cc816112b9565b81146112d757600080fd5b50565b6000813590506112e9816112c3565b92915050565b600073ffffffffffffffffffffffffffffffffffffffff82169050919050565b600061131a826112ef565b9050919050565b61132a8161130f565b811461133557600080fd5b50565b60008135905061134781611321565b92915050565b600080600080600060a08688031215611369576113686112af565b5b6000611377888289016112da565b9550506020611388888289016112da565b9450506040611399888289016112da565b93505060606113aa88828901611338565b92505060806113bb888289016112da565b9150509295509295909350565b6113d1816112b9565b82525050565b60006020820190506113ec60008301846113c8565b92915050565b600080fd5b600080fd5b6000601f19601f8301169050919050565b7f4e487b7100000000000000000000000000000000000000000000000000000000600052604160045260246000fd5b611445826113fc565b810181811067ffffffffffffffff821117156114645761146361140d565b5b80604052505050565b60006114776112a5565b9050611483828261143c565b919050565b600067ffffffffffffffff8211156114a3576114a261140d565b5b6114ac826113fc565b9050602081019050919050565b82818337600083830152505050565b60006114db6114d684611488565b61146d565b9050828152602081018484840111156114f7576114f66113f7565b5b6115028482856114b9565b509392505050565b600082601f83011261151f5761151e6113f2565b5b813561152f8482602086016114c8565b91505092915050565b6006811061154557600080fd5b50565b60008135905061155781611538565b92915050565b6000806000806000806000806000806101408b8d031215611581576115806112af565b5b600061158f8d828e016112da565b9a505060206115a08d828e016112da565b99505060406115b18d828e016112da565b98505060606115c28d828e016112da565b97505060806115d38d828e01611338565b96505060a06115e48d828e016112da565b95505060c06115f58d828e01611338565b94505060e08b013567ffffffffffffffff811115611616576116156112b4565b5b6116228d828e0161150a565b9350506101008b013567ffffffffffffffff811115611644576116436112b4565b5b6116508d828e0161150a565b9250506101206116628d828e01611548565b9150509295989b9194979a5092959850565b6000806040838503121561168b5761168a6112af565b5b6000611699858286016112da565b92505060206116aa85828601611338565b9150509250929050565b6000602082840312156116ca576116c96112af565b5b60006116d8848285016112da565b91505092915050565b6000806000606084860312156116fa576116f96112af565b5b6000611708868287016112da565b935050602061171986828701611338565b925050604084013567ffffffffffffffff81111561173a576117396112b4565b5b6117468682870161150a565b9150509250925092565b6117598161130f565b82525050565b600081519050919050565b600082825260208201905092915050565b60005b8381101561179957808201518184015260208101905061177e565b60008484015250505050565b60006117b08261175f565b6117ba818561176a565b93506117ca81856020860161177b565b6117d3816113fc565b840191505092915050565b7f4e487b7100000000000000000000000000000000000000000000000000000000600052602160045260246000fd5b6006811061181e5761181d6117de565b5b50565b600081905061182f8261180d565b919050565b600061183f82611821565b9050919050565b61184f81611834565b82525050565b60006101808201905061186b600083018f6113c8565b611878602083018e6113c8565b611885604083018d6113c8565b611892606083018c6113c8565b61189f608083018b611750565b6118ac60a083018a6113c8565b6118b960c08301896113c8565b6118c660e08301886113c8565b6118d4610100830187611750565b8181036101208301526118e781866117a5565b90508181036101408301526118fc81856117a5565b905061190c610160830184611846565b9d9c50505050505050505050505050565b611926816112b9565b82525050565b6119358161130f565b82525050565b600082825260208201905092915050565b60006119578261175f565b611961818561193b565b935061197181856020860161177b565b61197a816113fc565b840191505092915050565b61198e81611834565b82525050565b6000610180830160008301516119ad600086018261191d565b5060208301516119c0602086018261191d565b5060408301516119d3604086018261191d565b5060608301516119e6606086018261191d565b5060808301516119f9608086018261192c565b5060a0830151611a0c60a086018261191d565b5060c0830151611a1f60c086018261191d565b5060e0830151611a3260e086018261191d565b50610100830151611a4761010086018261192c565b50610120830151848203610120860152611a61828261194c565b915050610140830151848203610140860152611a7d828261194c565b915050610160830151611a94610160860182611985565b508091505092915050565b60006020820190508181036000830152611ab98184611994565b905092915050565b7f4e487b7100000000000000000000000000000000000000000000000000000000600052601160045260246000fd5b6000611afb826112b9565b91507fffffffffffffffffffffffffffffffffffffffffffffffffffffffffffffffff8203611b2d57611b2c611ac1565b5b600182019050919050565b7f4e487b7100000000000000000000000000000000000000000000000000000000600052602260045260246000fd5b60006002820490506001821680611b7f57607f821691505b602082108103611b9257611b91611b38565b5b50919050565b60008190508160005260206000209050919050565b60006020601f8301049050919050565b600082821b905092915050565b600060088302611bfa7fffffffffffffffffffffffffffffffffffffffffffffffffffffffffffffffff82611bbd565b611c048683611bbd565b95508019841693508086168417925050509392505050565b6000819050919050565b6000611c41611c3c611c37846112b9565b611c1c565b6112b9565b9050919050565b6000819050919050565b611c5b83611c26565b611c6f611c6782611c48565b848454611bca565b825550505050565b600090565b611c84611c77565b611c8f818484611c52565b505050565b5b81811015611cb357611ca8600082611c7c565b600181019050611c95565b5050565b601f821115611cf857611cc981611b98565b611cd284611bad565b81016020851015611ce1578190505b611cf5611ced85611bad565b830182611c94565b50505b505050565b600082821c905092915050565b6000611d1b60001984600802611cfd565b1980831691505092915050565b6000611d348383611d0a565b9150826002028217905092915050565b611d4d8261175f565b67ffffffffffffffff811115611d6657611d6561140d565b5b611d708254611b67565b611d7b828285611cb7565b600060209050601f831160018114611dae5760008415611d9c578287015190505b611da68582611d28565b865550611e0e565b601f198416611dbc86611b98565b60005b82811015611de457848901518255600182019150602085019450602081019050611dbf565b86831015611e015784890151611dfd601f891682611d0a565b8355505b6001600288020188555050505b505050505050565b7f4c616e6420646f6573206e6f7420657869737400000000000000000000000000600082015250565b6000611e4c60138361176a565b9150611e5782611e16565b602082019050919050565b60006020820190508181036000830152611e7b81611e3f565b9050919050565b7f6f6e6c79206f776e65722068697320616c6c6f77656400000000000000000000600082015250565b6000611eb860168361176a565b9150611ec382611e82565b602082019050919050565b60006020820190508181036000830152611ee781611eab565b9050919050565b7f6f6e6c79206f776e65722063616e206d616b6520617661696c61626c6520746f60008201527f2073656c6c000000000000000000000000000000000000000000000000000000602082015250565b6000611f4a60258361176a565b9150611f5582611eee565b604082019050919050565b60006020820190508181036000830152611f7981611f3d565b905091905056fea26469706673582212207ddaec60f19884756b4d34c9738c66988accc10b870c12712b6032fc525d1fac64736f6c63430008120033",
  "immutableReferences": {},
  "source": "// SPDX-License-Identifier: MIT\r\npragma solidity >=0.4.22 <0.9.0;\r\n\r\n\r\nimport \"./Properties.sol\";\r\nimport \"./Users.sol\";  // Add this import\r\n\r\ncontract LandRegistry {\r\n    address private contractOwner;\r\n    address private transferOwnershipContractAddress;\r\n    bool private transferOwnershipContractAddressUpdated = false;\r\n\r\n    Property public propertiesContract;\r\n    Users public usersContract;  // Add this declaration\r\n    \r\n    constructor(address _usersContractAddress) {  // Update constructor\r\n        contractOwner = msg.sender;\r\n        transferOwnershipContractAddress = address(0);\r\n        transferOwnershipContractAddressUpdated = false;\r\n        propertiesContract = new Property();\r\n        usersContract = Users(_usersContractAddress);  // Initialize usersContract\r\n    }\r\n\r\n    // modifiers \r\n\r\n   \r\n\r\n\r\n\r\n\r\n    modifier onlyRevenueDeptEmployee(uint256 revenueDeptId) {\r\n        require(msg.sender == revenueDeptIdToEmployee[revenueDeptId], \"Only the revenue department employee can call this function.\");\r\n        _;\r\n    }\r\n\r\n    // events\r\n    event LandAdded(address indexed owner,uint256 indexed propertyId);\r\n\r\n\r\n\r\n    // mapping owner and thier properties\r\n    mapping(address => uint256[]) private propertiesOfOwner;\r\n\r\n    // mapping revenue Department and properties under control of them \r\n    // for verification procedures\r\n    mapping(uint256 => uint256[]) private propertiesControlledByRevenueDept;\r\n\r\n\r\n    \r\n    // mapping of revenue department id to employee address\r\n    mapping (uint256 => address) public revenueDeptIdToEmployee;\r\n\r\n    modifier onlyOwner() {\r\n        require(\r\n            msg.sender == contractOwner, \r\n            string(\r\n                abi.encodePacked(\r\n                    \"Caller is not the owner. Caller: \", \r\n                    toAsciiString(msg.sender),\r\n                    \", Owner: \", \r\n                    toAsciiString(contractOwner)\r\n                )\r\n            )\r\n        );\r\n        _;\r\n    }\r\n\r\n    function toAsciiString(address x) internal pure returns (string memory) {\r\n        bytes memory s = new bytes(42);\r\n        s[0] = \"0\";\r\n        s[1] = \"x\";\r\n        for (uint i = 0; i < 20; i++) {\r\n            bytes1 b = bytes1(uint8(uint(uint160(x)) / (2**(8*(19 - i)))));\r\n            s[2*i+2] = char(uint8(b) / 16);\r\n            s[2*i+3] = char(uint8(b) % 16);\r\n        }\r\n        return string(s);\r\n    }\r\n\r\n    function char(uint8 b) internal pure returns (bytes1) {\r\n        return b < 10 ? bytes1(b + 48) : bytes1(b + 87);\r\n    }\r\n\r\n    function restrictedFunction() public onlyOwner {\r\n        // Function logic here\r\n    }\r\n\r\n    function setTransferOwnershipContractAddress(\r\n        address contractAddress\r\n        ) public {\r\n            \r\n            // This function can be called only once \r\n            require(transferOwnershipContractAddressUpdated==false,\"Allowed Only Once to call\");\r\n            \r\n            // setting contract address\r\n            transferOwnershipContractAddress = contractAddress;\r\n\r\n            // Make transferOwnership contrat updated as True \r\n            // So,that no body calls it again\r\n            transferOwnershipContractAddressUpdated = true;\r\n    }\r\n\r\n\r\n\r\n\r\n    // add Land and maps to owner\r\n    function addLand(\r\n        uint256 _locationId,\r\n        uint256 _revenueDepartmentId,\r\n        uint256 _surveyNumber,\r\n        uint256 _area\r\n        ) public returns (uint256) {\r\n        \r\n        // check already land present or not \r\n        // with revernue dept id, location id, survey number\r\n\r\n        address _owner = msg.sender;\r\n        uint256 propertyId = propertiesContract.addLand(\r\n                                                        _locationId,\r\n                                                        _revenueDepartmentId,\r\n                                                        _surveyNumber,\r\n                                                        _owner,\r\n                                                        _area\r\n                                                    );\r\n\r\n\r\n        // adding property id to owner list\r\n        propertiesOfOwner[_owner].push(propertyId);\r\n\r\n        // adding property id to revenue department\r\n        propertiesControlledByRevenueDept[_revenueDepartmentId].push(propertyId);\r\n\r\n\r\n        emit LandAdded(_owner,propertyId);\r\n        \r\n        return propertyId;\r\n    }\r\n\r\n\r\n    function getPropertyDetails(\r\n        uint256 _propertyId\r\n        ) public view returns (Property.Land memory){\r\n\r\n        return propertiesContract.getLandDetailsAsStruct(_propertyId);\r\n    }\r\n\r\n    \r\n\r\n\r\n\r\n    // returns the property details of a owner\r\n    function getPropertiesOfOwner(\r\n        address _owner\r\n        ) public view returns (\r\n        Property.Land[] memory\r\n        ) {\r\n            uint256[] memory propertyIds = propertiesOfOwner[_owner];\r\n            Property.Land[] memory properties = new Property.Land[](propertyIds.length);\r\n            \r\n            for (uint256 i = 0; i < propertyIds.length; i++) {\r\n            //   properties[i] = propertiesContract.lands(propertyIds[i]);\r\n                properties[i] = propertiesContract.getLandDetailsAsStruct(propertyIds[i]);\r\n            }\r\n               \r\n                \r\n            return properties;\r\n    }\r\n\r\n\r\n    \r\n    // return the property details based on revenue Dept\r\n    function getPropertiesByRevenueDeptId(\r\n        uint256 _revenueDeptId\r\n        ) public view returns (\r\n        Property.Land[] memory\r\n        ) {\r\n            uint256[] memory propertyIds = propertiesControlledByRevenueDept[_revenueDeptId];\r\n            \r\n            Property.Land[] memory properties = new Property.Land[](propertyIds.length);\r\n            \r\n            for (uint256 i = 0; i < propertyIds.length; i++) {\r\n            //   properties[i] = propertiesContract.lands(propertyIds[i]);\r\n                properties[i] = propertiesContract.getLandDetailsAsStruct(propertyIds[i]);\r\n            }\r\n               \r\n                \r\n            return properties;\r\n    }\r\n            \r\n\r\n    // map to revenue department id to employee address\r\n    function mapRevenueDeptIdToEmployee(\r\n        uint256 revenueDeptId, \r\n        address employeeAddress\r\n        ) public onlyOwner {\r\n        \r\n        revenueDeptIdToEmployee[revenueDeptId] = employeeAddress;\r\n    }\r\n\r\n\r\n    function getRevenueDeptId(uint256 propertyId) private view returns (uint256) {\r\n        return propertiesContract.getLandDetailsAsStruct(propertyId).revenueDepartmentId;\r\n    }\r\n\r\n    function verifyProperty(\r\n        uint256 _propertyId\r\n        ) public onlyRevenueDeptEmployee(getRevenueDeptId(_propertyId)) {\r\n        \r\n        propertiesContract.changeStateToVerifed(_propertyId, msg.sender);\r\n\r\n    }\r\n\r\n    function rejectProperty(\r\n        uint256 _propertyId,\r\n        string memory _reason\r\n        ) public onlyRevenueDeptEmployee(getRevenueDeptId(_propertyId)) {\r\n        \r\n            propertiesContract.changeStateToRejected(_propertyId, msg.sender,_reason);\r\n\r\n    }\r\n\r\n\r\n\r\n\r\n    function transferOwnership(uint256 _propertyId, address newOwner) public {\r\n        \r\n        require(msg.sender==transferOwnershipContractAddress,\"Only TransferOfOwnerShip Contract Allowed\");\r\n        \r\n        // Remove property from old owner's list\r\n        address oldOwner  = propertiesContract.getLandDetailsAsStruct(_propertyId).owner;\r\n\r\n        uint256[] storage propertiesOfOldOwner = propertiesOfOwner[oldOwner];\r\n        for (uint i = 0; i < propertiesOfOldOwner.length; i++) {\r\n            if (propertiesOfOldOwner[i] == _propertyId) {\r\n                propertiesOfOldOwner[i] = propertiesOfOldOwner[propertiesOfOldOwner.length - 1];\r\n                propertiesOfOldOwner.pop();\r\n                break;\r\n            }\r\n        }\r\n\r\n        // Add Property to new owner's list\r\n        propertiesOfOwner[newOwner].push(_propertyId);\r\n\r\n        propertiesContract.updateOwner(_propertyId, newOwner);\r\n\r\n        \r\n\r\n    }\r\n\r\n    function getPropertiesContract() public view returns (address){\r\n        return address(propertiesContract);\r\n    }\r\n   \r\n}\r\n\r\n",
  "sourcePath": "/mnt/c/Users/Dantez Mwaxh/Land-Registraion-System-with-Blockchain/Smart_contracts/contracts/LandRegistry.sol",
  "compiler": {
    "name": "solc",
    "version": "0.8.18+commit.87f61d96.Emscripten.clang"
  },
  "schemaVersion": "3.4.16",
  "updatedAt": "2025-04-09T23:13:51.542Z",
  "networkType": "ethereum",
  "devdoc": {
    "kind": "dev",
    "methods": {},
    "version": 1
  },
  "userdoc": {
    "kind": "user",
    "methods": {},
    "version": 1
  }
}