{
  "contractName": "Property",
  "abi": [
    {
      "anonymous": false,
      "inputs": [
        {
          "indexed": false,
          "internalType": "uint256",
          "name": "propertyId",
          "type": "uint256"
        }
      ],
      "name": "LandCreated",
      "type": "event"
    },
    {
      "anonymous": false,
      "inputs": [
        {
          "indexed": false,
          "internalType": "uint256",
          "name": "propertyId",
          "type": "uint256"
        }
      ],
      "name": "LandRemoved",
      "type": "event"
    },
    {
      "anonymous": false,
      "inputs": [
        {
          "indexed": false,
          "internalType": "uint256",
          "name": "propertyId",
          "type": "uint256"
        },
        {
          "indexed": false,
          "internalType": "enum Property.StateOfProperty",
          "name": "state",
          "type": "uint8"
        }
      ],
      "name": "LandStateChanged",
      "type": "event"
    },
    {
      "anonymous": false,
      "inputs": [
        {
          "indexed": false,
          "internalType": "uint256",
          "name": "propertyId",
          "type": "uint256"
        }
      ],
      "name": "LandUpdated",
      "type": "event"
    },
    {
      "inputs": [
        {
          "internalType": "uint256",
          "name": "",
          "type": "uint256"
        }
      ],
      "name": "lands",
      "outputs": [
        {
          "internalType": "uint256",
          "name": "propertyId",
          "type": "uint256"
        },
        {
          "internalType": "uint256",
          "name": "locationId",
          "type": "uint256"
        },
        {
          "internalType": "uint256",
          "name": "revenueDepartmentId",
          "type": "uint256"
        },
        {
          "internalType": "uint256",
          "name": "surveyNumber",
          "type": "uint256"
        },
        {
          "internalType": "address",
          "name": "owner",
          "type": "address"
        },
        {
          "internalType": "uint256",
          "name": "addressNo",
          "type": "uint256"
        },
        {
          "internalType": "uint256",
          "name": "postalCode",
          "type": "uint256"
        },
        {
          "internalType": "uint256",
          "name": "registeredTime",
          "type": "uint256"
        },
        {
          "internalType": "address",
          "name": "employeeId",
          "type": "address"
        },
        {
          "internalType": "string",
          "name": "scheduledDate",
          "type": "string"
        },
        {
          "internalType": "string",
          "name": "rejectedReason",
          "type": "string"
        },
        {
          "internalType": "enum Property.StateOfProperty",
          "name": "state",
          "type": "uint8"
        }
      ],
      "stateMutability": "view",
      "type": "function",
      "constant": true
    },
    {
      "inputs": [
        {
          "internalType": "uint256",
          "name": "_locationId",
          "type": "uint256"
        },
        {
          "internalType": "uint256",
          "name": "_revenueDepartmentId",
          "type": "uint256"
        },
        {
          "internalType": "uint256",
          "name": "_surveyNumber",
          "type": "uint256"
        },
        {
          "internalType": "address",
          "name": "_owner",
          "type": "address"
        },
        {
          "internalType": "uint256",
          "name": "_addressNo",
          "type": "uint256"
        }
      ],
      "name": "addLand",
      "outputs": [
        {
          "internalType": "uint256",
          "name": "",
          "type": "uint256"
        }
      ],
      "stateMutability": "nonpayable",
      "type": "function"
    },
    {
      "inputs": [
        {
          "internalType": "uint256",
          "name": "_propertyId",
          "type": "uint256"
        }
      ],
      "name": "getLandDetailsAsStruct",
      "outputs": [
        {
          "components": [
            {
              "internalType": "uint256",
              "name": "propertyId",
              "type": "uint256"
            },
            {
              "internalType": "uint256",
              "name": "locationId",
              "type": "uint256"
            },
            {
              "internalType": "uint256",
              "name": "revenueDepartmentId",
              "type": "uint256"
            },
            {
              "internalType": "uint256",
              "name": "surveyNumber",
              "type": "uint256"
            },
            {
              "internalType": "address",
              "name": "owner",
              "type": "address"
            },
            {
              "internalType": "uint256",
              "name": "addressNo",
              "type": "uint256"
            },
            {
              "internalType": "uint256",
              "name": "postalCode",
              "type": "uint256"
            },
            {
              "internalType": "uint256",
              "name": "registeredTime",
              "type": "uint256"
            },
            {
              "internalType": "address",
              "name": "employeeId",
              "type": "address"
            },
            {
              "internalType": "string",
              "name": "scheduledDate",
              "type": "string"
            },
            {
              "internalType": "string",
              "name": "rejectedReason",
              "type": "string"
            },
            {
              "internalType": "enum Property.StateOfProperty",
              "name": "state",
              "type": "uint8"
            }
          ],
          "internalType": "struct Property.Land",
          "name": "",
          "type": "tuple"
        }
      ],
      "stateMutability": "view",
      "type": "function",
      "constant": true
    },
    {
      "inputs": [
        {
          "internalType": "uint256",
          "name": "_propertyId",
          "type": "uint256"
        },
        {
          "internalType": "address",
          "name": "_employeeId",
          "type": "address"
        }
      ],
      "name": "changeStateToVerified",
      "outputs": [],
      "stateMutability": "nonpayable",
      "type": "function"
    },
    {
      "inputs": [
        {
          "internalType": "uint256",
          "name": "_propertyId",
          "type": "uint256"
        },
        {
          "internalType": "uint256",
          "name": "_surveyNumber",
          "type": "uint256"
        },
        {
          "internalType": "uint256",
          "name": "_addressNo",
          "type": "uint256"
        },
        {
          "internalType": "uint256",
          "name": "_postalCode",
          "type": "uint256"
        }
      ],
      "name": "editLand",
      "outputs": [],
      "stateMutability": "nonpayable",
      "type": "function"
    },
    {
      "inputs": [
        {
          "internalType": "uint256",
          "name": "_propertyId",
          "type": "uint256"
        }
      ],
      "name": "removeLand",
      "outputs": [],
      "stateMutability": "nonpayable",
      "type": "function"
    },
    {
      "inputs": [
        {
          "internalType": "uint256",
          "name": "_propertyId",
          "type": "uint256"
        },
        {
          "internalType": "address",
          "name": "_employeeId",
          "type": "address"
        },
        {
          "internalType": "string",
          "name": "_reason",
          "type": "string"
        }
      ],
      "name": "changeStateToRejected",
      "outputs": [],
      "stateMutability": "nonpayable",
      "type": "function"
    },
    {
      "inputs": [
        {
          "internalType": "uint256",
          "name": "_propertyId",
          "type": "uint256"
        },
        {
          "internalType": "address",
          "name": "_owner",
          "type": "address"
        }
      ],
      "name": "changeStateToOnSale",
      "outputs": [],
      "stateMutability": "nonpayable",
      "type": "function"
    },
    {
      "inputs": [
        {
          "internalType": "uint256",
          "name": "_propertyId",
          "type": "uint256"
        },
        {
          "internalType": "address",
          "name": "_owner",
          "type": "address"
        }
      ],
      "name": "changeStateBackToVerified",
      "outputs": [],
      "stateMutability": "nonpayable",
      "type": "function"
    },
    {
      "inputs": [
        {
          "internalType": "uint256",
          "name": "_propertyId",
          "type": "uint256"
        },
        {
          "internalType": "address",
          "name": "newOwner",
          "type": "address"
        }
      ],
      "name": "updateOwner",
      "outputs": [],
      "stateMutability": "nonpayable",
      "type": "function"
    }
  ],
  "bytecode": "0x608060405234801561001057600080fd5b506124f0806100206000396000f3fe608060405234801561001057600080fd5b506004361061009e5760003560e01c806397f15c021161006657806397f15c02146101435780639bcff9ba1461015f578063bb33e2ff1461017b578063e261f1e514610197578063fbb62fe7146101d25761009e565b806302402589146100a35780632bdbfce0146100d35780637192711f146100ef57806377d90c661461010b5780638d86b82514610127575b600080fd5b6100bd60048036038101906100b8919061165f565b610202565b6040516100ca91906116e9565b60405180910390f35b6100ed60048036038101906100e89190611704565b610461565b005b61010960048036038101906101049190611704565b6105d8565b005b61012560048036038101906101209190611744565b610855565b005b610141600480360381019061013c9190611771565b610a74565b005b61015d6004803603810190610158919061191e565b610c3d565b005b61017960048036038101906101749190611704565b610d89565b005b61019560048036038101906101909190611704565b610f00565b005b6101b160048036038101906101ac9190611744565b611028565b6040516101c99c9b9a99989796959493929190611a92565b60405180910390f35b6101ec60048036038101906101e79190611744565b6111e5565b6040516101f99190611cdc565b60405180910390f35b60006001600081548092919061021790611d2d565b919050555060405180610180016040528060015481526020018781526020018681526020018581526020018473ffffffffffffffffffffffffffffffffffffffff16815260200183815260200160008152602001428152602001600073ffffffffffffffffffffffffffffffffffffffff168152602001604051806020016040528060008152508152602001604051806020016040528060008152508152602001600060058111156102cc576102cb611a1b565b5b81525060008060015481526020019081526020016000206000820151816000015560208201518160010155604082015181600201556060820151816003015560808201518160040160006101000a81548173ffffffffffffffffffffffffffffffffffffffff021916908373ffffffffffffffffffffffffffffffffffffffff16021790555060a0820151816005015560c0820151816006015560e082015181600701556101008201518160080160006101000a81548173ffffffffffffffffffffffffffffffffffffffff021916908373ffffffffffffffffffffffffffffffffffffffff1602179055506101208201518160090190816103ce9190611f81565b5061014082015181600a0190816103e59190611f81565b5061016082015181600b0160006101000a81548160ff0219169083600581111561041257610411611a1b565b5b02179055509050507f6967855d7c9dc8d3317bc4dd9329c2cb21eb3c3f31f600d6f963075f5029788460015460405161044b91906116e9565b60405180910390a1600154905095945050505050565b600080600084815260200190815260200160002060000154036104b9576040517f08c379a00000000000000000000000000000000000000000000000000000000081526004016104b09061209f565b60405180910390fd5b8073ffffffffffffffffffffffffffffffffffffffff1660008084815260200190815260200160002060040160009054906101000a900473ffffffffffffffffffffffffffffffffffffffff1673ffffffffffffffffffffffffffffffffffffffff161461055c576040517f08c379a00000000000000000000000000000000000000000000000000000000081526004016105539061210b565b60405180910390fd5b6002600080848152602001908152602001600020600b0160006101000a81548160ff0219169083600581111561059557610594611a1b565b5b02179055507fa68b6192c5185cc0b54e584df755b20e08267f0c80462555f30d82e256a13fcf8260026040516105cc92919061212b565b60405180910390a15050565b6000821161061b576040517f08c379a0000000000000000000000000000000000000000000000000000000008152600401610612906121a0565b60405180910390fd5b600073ffffffffffffffffffffffffffffffffffffffff168173ffffffffffffffffffffffffffffffffffffffff160361068a576040517f08c379a00000000000000000000000000000000000000000000000000000000081526004016106819061220c565b60405180910390fd5b600080600084815260200190815260200160002060000154036106e2576040517f08c379a00000000000000000000000000000000000000000000000000000000081526004016106d99061209f565b60405180910390fd5b60008083815260200190815260200160002060040160009054906101000a900473ffffffffffffffffffffffffffffffffffffffff1673ffffffffffffffffffffffffffffffffffffffff168173ffffffffffffffffffffffffffffffffffffffff1603610785576040517f08c379a000000000000000000000000000000000000000000000000000000000815260040161077c9061229e565b60405180910390fd5b8060008084815260200190815260200160002060040160006101000a81548173ffffffffffffffffffffffffffffffffffffffff021916908373ffffffffffffffffffffffffffffffffffffffff1602179055506005600080848152602001908152602001600020600b0160006101000a81548160ff0219169083600581111561081257610811611a1b565b5b02179055507fa68b6192c5185cc0b54e584df755b20e08267f0c80462555f30d82e256a13fcf82600560405161084992919061212b565b60405180910390a15050565b600080600083815260200190815260200160002060000154036108ad576040517f08c379a00000000000000000000000000000000000000000000000000000000081526004016108a49061209f565b60405180910390fd5b3373ffffffffffffffffffffffffffffffffffffffff1660008083815260200190815260200160002060040160009054906101000a900473ffffffffffffffffffffffffffffffffffffffff1673ffffffffffffffffffffffffffffffffffffffff1614610950576040517f08c379a00000000000000000000000000000000000000000000000000000000081526004016109479061230a565b60405180910390fd5b60008060008381526020019081526020016000206000015490506000808381526020019081526020016000206000808201600090556001820160009055600282016000905560038201600090556004820160006101000a81549073ffffffffffffffffffffffffffffffffffffffff02191690556005820160009055600682016000905560078201600090556008820160006101000a81549073ffffffffffffffffffffffffffffffffffffffff0219169055600982016000610a1391906114bb565b600a82016000610a2391906114bb565b600b820160006101000a81549060ff021916905550507f14140c09ea585bcc961d25dd1c77cdc93370b6554cbae930ca87c61f25a95ac181604051610a6891906116e9565b60405180910390a15050565b60008060008681526020019081526020016000206000015403610acc576040517f08c379a0000000000000000000000000000000000000000000000000000000008152600401610ac39061209f565b60405180910390fd5b3373ffffffffffffffffffffffffffffffffffffffff1660008086815260200190815260200160002060040160009054906101000a900473ffffffffffffffffffffffffffffffffffffffff1673ffffffffffffffffffffffffffffffffffffffff1614610b6f576040517f08c379a0000000000000000000000000000000000000000000000000000000008152600401610b6690612376565b60405180910390fd5b60008211610bb2576040517f08c379a0000000000000000000000000000000000000000000000000000000008152600401610ba990612408565b60405180910390fd5b8260008086815260200190815260200160002060030181905550816000808681526020019081526020016000206005018190555080600080868152602001908152602001600020600601819055507f4b505e6b0ded16eba82bbdfe0bc794064afd577a62e66b93dab4748922b42db684604051610c2f91906116e9565b60405180910390a150505050565b60008060008581526020019081526020016000206000015403610c95576040517f08c379a0000000000000000000000000000000000000000000000000000000008152600401610c8c9061209f565b60405180910390fd5b8160008085815260200190815260200160002060080160006101000a81548173ffffffffffffffffffffffffffffffffffffffff021916908373ffffffffffffffffffffffffffffffffffffffff1602179055506003600080858152602001908152602001600020600b0160006101000a81548160ff02191690836005811115610d2257610d21611a1b565b5b021790555080600080858152602001908152602001600020600a019081610d499190611f81565b507fa68b6192c5185cc0b54e584df755b20e08267f0c80462555f30d82e256a13fcf836003604051610d7c92919061212b565b60405180910390a1505050565b60008060008481526020019081526020016000206000015403610de1576040517f08c379a0000000000000000000000000000000000000000000000000000000008152600401610dd89061209f565b60405180910390fd5b8073ffffffffffffffffffffffffffffffffffffffff1660008084815260200190815260200160002060040160009054906101000a900473ffffffffffffffffffffffffffffffffffffffff1673ffffffffffffffffffffffffffffffffffffffff1614610e84576040517f08c379a0000000000000000000000000000000000000000000000000000000008152600401610e7b9061249a565b60405180910390fd5b6004600080848152602001908152602001600020600b0160006101000a81548160ff02191690836005811115610ebd57610ebc611a1b565b5b02179055507fa68b6192c5185cc0b54e584df755b20e08267f0c80462555f30d82e256a13fcf826004604051610ef492919061212b565b60405180910390a15050565b60008060008481526020019081526020016000206000015403610f58576040517f08c379a0000000000000000000000000000000000000000000000000000000008152600401610f4f9061209f565b60405180910390fd5b8060008084815260200190815260200160002060080160006101000a81548173ffffffffffffffffffffffffffffffffffffffff021916908373ffffffffffffffffffffffffffffffffffffffff1602179055506002600080848152602001908152602001600020600b0160006101000a81548160ff02191690836005811115610fe557610fe4611a1b565b5b02179055507fa68b6192c5185cc0b54e584df755b20e08267f0c80462555f30d82e256a13fcf82600260405161101c92919061212b565b60405180910390a15050565b60006020528060005260406000206000915090508060000154908060010154908060020154908060030154908060040160009054906101000a900473ffffffffffffffffffffffffffffffffffffffff16908060050154908060060154908060070154908060080160009054906101000a900473ffffffffffffffffffffffffffffffffffffffff16908060090180546110c190611da4565b80601f01602080910402602001604051908101604052809291908181526020018280546110ed90611da4565b801561113a5780601f1061110f5761010080835404028352916020019161113a565b820191906000526020600020905b81548152906001019060200180831161111d57829003601f168201915b50505050509080600a01805461114f90611da4565b80601f016020809104026020016040519081016040528092919081815260200182805461117b90611da4565b80156111c85780601f1061119d576101008083540402835291602001916111c8565b820191906000526020600020905b8154815290600101906020018083116111ab57829003601f168201915b50505050509080600b0160009054906101000a900460ff1690508c565b6111ed6114fb565b60008060008481526020019081526020016000206000015403611245576040517f08c379a000000000000000000000000000000000000000000000000000000000815260040161123c9061209f565b60405180910390fd5b60008083815260200190815260200160002060405180610180016040529081600082015481526020016001820154815260200160028201548152602001600382015481526020016004820160009054906101000a900473ffffffffffffffffffffffffffffffffffffffff1673ffffffffffffffffffffffffffffffffffffffff1673ffffffffffffffffffffffffffffffffffffffff1681526020016005820154815260200160068201548152602001600782015481526020016008820160009054906101000a900473ffffffffffffffffffffffffffffffffffffffff1673ffffffffffffffffffffffffffffffffffffffff1673ffffffffffffffffffffffffffffffffffffffff16815260200160098201805461136590611da4565b80601f016020809104026020016040519081016040528092919081815260200182805461139190611da4565b80156113de5780601f106113b3576101008083540402835291602001916113de565b820191906000526020600020905b8154815290600101906020018083116113c157829003601f168201915b50505050508152602001600a820180546113f790611da4565b80601f016020809104026020016040519081016040528092919081815260200182805461142390611da4565b80156114705780601f1061144557610100808354040283529160200191611470565b820191906000526020600020905b81548152906001019060200180831161145357829003601f168201915b50505050508152602001600b820160009054906101000a900460ff16600581111561149e5761149d611a1b565b5b60058111156114b0576114af611a1b565b5b815250509050919050565b5080546114c790611da4565b6000825580601f106114d957506114f8565b601f0160209004906000526020600020908101906114f7919061159a565b5b50565b60405180610180016040528060008152602001600081526020016000815260200160008152602001600073ffffffffffffffffffffffffffffffffffffffff168152602001600081526020016000815260200160008152602001600073ffffffffffffffffffffffffffffffffffffffff16815260200160608152602001606081526020016000600581111561159457611593611a1b565b5b81525090565b5b808211156115b357600081600090555060010161159b565b5090565b6000604051905090565b600080fd5b600080fd5b6000819050919050565b6115de816115cb565b81146115e957600080fd5b50565b6000813590506115fb816115d5565b92915050565b600073ffffffffffffffffffffffffffffffffffffffff82169050919050565b600061162c82611601565b9050919050565b61163c81611621565b811461164757600080fd5b50565b60008135905061165981611633565b92915050565b600080600080600060a0868803121561167b5761167a6115c1565b5b6000611689888289016115ec565b955050602061169a888289016115ec565b94505060406116ab888289016115ec565b93505060606116bc8882890161164a565b92505060806116cd888289016115ec565b9150509295509295909350565b6116e3816115cb565b82525050565b60006020820190506116fe60008301846116da565b92915050565b6000806040838503121561171b5761171a6115c1565b5b6000611729858286016115ec565b925050602061173a8582860161164a565b9150509250929050565b60006020828403121561175a576117596115c1565b5b6000611768848285016115ec565b91505092915050565b6000806000806080858703121561178b5761178a6115c1565b5b6000611799878288016115ec565b94505060206117aa878288016115ec565b93505060406117bb878288016115ec565b92505060606117cc878288016115ec565b91505092959194509250565b600080fd5b600080fd5b6000601f19601f8301169050919050565b7f4e487b7100000000000000000000000000000000000000000000000000000000600052604160045260246000fd5b61182b826117e2565b810181811067ffffffffffffffff8211171561184a576118496117f3565b5b80604052505050565b600061185d6115b7565b90506118698282611822565b919050565b600067ffffffffffffffff821115611889576118886117f3565b5b611892826117e2565b9050602081019050919050565b82818337600083830152505050565b60006118c16118bc8461186e565b611853565b9050828152602081018484840111156118dd576118dc6117dd565b5b6118e884828561189f565b509392505050565b600082601f830112611905576119046117d8565b5b81356119158482602086016118ae565b91505092915050565b600080600060608486031215611937576119366115c1565b5b6000611945868287016115ec565b93505060206119568682870161164a565b925050604084013567ffffffffffffffff811115611977576119766115c6565b5b611983868287016118f0565b9150509250925092565b61199681611621565b82525050565b600081519050919050565b600082825260208201905092915050565b60005b838110156119d65780820151818401526020810190506119bb565b60008484015250505050565b60006119ed8261199c565b6119f781856119a7565b9350611a078185602086016119b8565b611a10816117e2565b840191505092915050565b7f4e487b7100000000000000000000000000000000000000000000000000000000600052602160045260246000fd5b60068110611a5b57611a5a611a1b565b5b50565b6000819050611a6c82611a4a565b919050565b6000611a7c82611a5e565b9050919050565b611a8c81611a71565b82525050565b600061018082019050611aa8600083018f6116da565b611ab5602083018e6116da565b611ac2604083018d6116da565b611acf606083018c6116da565b611adc608083018b61198d565b611ae960a083018a6116da565b611af660c08301896116da565b611b0360e08301886116da565b611b1161010083018761198d565b818103610120830152611b2481866119e2565b9050818103610140830152611b3981856119e2565b9050611b49610160830184611a83565b9d9c50505050505050505050505050565b611b63816115cb565b82525050565b611b7281611621565b82525050565b600082825260208201905092915050565b6000611b948261199c565b611b9e8185611b78565b9350611bae8185602086016119b8565b611bb7816117e2565b840191505092915050565b611bcb81611a71565b82525050565b600061018083016000830151611bea6000860182611b5a565b506020830151611bfd6020860182611b5a565b506040830151611c106040860182611b5a565b506060830151611c236060860182611b5a565b506080830151611c366080860182611b69565b5060a0830151611c4960a0860182611b5a565b5060c0830151611c5c60c0860182611b5a565b5060e0830151611c6f60e0860182611b5a565b50610100830151611c84610100860182611b69565b50610120830151848203610120860152611c9e8282611b89565b915050610140830151848203610140860152611cba8282611b89565b915050610160830151611cd1610160860182611bc2565b508091505092915050565b60006020820190508181036000830152611cf68184611bd1565b905092915050565b7f4e487b7100000000000000000000000000000000000000000000000000000000600052601160045260246000fd5b6000611d38826115cb565b91507fffffffffffffffffffffffffffffffffffffffffffffffffffffffffffffffff8203611d6a57611d69611cfe565b5b600182019050919050565b7f4e487b7100000000000000000000000000000000000000000000000000000000600052602260045260246000fd5b60006002820490506001821680611dbc57607f821691505b602082108103611dcf57611dce611d75565b5b50919050565b60008190508160005260206000209050919050565b60006020601f8301049050919050565b600082821b905092915050565b600060088302611e377fffffffffffffffffffffffffffffffffffffffffffffffffffffffffffffffff82611dfa565b611e418683611dfa565b95508019841693508086168417925050509392505050565b6000819050919050565b6000611e7e611e79611e74846115cb565b611e59565b6115cb565b9050919050565b6000819050919050565b611e9883611e63565b611eac611ea482611e85565b848454611e07565b825550505050565b600090565b611ec1611eb4565b611ecc818484611e8f565b505050565b5b81811015611ef057611ee5600082611eb9565b600181019050611ed2565b5050565b601f821115611f3557611f0681611dd5565b611f0f84611dea565b81016020851015611f1e578190505b611f32611f2a85611dea565b830182611ed1565b50505b505050565b600082821c905092915050565b6000611f5860001984600802611f3a565b1980831691505092915050565b6000611f718383611f47565b9150826002028217905092915050565b611f8a8261199c565b67ffffffffffffffff811115611fa357611fa26117f3565b5b611fad8254611da4565b611fb8828285611ef4565b600060209050601f831160018114611feb5760008415611fd9578287015190505b611fe38582611f65565b86555061204b565b601f198416611ff986611dd5565b60005b8281101561202157848901518255600182019150602085019450602081019050611ffc565b8683101561203e578489015161203a601f891682611f47565b8355505b6001600288020188555050505b505050505050565b7f4c616e6420646f6573206e6f7420657869737400000000000000000000000000600082015250565b60006120896013836119a7565b915061209482612053565b602082019050919050565b600060208201905081810360008301526120b88161207c565b9050919050565b7f4f6e6c79206f776e657220697320616c6c6f7765640000000000000000000000600082015250565b60006120f56015836119a7565b9150612100826120bf565b602082019050919050565b60006020820190508181036000830152612124816120e8565b9050919050565b600060408201905061214060008301856116da565b61214d6020830184611a83565b9392505050565b7f496e76616c69642070726f706572747920494400000000000000000000000000600082015250565b600061218a6013836119a7565b915061219582612154565b602082019050919050565b600060208201905081810360008301526121b98161217d565b9050919050565b7f496e76616c6964206e6577206f776e6572206164647265737300000000000000600082015250565b60006121f66019836119a7565b9150612201826121c0565b602082019050919050565b60006020820190508181036000830152612225816121e9565b9050919050565b7f4e6577206f776e65722063616e6e6f742062652073616d65206173206375727260008201527f656e74206f776e65720000000000000000000000000000000000000000000000602082015250565b60006122886029836119a7565b91506122938261222c565b604082019050919050565b600060208201905081810360008301526122b78161227b565b9050919050565b7f4f6e6c79206f776e65722063616e2072656d6f76650000000000000000000000600082015250565b60006122f46015836119a7565b91506122ff826122be565b602082019050919050565b60006020820190508181036000830152612323816122e7565b9050919050565b7f4f6e6c79206f776e65722063616e206564697400000000000000000000000000600082015250565b60006123606013836119a7565b915061236b8261232a565b602082019050919050565b6000602082019050818103600083015261238f81612353565b9050919050565b7f616464726573734e6f206d7573742062652067726561746572207468616e207a60008201527f65726f0000000000000000000000000000000000000000000000000000000000602082015250565b60006123f26023836119a7565b91506123fd82612396565b604082019050919050565b60006020820190508181036000830152612421816123e5565b9050919050565b7f4f6e6c79206f776e65722063616e206d616b6520697420617661696c61626c6560008201527f20666f722073616c650000000000000000000000000000000000000000000000602082015250565b60006124846029836119a7565b915061248f82612428565b604082019050919050565b600060208201905081810360008301526124b381612477565b905091905056fea2646970667358221220e9bf35cd000721f1906ecb36b7e02a0100a7fa4471a977417f9450e6a29b556864736f6c63430008120033",
  "immutableReferences": {},
  "source": "// SPDX-License-Identifier: MIT\r\npragma solidity >=0.4.22 <0.9.0;\r\n\r\ncontract Property {\r\n    enum StateOfProperty {\r\n        Created,\r\n        Scheduled,\r\n        Verified,\r\n        Rejected,\r\n        OnSale,\r\n        Bought\r\n    }\r\n\r\n    struct Land {\r\n        uint256 propertyId;\r\n        uint256 locationId;\r\n        uint256 revenueDepartmentId;\r\n        uint256 surveyNumber;\r\n        address owner;\r\n        uint256 addressNo;\r\n        uint256 postalCode;\r\n        uint256 registeredTime;\r\n        address employeeId;\r\n        string scheduledDate;\r\n        string rejectedReason;\r\n        StateOfProperty state;\r\n    }\r\n\r\n    mapping(uint256 => Land) public lands;\r\n    uint256 private landCount;\r\n\r\n    event LandCreated(uint256 propertyId);\r\n    event LandStateChanged(uint256 propertyId, StateOfProperty state);\r\n    event LandUpdated(uint256 propertyId);\r\n    event LandRemoved(uint256 propertyId);\r\n\r\n    // Function to add a new land\r\n    function addLand(\r\n        uint256 _locationId,\r\n        uint256 _revenueDepartmentId,\r\n        uint256 _surveyNumber,\r\n        address _owner,\r\n        uint256 _addressNo\r\n    ) public returns (uint256) {\r\n        landCount++;\r\n\r\n        lands[landCount] = Land({\r\n            propertyId: landCount,\r\n            locationId: _locationId,\r\n            revenueDepartmentId: _revenueDepartmentId,\r\n            surveyNumber: _surveyNumber,\r\n            owner: _owner,\r\n            addressNo: _addressNo,\r\n            postalCode: 0,\r\n            registeredTime: block.timestamp,\r\n            employeeId: address(0),\r\n            scheduledDate: \"\",\r\n            rejectedReason: \"\",\r\n            state: StateOfProperty.Created\r\n        });\r\n\r\n        // Emit the LandCreated event after adding the land\r\n        emit LandCreated(landCount);\r\n\r\n        return landCount;\r\n    }\r\n\r\n    \r\n\r\n    // Function to get land details as a struct\r\n    function getLandDetailsAsStruct(uint256 _propertyId) public view returns (Land memory) {\r\n        require(lands[_propertyId].propertyId != 0, \"Land does not exist\");\r\n        return lands[_propertyId];\r\n    }\r\n\r\n    // Function to change the state of land to Verified\r\n    function changeStateToVerified(uint256 _propertyId, address _employeeId) public {\r\n        require(lands[_propertyId].propertyId != 0, \"Land does not exist\");\r\n        \r\n        lands[_propertyId].employeeId = _employeeId;\r\n        lands[_propertyId].state = StateOfProperty.Verified;\r\n        \r\n        emit LandStateChanged(_propertyId, StateOfProperty.Verified);\r\n    }\r\n\r\n     // Function to edit land details\r\n    function editLand(\r\n        uint256 _propertyId,\r\n        uint256 _surveyNumber,\r\n        uint256 _addressNo,\r\n        uint256 _postalCode\r\n    ) public {\r\n\r\n        require(lands[_propertyId].propertyId != 0, \"Land does not exist\");\r\n        require(lands[_propertyId].owner == msg.sender  , \"Only owner can edit\");\r\n        require(_addressNo > 0, \"addressNo must be greater than zero\");\r\n\r\n        lands[_propertyId].surveyNumber = _surveyNumber;\r\n        lands[_propertyId].addressNo = _addressNo;\r\n        lands[_propertyId].postalCode = _postalCode;\r\n\r\n        emit LandUpdated(_propertyId);\r\n    }\r\n\r\n    // Function to remove land\r\n    function removeLand(uint256 _propertyId) public {\r\n        require(lands[_propertyId].propertyId != 0, \"Land does not exist\");\r\n        require(lands[_propertyId].owner == msg.sender, \"Only owner can remove\");\r\n        \r\n        // Store property ID before deletion for event\r\n        uint256 removedId = lands[_propertyId].propertyId;\r\n        \r\n        // Delete the land from mapping\r\n        delete lands[_propertyId];\r\n        \r\n        emit LandRemoved(removedId);\r\n    }\r\n\r\n    // Function to change the state of land to Rejected\r\n    function changeStateToRejected(uint256 _propertyId, address _employeeId, string memory _reason) public {\r\n        require(lands[_propertyId].propertyId != 0, \"Land does not exist\");\r\n\r\n        lands[_propertyId].employeeId = _employeeId;\r\n        lands[_propertyId].state = StateOfProperty.Rejected;\r\n        lands[_propertyId].rejectedReason = _reason;\r\n\r\n        emit LandStateChanged(_propertyId, StateOfProperty.Rejected);\r\n    }\r\n\r\n    // Function to change the state of land to On Sale\r\n    function changeStateToOnSale(uint256 _propertyId, address _owner) public {\r\n        require(lands[_propertyId].propertyId != 0, \"Land does not exist\");\r\n        require(lands[_propertyId].owner == _owner, \"Only owner can make it available for sale\");\r\n\r\n        lands[_propertyId].state = StateOfProperty.OnSale;\r\n\r\n        emit LandStateChanged(_propertyId, StateOfProperty.OnSale);\r\n    }\r\n\r\n    // Function to change the state of land back to Verified by the owner\r\n    function changeStateBackToVerified(uint256 _propertyId, address _owner) public {\r\n        require(lands[_propertyId].propertyId != 0, \"Land does not exist\");\r\n        require(lands[_propertyId].owner == _owner, \"Only owner is allowed\");\r\n\r\n        lands[_propertyId].state = StateOfProperty.Verified;\r\n\r\n        emit LandStateChanged(_propertyId, StateOfProperty.Verified);\r\n    }\r\n\r\n    // Function to update the owner of the land and change state to Bought\r\n   function updateOwner(uint256 _propertyId, address newOwner) public {\r\n    require(_propertyId > 0, \"Invalid property ID\");\r\n    require(newOwner != address(0), \"Invalid new owner address\");\r\n    require(lands[_propertyId].propertyId != 0, \"Land does not exist\");\r\n    require(newOwner != lands[_propertyId].owner, \"New owner cannot be same as current owner\");\r\n\r\n    lands[_propertyId].owner = newOwner;\r\n    lands[_propertyId].state = StateOfProperty.Bought;\r\n\r\n    emit LandStateChanged(_propertyId, StateOfProperty.Bought);\r\n}\r\n}\r\n",
  "sourcePath": "/mnt/c/Users/Dantez Mwaxh/Land-Registraion-System-with-Blockchain/Smart_contracts/contracts/Property.sol",
  "compiler": {
    "name": "solc",
    "version": "0.8.18+commit.87f61d96.Emscripten.clang"
  },
  "schemaVersion": "3.4.16",
  "updatedAt": "2025-05-06T09:34:47.708Z",
  "networkType": "ethereum",
  "devdoc": {
    "kind": "dev",
    "methods": {},
    "version": 1
  },
  "userdoc": {
    "kind": "user",
    "methods": {},
    "version": 1
  }
}