{
  "contractName": "TransferOwnerShip",
  "abi": [
    {
      "inputs": [
        {
          "internalType": "address",
          "name": "_landRegistryContractAddress",
          "type": "address"
        }
      ],
      "stateMutability": "nonpayable",
      "type": "constructor"
    },
    {
      "anonymous": false,
      "inputs": [
        {
          "indexed": true,
          "internalType": "address",
          "name": "owner",
          "type": "address"
        },
        {
          "indexed": true,
          "internalType": "uint256",
          "name": "propertyId",
          "type": "uint256"
        },
        {
          "indexed": false,
          "internalType": "uint256",
          "name": "saleId",
          "type": "uint256"
        }
      ],
      "name": "PropertyOnSale",
      "type": "event"
    },
    {
      "anonymous": false,
      "inputs": [
        {
          "indexed": false,
          "internalType": "uint256",
          "name": "saleId",
          "type": "uint256"
        },
        {
          "indexed": false,
          "internalType": "address",
          "name": "requestedUser",
          "type": "address"
        },
        {
          "indexed": false,
          "internalType": "uint256",
          "name": "priceOffered",
          "type": "uint256"
        }
      ],
      "name": "PurchaseRequestSent",
      "type": "event"
    },
    {
      "anonymous": false,
      "inputs": [
        {
          "indexed": false,
          "internalType": "uint256",
          "name": "saleId",
          "type": "uint256"
        },
        {
          "indexed": false,
          "internalType": "address",
          "name": "buyer",
          "type": "address"
        },
        {
          "indexed": false,
          "internalType": "uint256",
          "name": "price",
          "type": "uint256"
        },
        {
          "indexed": false,
          "internalType": "uint256",
          "name": "deadline",
          "type": "uint256"
        }
      ],
      "name": "SaleAccepted",
      "type": "event"
    },
    {
      "inputs": [
        {
          "internalType": "address",
          "name": "",
          "type": "address"
        },
        {
          "internalType": "uint256",
          "name": "",
          "type": "uint256"
        }
      ],
      "name": "requestedSales",
      "outputs": [
        {
          "internalType": "uint256",
          "name": "",
          "type": "uint256"
        }
      ],
      "stateMutability": "view",
      "type": "function"
    },
    {
      "inputs": [
        {
          "internalType": "uint256",
          "name": "etherValue",
          "type": "uint256"
        }
      ],
      "name": "convertToWei",
      "outputs": [
        {
          "internalType": "uint256",
          "name": "",
          "type": "uint256"
        }
      ],
      "stateMutability": "pure",
      "type": "function"
    },
    {
      "inputs": [
        {
          "internalType": "uint256",
          "name": "_propertyId",
          "type": "uint256"
        },
        {
          "internalType": "uint256",
          "name": "_price",
          "type": "uint256"
        }
      ],
      "name": "addPropertyOnSale",
      "outputs": [],
      "stateMutability": "nonpayable",
      "type": "function"
    },
    {
      "inputs": [
        {
          "internalType": "address",
          "name": "_owner",
          "type": "address"
        }
      ],
      "name": "getMySales",
      "outputs": [
        {
          "components": [
            {
              "internalType": "uint256",
              "name": "saleId",
              "type": "uint256"
            },
            {
              "internalType": "address",
              "name": "owner",
              "type": "address"
            },
            {
              "internalType": "uint256",
              "name": "price",
              "type": "uint256"
            },
            {
              "internalType": "uint256",
              "name": "propertyId",
              "type": "uint256"
            },
            {
              "internalType": "address",
              "name": "acceptedFor",
              "type": "address"
            },
            {
              "internalType": "uint256",
              "name": "acceptedPrice",
              "type": "uint256"
            },
            {
              "internalType": "uint256",
              "name": "acceptedTime",
              "type": "uint256"
            },
            {
              "internalType": "uint256",
              "name": "deadlineForPayment",
              "type": "uint256"
            },
            {
              "internalType": "bool",
              "name": "paymentDone",
              "type": "bool"
            },
            {
              "internalType": "enum TransferOwnerShip.SaleState",
              "name": "state",
              "type": "uint8"
            }
          ],
          "internalType": "struct TransferOwnerShip.Sales[]",
          "name": "",
          "type": "tuple[]"
        }
      ],
      "stateMutability": "view",
      "type": "function"
    },
    {
      "inputs": [
        {
          "internalType": "uint256",
          "name": "saleId",
          "type": "uint256"
        }
      ],
      "name": "getRequestedUsers",
      "outputs": [
        {
          "components": [
            {
              "internalType": "address",
              "name": "user",
              "type": "address"
            },
            {
              "internalType": "uint256",
              "name": "priceOffered",
              "type": "uint256"
            },
            {
              "internalType": "enum TransferOwnerShip.RequestedUserToASaleState",
              "name": "state",
              "type": "uint8"
            }
          ],
          "internalType": "struct TransferOwnerShip.RequestedUser[]",
          "name": "",
          "type": "tuple[]"
        }
      ],
      "stateMutability": "view",
      "type": "function"
    },
    {
      "inputs": [
        {
          "internalType": "address",
          "name": "_owner",
          "type": "address"
        }
      ],
      "name": "getRequestedSales",
      "outputs": [
        {
          "components": [
            {
              "internalType": "uint256",
              "name": "saleId",
              "type": "uint256"
            },
            {
              "internalType": "address",
              "name": "owner",
              "type": "address"
            },
            {
              "internalType": "uint256",
              "name": "price",
              "type": "uint256"
            },
            {
              "internalType": "uint256",
              "name": "propertyId",
              "type": "uint256"
            },
            {
              "internalType": "address",
              "name": "acceptedFor",
              "type": "address"
            },
            {
              "internalType": "uint256",
              "name": "acceptedPrice",
              "type": "uint256"
            },
            {
              "internalType": "uint256",
              "name": "acceptedTime",
              "type": "uint256"
            },
            {
              "internalType": "uint256",
              "name": "deadlineForPayment",
              "type": "uint256"
            },
            {
              "internalType": "bool",
              "name": "paymentDone",
              "type": "bool"
            },
            {
              "internalType": "enum TransferOwnerShip.SaleState",
              "name": "state",
              "type": "uint8"
            }
          ],
          "internalType": "struct TransferOwnerShip.Sales[]",
          "name": "",
          "type": "tuple[]"
        }
      ],
      "stateMutability": "view",
      "type": "function"
    },
    {
      "inputs": [
        {
          "internalType": "uint256",
          "name": "_saleId",
          "type": "uint256"
        }
      ],
      "name": "getStatusOfPurchaseRequest",
      "outputs": [
        {
          "components": [
            {
              "internalType": "address",
              "name": "user",
              "type": "address"
            },
            {
              "internalType": "uint256",
              "name": "priceOffered",
              "type": "uint256"
            },
            {
              "internalType": "enum TransferOwnerShip.RequestedUserToASaleState",
              "name": "state",
              "type": "uint8"
            }
          ],
          "internalType": "struct TransferOwnerShip.RequestedUser",
          "name": "",
          "type": "tuple"
        }
      ],
      "stateMutability": "view",
      "type": "function"
    },
    {
      "inputs": [
        {
          "internalType": "uint256",
          "name": "locationId",
          "type": "uint256"
        }
      ],
      "name": "getSalesByLocation",
      "outputs": [
        {
          "components": [
            {
              "internalType": "uint256",
              "name": "saleId",
              "type": "uint256"
            },
            {
              "internalType": "address",
              "name": "owner",
              "type": "address"
            },
            {
              "internalType": "uint256",
              "name": "price",
              "type": "uint256"
            },
            {
              "internalType": "uint256",
              "name": "propertyId",
              "type": "uint256"
            },
            {
              "internalType": "address",
              "name": "acceptedFor",
              "type": "address"
            },
            {
              "internalType": "uint256",
              "name": "acceptedPrice",
              "type": "uint256"
            },
            {
              "internalType": "uint256",
              "name": "acceptedTime",
              "type": "uint256"
            },
            {
              "internalType": "uint256",
              "name": "deadlineForPayment",
              "type": "uint256"
            },
            {
              "internalType": "bool",
              "name": "paymentDone",
              "type": "bool"
            },
            {
              "internalType": "enum TransferOwnerShip.SaleState",
              "name": "state",
              "type": "uint8"
            }
          ],
          "internalType": "struct TransferOwnerShip.Sales[]",
          "name": "",
          "type": "tuple[]"
        }
      ],
      "stateMutability": "view",
      "type": "function"
    },
    {
      "inputs": [
        {
          "internalType": "uint256",
          "name": "_saleId",
          "type": "uint256"
        },
        {
          "internalType": "uint256",
          "name": "_priceOffered",
          "type": "uint256"
        }
      ],
      "name": "sendPurchaseRequest",
      "outputs": [],
      "stateMutability": "nonpayable",
      "type": "function"
    },
    {
      "inputs": [
        {
          "internalType": "uint256",
          "name": "_saleId",
          "type": "uint256"
        },
        {
          "internalType": "address",
          "name": "_buyer",
          "type": "address"
        },
        {
          "internalType": "uint256",
          "name": "_price",
          "type": "uint256"
        }
      ],
      "name": "acceptBuyerRequest",
      "outputs": [],
      "stateMutability": "nonpayable",
      "type": "function"
    },
    {
      "inputs": [
        {
          "internalType": "uint256",
          "name": "_saleId",
          "type": "uint256"
        }
      ],
      "name": "cancelSaleBySeller",
      "outputs": [
        {
          "internalType": "bool",
          "name": "",
          "type": "bool"
        }
      ],
      "stateMutability": "nonpayable",
      "type": "function"
    },
    {
      "inputs": [
        {
          "internalType": "uint256",
          "name": "_saleId",
          "type": "uint256"
        }
      ],
      "name": "reactivateSale",
      "outputs": [],
      "stateMutability": "nonpayable",
      "type": "function"
    },
    {
      "inputs": [
        {
          "internalType": "uint256",
          "name": "_saleId",
          "type": "uint256"
        }
      ],
      "name": "rejectingAcceptanceRequestByBuyer",
      "outputs": [],
      "stateMutability": "nonpayable",
      "type": "function"
    },
    {
      "inputs": [
        {
          "internalType": "uint256",
          "name": "_saleId",
          "type": "uint256"
        }
      ],
      "name": "rejectingAcceptanceRequestBySeller",
      "outputs": [],
      "stateMutability": "nonpayable",
      "type": "function"
    },
    {
      "inputs": [
        {
          "internalType": "uint256",
          "name": "_saleId",
          "type": "uint256"
        }
      ],
      "name": "cancelPurchaseRequestSentToSeller",
      "outputs": [],
      "stateMutability": "nonpayable",
      "type": "function"
    },
    {
      "inputs": [
        {
          "internalType": "uint256",
          "name": "_saleId",
          "type": "uint256"
        },
        {
          "internalType": "address",
          "name": "_buyer",
          "type": "address"
        }
      ],
      "name": "rejectPurchaseRequestOfBuyer",
      "outputs": [],
      "stateMutability": "nonpayable",
      "type": "function"
    },
    {
      "inputs": [
        {
          "internalType": "uint256",
          "name": "_saleId",
          "type": "uint256"
        },
        {
          "internalType": "uint256",
          "name": "_priceOffered",
          "type": "uint256"
        }
      ],
      "name": "rerequestPurchaseRequest",
      "outputs": [],
      "stateMutability": "nonpayable",
      "type": "function"
    },
    {
      "inputs": [
        {
          "internalType": "uint256",
          "name": "saleId",
          "type": "uint256"
        }
      ],
      "name": "transferOwnerShip",
      "outputs": [],
      "stateMutability": "payable",
      "type": "function"
    }
  ],
  "bytecode": "0x60806040523480156200001157600080fd5b5060405162005a0238038062005a02833981810160405281019062000037919062000253565b80600160006101000a81548173ffffffffffffffffffffffffffffffffffffffff021916908373ffffffffffffffffffffffffffffffffffffffff1602179055506000600160009054906101000a900473ffffffffffffffffffffffffffffffffffffffff1673ffffffffffffffffffffffffffffffffffffffff1663b9fe2ff46040518163ffffffff1660e01b8152600401602060405180830381865afa158015620000e8573d6000803e3d6000fd5b505050506040513d601f19601f820116820180604052508101906200010e919062000253565b9050806000806101000a81548173ffffffffffffffffffffffffffffffffffffffff021916908373ffffffffffffffffffffffffffffffffffffffff160217905550600160009054906101000a900473ffffffffffffffffffffffffffffffffffffffff1673ffffffffffffffffffffffffffffffffffffffff16630cf36e57306040518263ffffffff1660e01b8152600401620001ad919062000296565b600060405180830381600087803b158015620001c857600080fd5b505af1158015620001dd573d6000803e3d6000fd5b505050505050620002b3565b600080fd5b600073ffffffffffffffffffffffffffffffffffffffff82169050919050565b60006200021b82620001ee565b9050919050565b6200022d816200020e565b81146200023957600080fd5b50565b6000815190506200024d8162000222565b92915050565b6000602082840312156200026c576200026b620001e9565b5b60006200027c848285016200023c565b91505092915050565b62000290816200020e565b82525050565b6000602082019050620002ad600083018462000285565b92915050565b61573f80620002c36000396000f3fe6080604052600436106101095760003560e01c8063a60dc38a11610095578063c921147f11610064578063c921147f1461038e578063cff286d4146103cb578063d9cc3d1a146103f4578063f62459fd1461041d578063fb9f9bb71461045a57610109565b8063a60dc38a146102ae578063b23ac000146102eb578063ba2961a414610314578063ba36012a1461035157610109565b8063449b6d3d116100dc578063449b6d3d146101da5780635af7d786146102175780637e4bec70146102405780639f79a7f214610269578063a0fe76fb1461029257610109565b80631c32c44c1461010e578063227da9f51461013757806325e0108f146101745780633d4a5ca71461019d575b600080fd5b34801561011a57600080fd5b5061013560048036038101906101309190613b57565b610483565b005b34801561014357600080fd5b5061015e60048036038101906101599190613b57565b61075b565b60405161016b9190613c8d565b60405180910390f35b34801561018057600080fd5b5061019b60048036038101906101969190613b57565b6109a5565b005b3480156101a957600080fd5b506101c460048036038101906101bf9190613b57565b610bbf565b6040516101d19190613d99565b60405180910390f35b3480156101e657600080fd5b5061020160048036038101906101fc9190613de7565b610ccc565b60405161020e9190613ff3565b60405180910390f35b34801561022357600080fd5b5061023e60048036038101906102399190614015565b610f87565b005b34801561024c57600080fd5b5061026760048036038101906102629190614015565b6114b8565b005b34801561027557600080fd5b50610290600480360381019061028b9190614015565b6119a6565b005b6102ac60048036038101906102a79190613b57565b611c44565b005b3480156102ba57600080fd5b506102d560048036038101906102d09190613b57565b6121bc565b6040516102e29190614064565b60405180910390f35b3480156102f757600080fd5b50610312600480360381019061030d919061407f565b6121d9565b005b34801561032057600080fd5b5061033b60048036038101906103369190613b57565b61270d565b6040516103489190613ff3565b60405180910390f35b34801561035d57600080fd5b5061037860048036038101906103739190613b57565b61299c565b60405161038591906140e1565b60405180910390f35b34801561039a57600080fd5b506103b560048036038101906103b091906140fc565b612d56565b6040516103c29190614064565b60405180910390f35b3480156103d757600080fd5b506103f260048036038101906103ed9190613b57565b612d87565b005b34801561040057600080fd5b5061041b6004803603810190610416919061413c565b6130cf565b005b34801561042957600080fd5b50610444600480360381019061043f9190613de7565b6133f4565b6040516104519190613ff3565b60405180910390f35b34801561046657600080fd5b50610481600480360381019061047c9190613b57565b6136af565b005b6000600282815481106104995761049861417c565b5b90600052602060002090600902019050600160068111156104bd576104bc613bd4565b5b8160080160019054906101000a900460ff1660068111156104e1576104e0613bd4565b5b14806105225750600460068111156104fc576104fb613bd4565b5b8160080160019054906101000a900460ff1660068111156105205761051f613bd4565b5b145b610561576040517f08c379a00000000000000000000000000000000000000000000000000000000081526004016105589061422e565b60405180910390fd5b3373ffffffffffffffffffffffffffffffffffffffff168160040160009054906101000a900473ffffffffffffffffffffffffffffffffffffffff1673ffffffffffffffffffffffffffffffffffffffff16146105f3576040517f08c379a00000000000000000000000000000000000000000000000000000000081526004016105ea906142c0565b60405180910390fd5b60068160080160016101000a81548160ff0219169083600681111561061b5761061a613bd4565b5b0217905550600080600090505b6005600084600001548152602001908152602001600020805490508110156106f3573373ffffffffffffffffffffffffffffffffffffffff166005600085600001548152602001908152602001600020828154811061068a5761068961417c565b5b906000526020600020906003020160000160009054906101000a900473ffffffffffffffffffffffffffffffffffffffff1673ffffffffffffffffffffffffffffffffffffffff16036106e057600191506106f3565b80806106eb9061430f565b915050610628565b600580600085600001548152602001908152602001600020828154811061071d5761071c61417c565b5b906000526020600020906003020160020160006101000a81548160ff021916908360078111156107505761074f613bd4565b5b021790555050505050565b610763613a31565b600080600090505b600560008581526020019081526020016000208054905081101561082e573373ffffffffffffffffffffffffffffffffffffffff166005600086815260200190815260200160002082815481106107c5576107c461417c565b5b906000526020600020906003020160000160009054906101000a900473ffffffffffffffffffffffffffffffffffffffff1673ffffffffffffffffffffffffffffffffffffffff160361081b576001915061082e565b80806108269061430f565b91505061076b565b600115158215150361095557604051806060016040528060056000878152602001908152602001600020838154811061086a5761086961417c565b5b906000526020600020906003020160000160009054906101000a900473ffffffffffffffffffffffffffffffffffffffff1673ffffffffffffffffffffffffffffffffffffffff1681526020016005600087815260200190815260200160002083815481106108dc576108db61417c565b5b90600052602060002090600302016001015481526020016005600087815260200190815260200160002083815481106109185761091761417c565b5b906000526020600020906003020160020160009054906101000a900460ff16600781111561094957610948613bd4565b5b815250925050506109a0565b6040518060600160405280600073ffffffffffffffffffffffffffffffffffffffff168152602001600081526020016000600781111561099857610997613bd4565b5b815250925050505b919050565b6000600282815481106109bb576109ba61417c565b5b90600052602060002090600902019050600060068111156109df576109de613bd4565b5b8160080160019054906101000a900460ff166006811115610a0357610a02613bd4565b5b14610a43576040517f08c379a0000000000000000000000000000000000000000000000000000000008152600401610a3a9061422e565b60405180910390fd5b600080600090505b600560008460000154815260200190815260200160002080549050811015610b16573373ffffffffffffffffffffffffffffffffffffffff1660056000856000015481526020019081526020016000208281548110610aad57610aac61417c565b5b906000526020600020906003020160000160009054906101000a900473ffffffffffffffffffffffffffffffffffffffff1673ffffffffffffffffffffffffffffffffffffffff1603610b035760019150610b16565b8080610b0e9061430f565b915050610a4b565b81610b56576040517f08c379a0000000000000000000000000000000000000000000000000000000008152600401610b4d906143a3565b60405180910390fd5b600160056000856000015481526020019081526020016000208281548110610b8157610b8061417c565b5b906000526020600020906003020160020160006101000a81548160ff02191690836007811115610bb457610bb3613bd4565b5b021790555050505050565b606060056000838152602001908152602001600020805480602002602001604051908101604052809291908181526020016000905b82821015610cc157838290600052602060002090600302016040518060600160405290816000820160009054906101000a900473ffffffffffffffffffffffffffffffffffffffff1673ffffffffffffffffffffffffffffffffffffffff1673ffffffffffffffffffffffffffffffffffffffff168152602001600182015481526020016002820160009054906101000a900460ff166007811115610c9c57610c9b613bd4565b5b6007811115610cae57610cad613bd4565b5b8152505081526020019060010190610bf4565b505050509050919050565b60606000600460008473ffffffffffffffffffffffffffffffffffffffff1673ffffffffffffffffffffffffffffffffffffffff168152602001908152602001600020805480602002602001604051908101604052809291908181526020018280548015610d5957602002820191906000526020600020905b815481526020019060010190808311610d45575b505050505090506000815167ffffffffffffffff811115610d7d57610d7c6143c3565b5b604051908082528060200260200182016040528015610db657816020015b610da3613a7a565b815260200190600190039081610d9b5790505b50905060005b8251811015610f7c576002838281518110610dda57610dd961417c565b5b602002602001015181548110610df357610df261417c565b5b906000526020600020906009020160405180610140016040529081600082015481526020016001820160009054906101000a900473ffffffffffffffffffffffffffffffffffffffff1673ffffffffffffffffffffffffffffffffffffffff1673ffffffffffffffffffffffffffffffffffffffff16815260200160028201548152602001600382015481526020016004820160009054906101000a900473ffffffffffffffffffffffffffffffffffffffff1673ffffffffffffffffffffffffffffffffffffffff1673ffffffffffffffffffffffffffffffffffffffff1681526020016005820154815260200160068201548152602001600782015481526020016008820160009054906101000a900460ff161515151581526020016008820160019054906101000a900460ff166006811115610f3557610f34613bd4565b5b6006811115610f4757610f46613bd4565b5b81525050828281518110610f5e57610f5d61417c565b5b60200260200101819052508080610f749061430f565b915050610dbc565b508092505050919050565b60008054906101000a900473ffffffffffffffffffffffffffffffffffffffff1673ffffffffffffffffffffffffffffffffffffffff1663fbb62fe7836040518263ffffffff1660e01b8152600401610fe09190614064565b600060405180830381865afa158015610ffd573d6000803e3d6000fd5b505050506040513d6000823e3d601f19601f8201168201806040525081019061102691906146d7565b6080015173ffffffffffffffffffffffffffffffffffffffff163373ffffffffffffffffffffffffffffffffffffffff1614611097576040517f08c379a000000000000000000000000000000000000000000000000000000000815260040161108e90614792565b60405180910390fd5b6000600660008060009054906101000a900473ffffffffffffffffffffffffffffffffffffffff1673ffffffffffffffffffffffffffffffffffffffff1663fbb62fe7866040518263ffffffff1660e01b81526004016110f79190614064565b600060405180830381865afa158015611114573d6000803e3d6000fd5b505050506040513d6000823e3d601f19601f8201168201806040525081019061113d91906146d7565b6020015181526020019081526020016000209050806002805490509080600181540180825580915050600190039060005260206000200160009091909190915055611187826121bc565b9150600060405180610140016040528060028054905081526020013373ffffffffffffffffffffffffffffffffffffffff168152602001848152602001858152602001600073ffffffffffffffffffffffffffffffffffffffff1681526020016000815260200160008152602001600081526020016000151581526020016000600681111561121957611218613bd4565b5b815250905060028190806001815401808255809150506001900390600052602060002090600902016000909190919091506000820151816000015560208201518160010160006101000a81548173ffffffffffffffffffffffffffffffffffffffff021916908373ffffffffffffffffffffffffffffffffffffffff160217905550604082015181600201556060820151816003015560808201518160040160006101000a81548173ffffffffffffffffffffffffffffffffffffffff021916908373ffffffffffffffffffffffffffffffffffffffff16021790555060a0820151816005015560c0820151816006015560e082015181600701556101008201518160080160006101000a81548160ff0219169083151502179055506101208201518160080160016101000a81548160ff0219169083600681111561136157611360613bd4565b5b02179055505050600360003373ffffffffffffffffffffffffffffffffffffffff1673ffffffffffffffffffffffffffffffffffffffff1681526020019081526020016000208160000151908060018154018082558091505060019003906000526020600020016000909190919091505560008054906101000a900473ffffffffffffffffffffffffffffffffffffffff1673ffffffffffffffffffffffffffffffffffffffff16639bcff9ba85336040518363ffffffff1660e01b815260040161142d9291906147c1565b600060405180830381600087803b15801561144757600080fd5b505af115801561145b573d6000803e3d6000fd5b50505050833373ffffffffffffffffffffffffffffffffffffffff167f2e3f92a5fda60f34892d89d5b35c9d5fced8bf480fa1c3c7acf0504950f4f16483600001516040516114aa9190614064565b60405180910390a350505050565b6000600283815481106114ce576114cd61417c565b5b906000526020600020906009020190506000816003015403611525576040517f08c379a000000000000000000000000000000000000000000000000000000000815260040161151c90614836565b60405180910390fd5b6000600681111561153957611538613bd4565b5b8160080160019054906101000a900460ff16600681111561155d5761155c613bd4565b5b1461159d576040517f08c379a0000000000000000000000000000000000000000000000000000000008152600401611594906148a2565b60405180910390fd5b600080600090505b600560008460000154815260200190815260200160002080549050811015611670573373ffffffffffffffffffffffffffffffffffffffff16600560008560000154815260200190815260200160002082815481106116075761160661417c565b5b906000526020600020906003020160000160009054906101000a900473ffffffffffffffffffffffffffffffffffffffff1673ffffffffffffffffffffffffffffffffffffffff160361165d5760019150611670565b80806116689061430f565b9150506115a5565b816116b0576040517f08c379a00000000000000000000000000000000000000000000000000000000081526004016116a790614934565b60405180910390fd5b600060078111156116c4576116c3613bd4565b5b600560008560000154815260200190815260200160002082815481106116ed576116ec61417c565b5b906000526020600020906003020160020160009054906101000a900460ff16600781111561171e5761171d613bd4565b5b0361175e576040517f08c379a0000000000000000000000000000000000000000000000000000000008152600401611755906149c6565b60405180910390fd5b6002600781111561177257611771613bd4565b5b6005600085600001548152602001908152602001600020828154811061179b5761179a61417c565b5b906000526020600020906003020160020160009054906101000a900460ff1660078111156117cc576117cb613bd4565b5b0361180c576040517f08c379a0000000000000000000000000000000000000000000000000000000008152600401611803906149c6565b60405180910390fd5b600660078111156118205761181f613bd4565b5b600560008560000154815260200190815260200160002082815481106118495761184861417c565b5b906000526020600020906003020160020160009054906101000a900460ff16600781111561187a57611879613bd4565b5b036118ba576040517f08c379a00000000000000000000000000000000000000000000000000000000081526004016118b1906149c6565b60405180910390fd5b6006600560008560000154815260200190815260200160002082815481106118e5576118e461417c565b5b906000526020600020906003020160020160006101000a81548160ff0219169083600781111561191857611917613bd4565b5b0217905550611926846121bc565b6005600085600001548152602001908152602001600020828154811061194f5761194e61417c565b5b9060005260206000209060030201600101819055507fc8563b268bdb427da3059ff194f3e6f4c1da1ed37cd2ed6b90993415398f6bda853386604051611997939291906149e6565b60405180910390a15050505050565b6000600283815481106119bc576119bb61417c565b5b906000526020600020906009020190506000816003015403611a13576040517f08c379a0000000000000000000000000000000000000000000000000000000008152600401611a0a90614836565b60405180910390fd5b60006006811115611a2757611a26613bd4565b5b8160080160019054906101000a900460ff166006811115611a4b57611a4a613bd4565b5b14611a8b576040517f08c379a0000000000000000000000000000000000000000000000000000000008152600401611a8290614a8f565b60405180910390fd5b600560008260000154815260200190815260200160002060405180606001604052803373ffffffffffffffffffffffffffffffffffffffff168152602001611ad2856121bc565b815260200160006007811115611aeb57611aea613bd4565b5b815250908060018154018082558091505060019003906000526020600020906003020160009091909190915060008201518160000160006101000a81548173ffffffffffffffffffffffffffffffffffffffff021916908373ffffffffffffffffffffffffffffffffffffffff1602179055506020820151816001015560408201518160020160006101000a81548160ff02191690836007811115611b9357611b92613bd4565b5b02179055505050600460003373ffffffffffffffffffffffffffffffffffffffff1673ffffffffffffffffffffffffffffffffffffffff168152602001908152602001600020816000015490806001815401808255809150506001900390600052602060002001600090919091909150557fc8563b268bdb427da3059ff194f3e6f4c1da1ed37cd2ed6b90993415398f6bda833384604051611c37939291906149e6565b60405180910390a1505050565b600060028281548110611c5a57611c5961417c565b5b906000526020600020906009020190508060040160009054906101000a900473ffffffffffffffffffffffffffffffffffffffff1673ffffffffffffffffffffffffffffffffffffffff163373ffffffffffffffffffffffffffffffffffffffff1614611cfc576040517f08c379a0000000000000000000000000000000000000000000000000000000008152600401611cf390614b21565b60405180910390fd5b80600501543414611d42576040517f08c379a0000000000000000000000000000000000000000000000000000000008152600401611d3990614bb3565b60405180910390fd5b8060070154421115611d89576040517f08c379a0000000000000000000000000000000000000000000000000000000008152600401611d8090614c1f565b60405180910390fd5b600080600090505b600560008460000154815260200190815260200160002080549050811015611e5c573373ffffffffffffffffffffffffffffffffffffffff1660056000856000015481526020019081526020016000208281548110611df357611df261417c565b5b906000526020600020906003020160000160009054906101000a900473ffffffffffffffffffffffffffffffffffffffff1673ffffffffffffffffffffffffffffffffffffffff1603611e495760019150611e5c565b8080611e549061430f565b915050611d91565b81611e9c576040517f08c379a0000000000000000000000000000000000000000000000000000000008152600401611e9390614934565b60405180910390fd5b8260010160009054906101000a900473ffffffffffffffffffffffffffffffffffffffff1673ffffffffffffffffffffffffffffffffffffffff166108fc349081150290604051600060405180830381858888f19350505050158015611f06573d6000803e3d6000fd5b50600160009054906101000a900473ffffffffffffffffffffffffffffffffffffffff1673ffffffffffffffffffffffffffffffffffffffff166329507f738460030154336040518363ffffffff1660e01b8152600401611f689291906147c1565b600060405180830381600087803b158015611f8257600080fd5b505af1158015611f96573d6000803e3d6000fd5b50505050600760056000856000015481526020019081526020016000208281548110611fc557611fc461417c565b5b906000526020600020906003020160020160006101000a81548160ff02191690836007811115611ff857611ff7613bd4565b5b021790555060008060009054906101000a900473ffffffffffffffffffffffffffffffffffffffff1673ffffffffffffffffffffffffffffffffffffffff1663fbb62fe785600301546040518263ffffffff1660e01b815260040161205d9190614064565b600060405180830381865afa15801561207a573d6000803e3d6000fd5b505050506040513d6000823e3d601f19601f820116820180604052508101906120a391906146d7565b6020015190506000600660008381526020019081526020016000209050600092505b80805490508310156121875784600001548184815481106120e9576120e861417c565b5b90600052602060002001540361217457806001828054905061210b9190614c3f565b8154811061211c5761211b61417c565b5b906000526020600020015481848154811061213a5761213961417c565b5b90600052602060002001819055508080548061215957612158614c73565b5b60019003818190600052602060002001600090559055612187565b828061217f9061430f565b9350506120c5565b60038560080160016101000a81548160ff021916908360068111156121af576121ae613bd4565b5b0217905550505050505050565b6000670de0b6b3a7640000826121d29190614ca2565b9050919050565b6121e2816121bc565b90506000600284815481106121fa576121f961417c565b5b906000526020600020906009020190506000816003015403612251576040517f08c379a000000000000000000000000000000000000000000000000000000000815260040161224890614836565b60405180910390fd5b6000600681111561226557612264613bd4565b5b8160080160019054906101000a900460ff16600681111561228957612288613bd4565b5b146122c9576040517f08c379a00000000000000000000000000000000000000000000000000000000081526004016122c0906148a2565b60405180910390fd5b60008054906101000a900473ffffffffffffffffffffffffffffffffffffffff1673ffffffffffffffffffffffffffffffffffffffff1663fbb62fe782600301546040518263ffffffff1660e01b81526004016123269190614064565b600060405180830381865afa158015612343573d6000803e3d6000fd5b505050506040513d6000823e3d601f19601f8201168201806040525081019061236c91906146d7565b6080015173ffffffffffffffffffffffffffffffffffffffff163373ffffffffffffffffffffffffffffffffffffffff16146123dd576040517f08c379a00000000000000000000000000000000000000000000000000000000081526004016123d490614d56565b60405180910390fd5b60006005600083600001548152602001908152602001600020805490501161243a576040517f08c379a000000000000000000000000000000000000000000000000000000000815260040161243190614dc2565b60405180910390fd5b600080600090505b60056000846000015481526020019081526020016000208054905081101561250d578473ffffffffffffffffffffffffffffffffffffffff16600560008560000154815260200190815260200160002082815481106124a4576124a361417c565b5b906000526020600020906003020160000160009054906101000a900473ffffffffffffffffffffffffffffffffffffffff1673ffffffffffffffffffffffffffffffffffffffff16036124fa576001915061250d565b80806125059061430f565b915050612442565b8161254d576040517f08c379a000000000000000000000000000000000000000000000000000000000815260040161254490614e54565b60405180910390fd5b600560008460000154815260200190815260200160002081815481106125765761257561417c565b5b90600052602060002090600302016001015484146125c9576040517f08c379a00000000000000000000000000000000000000000000000000000000081526004016125c090614ee6565b60405180910390fd5b848360040160006101000a81548173ffffffffffffffffffffffffffffffffffffffff021916908373ffffffffffffffffffffffffffffffffffffffff16021790555083836005018190555042836006018190555061012c4261262c9190614f06565b836007018190555060018360080160016101000a81548160ff0219169083600681111561265c5761265b613bd4565b5b021790555060026005600085600001548152602001908152602001600020828154811061268c5761268b61417c565b5b906000526020600020906003020160020160006101000a81548160ff021916908360078111156126bf576126be613bd4565b5b02179055507f36a90be4cc85a10604516d70cdf8d7fa5f0b470e9dc0f6ba6de9a74cae9546f386868686600701546040516126fd9493929190614f3a565b60405180910390a1505050505050565b606060006006600084815260200190815260200160002080548060200260200160405190810160405280929190818152602001828054801561276e57602002820191906000526020600020905b81548152602001906001019080831161275a575b505050505090506000815167ffffffffffffffff811115612792576127916143c3565b5b6040519080825280602002602001820160405280156127cb57816020015b6127b8613a7a565b8152602001906001900390816127b05790505b50905060005b82518110156129915760028382815181106127ef576127ee61417c565b5b6020026020010151815481106128085761280761417c565b5b906000526020600020906009020160405180610140016040529081600082015481526020016001820160009054906101000a900473ffffffffffffffffffffffffffffffffffffffff1673ffffffffffffffffffffffffffffffffffffffff1673ffffffffffffffffffffffffffffffffffffffff16815260200160028201548152602001600382015481526020016004820160009054906101000a900473ffffffffffffffffffffffffffffffffffffffff1673ffffffffffffffffffffffffffffffffffffffff1673ffffffffffffffffffffffffffffffffffffffff1681526020016005820154815260200160068201548152602001600782015481526020016008820160009054906101000a900460ff161515151581526020016008820160019054906101000a900460ff16600681111561294a57612949613bd4565b5b600681111561295c5761295b613bd4565b5b815250508282815181106129735761297261417c565b5b602002602001018190525080806129899061430f565b9150506127d1565b508092505050919050565b600080600283815481106129b3576129b261417c565b5b906000526020600020906009020190503373ffffffffffffffffffffffffffffffffffffffff168160010160009054906101000a900473ffffffffffffffffffffffffffffffffffffffff1673ffffffffffffffffffffffffffffffffffffffff1614612a55576040517f08c379a0000000000000000000000000000000000000000000000000000000008152600401612a4c90614ff1565b60405180910390fd5b8060080160009054906101000a900460ff1615612aa7576040517f08c379a0000000000000000000000000000000000000000000000000000000008152600401612a9e9061505d565b60405180910390fd5b60036006811115612abb57612aba613bd4565b5b8160080160019054906101000a900460ff166006811115612adf57612ade613bd4565b5b03612b1f576040517f08c379a0000000000000000000000000000000000000000000000000000000008152600401612b16906150ef565b60405180910390fd5b60026006811115612b3357612b32613bd4565b5b8160080160019054906101000a900460ff166006811115612b5757612b56613bd4565b5b03612b97576040517f08c379a0000000000000000000000000000000000000000000000000000000008152600401612b8e9061515b565b60405180910390fd5b60016006811115612bab57612baa613bd4565b5b8160080160019054906101000a900460ff166006811115612bcf57612bce613bd4565b5b03612c0f576040517f08c379a0000000000000000000000000000000000000000000000000000000008152600401612c0690615213565b60405180910390fd5b60028160080160016101000a81548160ff02191690836006811115612c3757612c36613bd4565b5b021790555060008160040160006101000a81548173ffffffffffffffffffffffffffffffffffffffff021916908373ffffffffffffffffffffffffffffffffffffffff16021790555060008160050181905550600081600601819055506000816007018190555060008160080160006101000a81548160ff02191690831515021790555060008054906101000a900473ffffffffffffffffffffffffffffffffffffffff1673ffffffffffffffffffffffffffffffffffffffff16632bdbfce08260030154336040518363ffffffff1660e01b8152600401612d1a9291906147c1565b600060405180830381600087803b158015612d3457600080fd5b505af1158015612d48573d6000803e3d6000fd5b505050506001915050919050565b60046020528160005260406000208181548110612d7257600080fd5b90600052602060002001600091509150505481565b600060028281548110612d9d57612d9c61417c565b5b906000526020600020906009020190503373ffffffffffffffffffffffffffffffffffffffff168160010160009054906101000a900473ffffffffffffffffffffffffffffffffffffffff1673ffffffffffffffffffffffffffffffffffffffff1614612e3f576040517f08c379a0000000000000000000000000000000000000000000000000000000008152600401612e36906152a5565b60405180910390fd5b60006006811115612e5357612e52613bd4565b5b8160080160019054906101000a900460ff166006811115612e7757612e76613bd4565b5b03612eb7576040517f08c379a0000000000000000000000000000000000000000000000000000000008152600401612eae90615311565b60405180910390fd5b60026006811115612ecb57612eca613bd4565b5b8160080160019054906101000a900460ff166006811115612eef57612eee613bd4565b5b03612f2f576040517f08c379a0000000000000000000000000000000000000000000000000000000008152600401612f26906153a3565b60405180910390fd5b60016006811115612f4357612f42613bd4565b5b8160080160019054906101000a900460ff166006811115612f6757612f66613bd4565b5b03612fa7576040517f08c379a0000000000000000000000000000000000000000000000000000000008152600401612f9e906153a3565b60405180910390fd5b60036006811115612fbb57612fba613bd4565b5b8160080160019054906101000a900460ff166006811115612fdf57612fde613bd4565b5b0361301f576040517f08c379a000000000000000000000000000000000000000000000000000000000815260040161301690615435565b60405180910390fd5b60008160080160016101000a81548160ff0219169083600681111561304757613046613bd4565b5b021790555060008160040160006101000a81548173ffffffffffffffffffffffffffffffffffffffff021916908373ffffffffffffffffffffffffffffffffffffffff16021790555060008160050181905550600081600601819055506000816007018190555060008160080160006101000a81548160ff0219169083151502179055505050565b6000600283815481106130e5576130e461417c565b5b906000526020600020906009020190503373ffffffffffffffffffffffffffffffffffffffff168160010160009054906101000a900473ffffffffffffffffffffffffffffffffffffffff1673ffffffffffffffffffffffffffffffffffffffff1614613187576040517f08c379a000000000000000000000000000000000000000000000000000000000815260040161317e906154a1565b60405180910390fd5b6002600681111561319b5761319a613bd4565b5b8160080160019054906101000a900460ff1660068111156131bf576131be613bd4565b5b036131ff576040517f08c379a00000000000000000000000000000000000000000000000000000000081526004016131f690615533565b60405180910390fd5b6003600681111561321357613212613bd4565b5b8160080160019054906101000a900460ff16600681111561323757613236613bd4565b5b03613277576040517f08c379a000000000000000000000000000000000000000000000000000000000815260040161326e906155c5565b60405180910390fd5b600080600090505b60056000846000015481526020019081526020016000208054905081101561334a578373ffffffffffffffffffffffffffffffffffffffff16600560008560000154815260200190815260200160002082815481106132e1576132e061417c565b5b906000526020600020906003020160000160009054906101000a900473ffffffffffffffffffffffffffffffffffffffff1673ffffffffffffffffffffffffffffffffffffffff1603613337576001915061334a565b80806133429061430f565b91505061327f565b8161338a576040517f08c379a000000000000000000000000000000000000000000000000000000000815260040161338190615657565b60405180910390fd5b6003600560008560000154815260200190815260200160002082815481106133b5576133b461417c565b5b906000526020600020906003020160020160006101000a81548160ff021916908360078111156133e8576133e7613bd4565b5b02179055505050505050565b60606000600360008473ffffffffffffffffffffffffffffffffffffffff1673ffffffffffffffffffffffffffffffffffffffff16815260200190815260200160002080548060200260200160405190810160405280929190818152602001828054801561348157602002820191906000526020600020905b81548152602001906001019080831161346d575b505050505090506000815167ffffffffffffffff8111156134a5576134a46143c3565b5b6040519080825280602002602001820160405280156134de57816020015b6134cb613a7a565b8152602001906001900390816134c35790505b50905060005b82518110156136a45760028382815181106135025761350161417c565b5b60200260200101518154811061351b5761351a61417c565b5b906000526020600020906009020160405180610140016040529081600082015481526020016001820160009054906101000a900473ffffffffffffffffffffffffffffffffffffffff1673ffffffffffffffffffffffffffffffffffffffff1673ffffffffffffffffffffffffffffffffffffffff16815260200160028201548152602001600382015481526020016004820160009054906101000a900473ffffffffffffffffffffffffffffffffffffffff1673ffffffffffffffffffffffffffffffffffffffff1673ffffffffffffffffffffffffffffffffffffffff1681526020016005820154815260200160068201548152602001600782015481526020016008820160009054906101000a900460ff161515151581526020016008820160019054906101000a900460ff16600681111561365d5761365c613bd4565b5b600681111561366f5761366e613bd4565b5b815250508282815181106136865761368561417c565b5b6020026020010181905250808061369c9061430f565b9150506134e4565b508092505050919050565b6000600282815481106136c5576136c461417c565b5b90600052602060002090600902019050600160068111156136e9576136e8613bd4565b5b8160080160019054906101000a900460ff16600681111561370d5761370c613bd4565b5b148061374e57506004600681111561372857613727613bd4565b5b8160080160019054906101000a900460ff16600681111561374c5761374b613bd4565b5b145b61378d576040517f08c379a00000000000000000000000000000000000000000000000000000000081526004016137849061422e565b60405180910390fd5b3373ffffffffffffffffffffffffffffffffffffffff168160010160009054906101000a900473ffffffffffffffffffffffffffffffffffffffff1673ffffffffffffffffffffffffffffffffffffffff161461381f576040517f08c379a0000000000000000000000000000000000000000000000000000000008152600401613816906156e9565b60405180910390fd5b60008160040160009054906101000a900473ffffffffffffffffffffffffffffffffffffffff16905060058260080160016101000a81548160ff021916908360068111156138705761386f613bd4565b5b021790555060008260040160006101000a81548173ffffffffffffffffffffffffffffffffffffffff021916908373ffffffffffffffffffffffffffffffffffffffff16021790555060008260050181905550600082600601819055506000826007018190555060008260080160006101000a81548160ff021916908315150217905550600080600090505b6005600085600001548152602001908152602001600020805490508110156139c7578273ffffffffffffffffffffffffffffffffffffffff166005600086600001548152602001908152602001600020828154811061395e5761395d61417c565b5b906000526020600020906003020160000160009054906101000a900473ffffffffffffffffffffffffffffffffffffffff1673ffffffffffffffffffffffffffffffffffffffff16036139b457600191506139c7565b80806139bf9061430f565b9150506138fc565b6004600560008660000154815260200190815260200160002082815481106139f2576139f161417c565b5b906000526020600020906003020160020160006101000a81548160ff02191690836007811115613a2557613a24613bd4565b5b02179055505050505050565b6040518060600160405280600073ffffffffffffffffffffffffffffffffffffffff1681526020016000815260200160006007811115613a7457613a73613bd4565b5b81525090565b60405180610140016040528060008152602001600073ffffffffffffffffffffffffffffffffffffffff1681526020016000815260200160008152602001600073ffffffffffffffffffffffffffffffffffffffff16815260200160008152602001600081526020016000815260200160001515815260200160006006811115613b0757613b06613bd4565b5b81525090565b6000604051905090565b600080fd5b600080fd5b6000819050919050565b613b3481613b21565b8114613b3f57600080fd5b50565b600081359050613b5181613b2b565b92915050565b600060208284031215613b6d57613b6c613b17565b5b6000613b7b84828501613b42565b91505092915050565b600073ffffffffffffffffffffffffffffffffffffffff82169050919050565b6000613baf82613b84565b9050919050565b613bbf81613ba4565b82525050565b613bce81613b21565b82525050565b7f4e487b7100000000000000000000000000000000000000000000000000000000600052602160045260246000fd5b60088110613c1457613c13613bd4565b5b50565b6000819050613c2582613c03565b919050565b6000613c3582613c17565b9050919050565b613c4581613c2a565b82525050565b606082016000820151613c616000850182613bb6565b506020820151613c746020850182613bc5565b506040820151613c876040850182613c3c565b50505050565b6000606082019050613ca26000830184613c4b565b92915050565b600081519050919050565b600082825260208201905092915050565b6000819050602082019050919050565b606082016000820151613cea6000850182613bb6565b506020820151613cfd6020850182613bc5565b506040820151613d106040850182613c3c565b50505050565b6000613d228383613cd4565b60608301905092915050565b6000602082019050919050565b6000613d4682613ca8565b613d508185613cb3565b9350613d5b83613cc4565b8060005b83811015613d8c578151613d738882613d16565b9750613d7e83613d2e565b925050600181019050613d5f565b5085935050505092915050565b60006020820190508181036000830152613db38184613d3b565b905092915050565b613dc481613ba4565b8114613dcf57600080fd5b50565b600081359050613de181613dbb565b92915050565b600060208284031215613dfd57613dfc613b17565b5b6000613e0b84828501613dd2565b91505092915050565b600081519050919050565b600082825260208201905092915050565b6000819050602082019050919050565b60008115159050919050565b613e5581613e40565b82525050565b60078110613e6c57613e6b613bd4565b5b50565b6000819050613e7d82613e5b565b919050565b6000613e8d82613e6f565b9050919050565b613e9d81613e82565b82525050565b61014082016000820151613eba6000850182613bc5565b506020820151613ecd6020850182613bb6565b506040820151613ee06040850182613bc5565b506060820151613ef36060850182613bc5565b506080820151613f066080850182613bb6565b5060a0820151613f1960a0850182613bc5565b5060c0820151613f2c60c0850182613bc5565b5060e0820151613f3f60e0850182613bc5565b50610100820151613f54610100850182613e4c565b50610120820151613f69610120850182613e94565b50505050565b6000613f7b8383613ea3565b6101408301905092915050565b6000602082019050919050565b6000613fa082613e14565b613faa8185613e1f565b9350613fb583613e30565b8060005b83811015613fe6578151613fcd8882613f6f565b9750613fd883613f88565b925050600181019050613fb9565b5085935050505092915050565b6000602082019050818103600083015261400d8184613f95565b905092915050565b6000806040838503121561402c5761402b613b17565b5b600061403a85828601613b42565b925050602061404b85828601613b42565b9150509250929050565b61405e81613b21565b82525050565b60006020820190506140796000830184614055565b92915050565b60008060006060848603121561409857614097613b17565b5b60006140a686828701613b42565b93505060206140b786828701613dd2565b92505060406140c886828701613b42565b9150509250925092565b6140db81613e40565b82525050565b60006020820190506140f660008301846140d2565b92915050565b6000806040838503121561411357614112613b17565b5b600061412185828601613dd2565b925050602061413285828601613b42565b9150509250929050565b6000806040838503121561415357614152613b17565b5b600061416185828601613b42565b925050602061417285828601613dd2565b9150509250929050565b7f4e487b7100000000000000000000000000000000000000000000000000000000600052603260045260246000fd5b600082825260208201905092915050565b7f53616c6520737461746520646f6573206e6f7420616c6c6f772063616e63656c60008201527f6c6174696f6e0000000000000000000000000000000000000000000000000000602082015250565b60006142186026836141ab565b9150614223826141bc565b604082019050919050565b600060208201905081810360008301526142478161420b565b9050919050565b7f4e6f7420417574686f72697a656420746f2052656a656374204163636570746160008201527f6e63652052657175657374206f662053656c6c65720000000000000000000000602082015250565b60006142aa6035836141ab565b91506142b58261424e565b604082019050919050565b600060208201905081810360008301526142d98161429d565b9050919050565b7f4e487b7100000000000000000000000000000000000000000000000000000000600052601160045260246000fd5b600061431a82613b21565b91507fffffffffffffffffffffffffffffffffffffffffffffffffffffffffffffffff820361434c5761434b6142e0565b5b600182019050919050565b7f4f6e6c7920526571756573746564204275796572732063616e2063616e63656c600082015250565b600061438d6020836141ab565b915061439882614357565b602082019050919050565b600060208201905081810360008301526143bc81614380565b9050919050565b7f4e487b7100000000000000000000000000000000000000000000000000000000600052604160045260246000fd5b600080fd5b6000601f19601f8301169050919050565b614411826143f7565b810181811067ffffffffffffffff821117156144305761442f6143c3565b5b80604052505050565b6000614443613b0d565b905061444f8282614408565b919050565b600080fd5b60008151905061446881613b2b565b92915050565b60008151905061447d81613dbb565b92915050565b600080fd5b600080fd5b600067ffffffffffffffff8211156144a8576144a76143c3565b5b6144b1826143f7565b9050602081019050919050565b60005b838110156144dc5780820151818401526020810190506144c1565b60008484015250505050565b60006144fb6144f68461448d565b614439565b90508281526020810184848401111561451757614516614488565b5b6145228482856144be565b509392505050565b600082601f83011261453f5761453e614483565b5b815161454f8482602086016144e8565b91505092915050565b6006811061456557600080fd5b50565b60008151905061457781614558565b92915050565b60006101808284031215614594576145936143f2565b5b61459f610180614439565b905060006145af84828501614459565b60008301525060206145c384828501614459565b60208301525060406145d784828501614459565b60408301525060606145eb84828501614459565b60608301525060806145ff8482850161446e565b60808301525060a061461384828501614459565b60a08301525060c061462784828501614459565b60c08301525060e061463b84828501614459565b60e0830152506101006146508482850161446e565b6101008301525061012082015167ffffffffffffffff81111561467657614675614454565b5b6146828482850161452a565b6101208301525061014082015167ffffffffffffffff8111156146a8576146a7614454565b5b6146b48482850161452a565b610140830152506101606146ca84828501614568565b6101608301525092915050565b6000602082840312156146ed576146ec613b17565b5b600082015167ffffffffffffffff81111561470b5761470a613b1c565b5b6147178482850161457d565b91505092915050565b7f4f6e6c7920746865206f776e65722063616e20707574207468652070726f706560008201527f727479206f6e2073616c652e0000000000000000000000000000000000000000602082015250565b600061477c602c836141ab565b915061478782614720565b604082019050919050565b600060208201905081810360008301526147ab8161476f565b9050919050565b6147bb81613ba4565b82525050565b60006040820190506147d66000830185614055565b6147e360208301846147b2565b9392505050565b7f53616c6520646f6573206e6f7420657869737400000000000000000000000000600082015250565b60006148206013836141ab565b915061482b826147ea565b602082019050919050565b6000602082019050818103600083015261484f81614813565b9050919050565b7f53616c65206973204e6f74204163746976650000000000000000000000000000600082015250565b600061488c6012836141ab565b915061489782614856565b602082019050919050565b600060208201905081810360008301526148bb8161487f565b9050919050565b7f4275796572204e6f7420666f756e6420696e20526571756573746564204c697360008201527f7400000000000000000000000000000000000000000000000000000000000000602082015250565b600061491e6021836141ab565b9150614929826148c2565b604082019050919050565b6000602082019050818103600083015261494d81614911565b9050919050565b7f5374617465204e6f7420416c6c6f77656420746f2052652d73656e742050757260008201527f6368617365205265717565737400000000000000000000000000000000000000602082015250565b60006149b0602d836141ab565b91506149bb82614954565b604082019050919050565b600060208201905081810360008301526149df816149a3565b9050919050565b60006060820190506149fb6000830186614055565b614a0860208301856147b2565b614a156040830184614055565b949350505050565b7f50726f7065727479204e6f7420696e2041637469766520537461746520746f2060008201527f5075726368617365000000000000000000000000000000000000000000000000602082015250565b6000614a796028836141ab565b9150614a8482614a1d565b604082019050919050565b60006020820190508181036000830152614aa881614a6c565b9050919050565b7f4f6e6c792061636365707465642062757965722063616e20636f6d706c65746560008201527f207468652073616c650000000000000000000000000000000000000000000000602082015250565b6000614b0b6029836141ab565b9150614b1682614aaf565b604082019050919050565b60006020820190508181036000830152614b3a81614afe565b9050919050565b7f5061796d656e7420616d6f756e74206d75737420626520657175616c20746f2060008201527f6163636570746564207072696365000000000000000000000000000000000000602082015250565b6000614b9d602e836141ab565b9150614ba882614b41565b604082019050919050565b60006020820190508181036000830152614bcc81614b90565b9050919050565b7f5061796d656e7420646561646c696e6520686173207061737365640000000000600082015250565b6000614c09601b836141ab565b9150614c1482614bd3565b602082019050919050565b60006020820190508181036000830152614c3881614bfc565b9050919050565b6000614c4a82613b21565b9150614c5583613b21565b9250828203905081811115614c6d57614c6c6142e0565b5b92915050565b7f4e487b7100000000000000000000000000000000000000000000000000000000600052603160045260246000fd5b6000614cad82613b21565b9150614cb883613b21565b9250828202614cc681613b21565b91508282048414831517614cdd57614cdc6142e0565b5b5092915050565b7f4f6e6c7920746865206f776e65722063616e206163636570742074686520707560008201527f72636861736520726571756573742e0000000000000000000000000000000000602082015250565b6000614d40602f836141ab565b9150614d4b82614ce4565b604082019050919050565b60006020820190508181036000830152614d6f81614d33565b9050919050565b7f4e6f20627579657220726571756573747320666f756e64000000000000000000600082015250565b6000614dac6017836141ab565b9150614db782614d76565b602082019050919050565b60006020820190508181036000830152614ddb81614d9f565b9050919050565b7f4275796572206e6f7420666f756e6420696e207265717565737465642075736560008201527f7220617272617900000000000000000000000000000000000000000000000000602082015250565b6000614e3e6027836141ab565b9150614e4982614de2565b604082019050919050565b60006020820190508181036000830152614e6d81614e31565b9050919050565b7f50726963652073656e742062792073656c6c6572206e6f7420657175616c207460008201527f6f207072696365206f6666657265642062792062757965720000000000000000602082015250565b6000614ed06038836141ab565b9150614edb82614e74565b604082019050919050565b60006020820190508181036000830152614eff81614ec3565b9050919050565b6000614f1182613b21565b9150614f1c83613b21565b9250828201905080821115614f3457614f336142e0565b5b92915050565b6000608082019050614f4f6000830187614055565b614f5c60208301866147b2565b614f696040830185614055565b614f766060830184614055565b95945050505050565b7f4f6e6c792070726f7065727479206f776e65722063616e2063616e63656c207360008201527f616c650000000000000000000000000000000000000000000000000000000000602082015250565b6000614fdb6023836141ab565b9150614fe682614f7f565b604082019050919050565b6000602082019050818103600083015261500a81614fce565b9050919050565b7f5061796d656e742068617320616c7265616479206265656e206d616465000000600082015250565b6000615047601d836141ab565b915061505282615011565b602082019050919050565b600060208201905081810360008301526150768161503a565b9050919050565b7f5375636365737365642053616c652043616e27742062652043616e63656c656460008201527f2e00000000000000000000000000000000000000000000000000000000000000602082015250565b60006150d96021836141ab565b91506150e48261507d565b604082019050919050565b60006020820190508181036000830152615108816150cc565b9050919050565b7f53616c6520697320416c72656164792043616e63656c6c656400000000000000600082015250565b60006151456019836141ab565b91506151508261510f565b602082019050919050565b6000602082019050818103600083015261517481615138565b9050919050565b7f416363657074656420546f2042757965722c43616e27742043616e63656c205360008201527f616c652e506c656173652043616e63656c20416363657074616e63204669727360208201527f7400000000000000000000000000000000000000000000000000000000000000604082015250565b60006151fd6041836141ab565b91506152088261517b565b606082019050919050565b6000602082019050818103600083015261522c816151f0565b9050919050565b7f4f6e6c792070726f7065727479206f776e65722063616e2052652d616374697660008201527f6174650000000000000000000000000000000000000000000000000000000000602082015250565b600061528f6023836141ab565b915061529a82615233565b604082019050919050565b600060208201905081810360008301526152be81615282565b9050919050565b7f53616c6520697320416c726561647920696e2041637469766520537461746500600082015250565b60006152fb601f836141ab565b9150615306826152c5565b602082019050919050565b6000602082019050818103600083015261532a816152ee565b9050919050565b7f436c6f7365642053616c652063616e277420626520726561637469766174656460008201527f2e506c6561736520437265617465204e65772053616c65000000000000000000602082015250565b600061538d6037836141ab565b915061539882615331565b604082019050919050565b600060208201905081810360008301526153bc81615380565b9050919050565b7f5375636365737365642053616c652063616e277420626520726561637469766160008201527f7465642e00000000000000000000000000000000000000000000000000000000602082015250565b600061541f6024836141ab565b915061542a826153c3565b604082019050919050565b6000602082019050818103600083015261544e81615412565b9050919050565b7f4f6e6c79204f776e657220697320616c6c6f7765640000000000000000000000600082015250565b600061548b6015836141ab565b915061549682615455565b602082019050919050565b600060208201905081810360008301526154ba8161547e565b9050919050565b7f43616e277420646f206f7065726174696f6e206f6e2043616e63656c6564207360008201527f616c650000000000000000000000000000000000000000000000000000000000602082015250565b600061551d6023836141ab565b9150615528826154c1565b604082019050919050565b6000602082019050818103600083015261554c81615510565b9050919050565b7f43616e277420646f206f7065726174696f6e206f6e20436c6f7365642053616c60008201527f6500000000000000000000000000000000000000000000000000000000000000602082015250565b60006155af6021836141ab565b91506155ba82615553565b604082019050919050565b600060208201905081810360008301526155de816155a2565b9050919050565b7f4275796572206973206e6f742052657175657374656420746f2070757263686160008201527f7365000000000000000000000000000000000000000000000000000000000000602082015250565b60006156416022836141ab565b915061564c826155e5565b604082019050919050565b6000602082019050818103600083015261567081615634565b9050919050565b7f4e6f7420417574686f72697a656420746f2043616e63656c204163636570746160008201527f6e63652052657175657374206f66204275796572000000000000000000000000602082015250565b60006156d36034836141ab565b91506156de82615677565b604082019050919050565b60006020820190508181036000830152615702816156c6565b905091905056fea2646970667358221220f8b761e1c51436955d81a4893d59dfc9840ffbe6d674ef5247b52404edc8766d64736f6c63430008120033",
  "immutableReferences": {},
  "source": "// SPDX-License-Identifier: MIT\r\npragma solidity >=0.4.22 <0.9.0;\r\n\r\n\r\nimport \"./Property.sol\";\r\nimport \"./LandRegistry.sol\";\r\n\r\ncontract TransferOwnerShip{\r\n\r\n    // ######################################################################\r\n    //              TRANSFER OWNERSHIP OF PROPERTY\r\n    // ######################################################################\r\n    \r\n\r\n\r\n    Property private propertiesContract;\r\n    LandRegistry private LandRegistryContract;\r\n\r\n\r\n\r\n    constructor(address _landRegistryContractAddress){\r\n        // Creating Land Registry Object\r\n        LandRegistryContract = LandRegistry(_landRegistryContractAddress);\r\n        \r\n        address propertiesContractAddress = LandRegistryContract.getPropertiesContract();  \r\n        propertiesContract = Property(propertiesContractAddress);\r\n\r\n        LandRegistryContract.setTransferOwnershipContractAddress(address(this));\r\n    }\r\n   \r\n\r\n    \r\n    \r\n    // ******** Enumerators ************\r\n    \r\n    // Active :\r\n    //   on creation of sale by owner\r\n    \r\n    // AcceptedToABuyer :\r\n    //   on accepting a buyer request\r\n    \r\n    // CancelSaleBySeller   : \r\n    //   on canceling of sale by owner\r\n    \r\n    // DeadlineOverForPayment : \r\n    //   if payment deadline is over by buyer\r\n    \r\n    // Success :\r\n    //   on successful payment and ownership transfer \r\n    \r\n    // CancelAcceptanceRequestGivenBySeller : \r\n    //   seller has accepted purchase request of a buyer and later,seller again rejected it\r\n    \r\n    // RejectedAcceptanceRequestByBuyer : \r\n    //    Buyer rejected acceptance request given by seller\r\n\r\n    enum SaleState {\r\n        Active,  \r\n        AcceptedToABuyer,\r\n        CancelSaleBySeller,\r\n        Success,\r\n        DeadlineOverForPayment,\r\n        CancelAcceptanceRequestGivenBySeller,\r\n        RejectedAcceptanceRequestByBuyer\r\n\r\n    }\r\n\r\n    /*\r\n    // states of buyer that requested to purchase a sale\r\n   \r\n    // SentPurchaseRequest : \r\n    //   Buyer has sent purchase request to a seller\r\n    \r\n    // CancelPurchaseRequest :\r\n    //   Buyer wants to cancel purchase request sent. \r\n\r\n    // SellerAcceptedPurchaseRequest :\r\n    //   Seller Accepted Purchase Request of a Buyer\r\n\r\n    // SellerRejectedPurchaseRequest :\r\n    //    Seller Rejected Purchase Request \r\n\r\n    // SellerCanceledAcceptanceRequest :\r\n    //    Seller has canceled acceptance request granted.\r\n    //    Allowed to do before buyer done payment only.\r\n\r\n    // YouRejectedAcceptanceRequest :\r\n    //    Buyer himself/herself wants to rejecte acceptance request\r\n\r\n    // ReRequestedPurchaseRequest :\r\n    //    Buyer Re-requesting for purchase  \r\n    //    on deadlin over or owner may rejected by a reason.\r\n\r\n    */\r\n    enum RequestedUserToASaleState {\r\n        SentPurchaseRequest,\r\n        CancelPurchaseRequest,\r\n\r\n        SellerAcceptedPurchaseRequest,\r\n        SellerRejectedPurchaseRequest,\r\n\r\n        SellerCanceledAcceptanceRequest,\r\n        YouRejectedAcceptanceRequest,\r\n\r\n        ReRequestedPurchaseRequest,\r\n\r\n        SuccessfullyTransfered\r\n    }\r\n\r\n\r\n\r\n    // ****************** Structures ********************\r\n\r\n    struct RequestedUser {\r\n            address user;\r\n            uint256 priceOffered;\r\n            RequestedUserToASaleState state;\r\n    }\r\n\r\n\r\n    struct Sales {\r\n        uint256 saleId;\r\n        address owner;\r\n        uint256 price;\r\n        uint256 propertyId;\r\n        address acceptedFor;\r\n        uint256 acceptedPrice;\r\n        uint256 acceptedTime;\r\n        uint256 deadlineForPayment;\r\n        bool paymentDone;\r\n        SaleState state;\r\n    }\r\n\r\n\r\n    // *******  Public variables *********\r\n    Sales[] private sales;\r\n\r\n\r\n    // *********** MAPPINGS  *************\r\n    \r\n    // mapping of address and their properties which are on sale to sell.\r\n    mapping(address => uint256[]) private salesOfOwner;\r\n\r\n    // mapping of address and their requested properties to purchase\r\n    mapping(address => uint256[]) public requestedSales;\r\n\r\n    // mapping of sale id to requested user details\r\n    mapping(uint256 => RequestedUser[]) requestedUsers;\r\n        \r\n    // mapping of location to the sale id available to purchase\r\n    mapping(uint256 => uint256[]) private propertiesOnSaleByLocation;\r\n\r\n\r\n\r\n    // ********** EVENTS     *************\r\n    event PropertyOnSale(address indexed owner, uint256 indexed propertyId, uint256 saleId);\r\n\r\n    event PurchaseRequestSent(uint256 saleId, address requestedUser, uint256 priceOffered);\r\n\r\n    event SaleAccepted(uint256 saleId, address buyer, uint256 price, uint256 deadline);\r\n\r\n\r\n    // ************ FUNCTIONS ************\r\n\r\n    // Conversion function from Ether to Wei\r\n    function convertToWei(uint256 etherValue) public pure returns (uint256) {\r\n        return etherValue * 1 ether;\r\n    }\r\n\r\n\r\n    // add Property on Sale\r\n    function addPropertyOnSale(\r\n        uint256 _propertyId,\r\n        uint256 _price\r\n        ) public {\r\n        \r\n        require(msg.sender == propertiesContract.getLandDetailsAsStruct(_propertyId).owner, \"Only the owner can put the property on sale.\");\r\n\r\n        // add property id to list of properties that are available to sold on a loaction\r\n        uint256[] storage propertiesOnSale = propertiesOnSaleByLocation[propertiesContract.getLandDetailsAsStruct(_propertyId).locationId];\r\n        \r\n        propertiesOnSale.push(sales.length);\r\n\r\n        // converting price  from ether to wei format\r\n        _price = convertToWei(_price);\r\n\r\n        Sales memory newSale = Sales({\r\n            saleId: sales.length,\r\n            owner: msg.sender,\r\n            price: _price,\r\n            propertyId: _propertyId,\r\n            acceptedFor: address(0),\r\n            acceptedPrice: 0,\r\n            acceptedTime: 0,\r\n            deadlineForPayment: 0,\r\n            paymentDone : false,\r\n            state : SaleState.Active\r\n\r\n        });\r\n\r\n        sales.push(newSale);\r\n\r\n\r\n        // //Create a new storage array of the same length\r\n        // requestedUsers[newSale.saleId].push(\r\n        //     RequestedUser({\r\n        //         user : address(0),\r\n        //         priceOffered :0\r\n        //     })\r\n        // );\r\n\r\n\r\n        // add sale to the owner's sales array\r\n        salesOfOwner[msg.sender].push(newSale.saleId);\r\n\r\n        propertiesContract.changeStateToOnSale(_propertyId, msg.sender);\r\n\r\n        emit PropertyOnSale(msg.sender, _propertyId, newSale.saleId);\r\n    }\r\n\r\n\r\n    // function for getting all properties which are on sale of a owner\r\n    function getMySales(\r\n        address _owner\r\n        ) public view returns (Sales[] memory) {\r\n\r\n        uint256[] memory saleIds = salesOfOwner[_owner];\r\n        Sales[] memory ownerSales = new Sales[](saleIds.length);\r\n\r\n        for (uint256 i = 0; i < saleIds.length; i++) {\r\n            ownerSales[i] = sales[saleIds[i]];\r\n        }\r\n\r\n        return ownerSales;\r\n    }\r\n\r\n\r\n    // Function to get all requested user details\r\n    function getRequestedUsers(\r\n        uint256 saleId\r\n        ) public view returns (RequestedUser[] memory) {\r\n        return requestedUsers[saleId];\r\n    }\r\n\r\n\r\n    // function to get all my requested sales to purchase of a buyer\r\n    function getRequestedSales(\r\n        address _owner\r\n        ) public view returns (Sales[] memory) {\r\n\r\n        uint256[] memory saleIds = requestedSales[_owner];\r\n        Sales[] memory myRequestedSales = new Sales[](saleIds.length);\r\n\r\n        for (uint256 i = 0; i < saleIds.length; i++) {\r\n            myRequestedSales[i] = sales[saleIds[i]];\r\n        }\r\n\r\n        return myRequestedSales;\r\n    }\r\n\r\n\r\n    // function to return status of buyer reuest to purchase\r\n    // It returns partiuclar buyer details \r\n    // from requestedUser[saleid].\r\n    function getStatusOfPurchaseRequest(\r\n        uint256 _saleId\r\n        ) public view returns (RequestedUser memory) {\r\n\r\n        // Gettin index value of buyer in \r\n        // requestedUsers of a sale to purchase.\r\n        bool buyerFound = false;\r\n        uint i = 0;\r\n        for (i = 0; i < requestedUsers[_saleId].length; i++) \r\n        {\r\n            if (requestedUsers[_saleId][i].user == msg.sender) {\r\n                buyerFound = true;\r\n                break;\r\n            }\r\n        }\r\n\r\n\r\n        if(buyerFound == true){\r\n            return (RequestedUser({\r\n                user:requestedUsers[_saleId][i].user,\r\n                priceOffered:requestedUsers[_saleId][i].priceOffered, \r\n                state:requestedUsers[_saleId][i].state\r\n            }));\r\n        }\r\n        else\r\n        {\r\n            return (RequestedUser({\r\n                user:address(0),\r\n                priceOffered:0, \r\n                state:RequestedUserToASaleState.SentPurchaseRequest\r\n            }));\r\n        }\r\n        \r\n\r\n    }\r\n\r\n    // return all sales in that location\r\n    function getSalesByLocation(\r\n        uint256 locationId\r\n        ) public view returns (Sales[] memory) {\r\n        \r\n            uint256[] memory saleIds = propertiesOnSaleByLocation[locationId];\r\n            \r\n            Sales[] memory salesGoingOnThisLocation = new Sales[](saleIds.length);\r\n\r\n            for (uint256 i = 0; i < saleIds.length; i++) {\r\n                salesGoingOnThisLocation[i] = sales[saleIds[i]];\r\n            }\r\n            return salesGoingOnThisLocation;\r\n    }\r\n\r\n\r\n\r\n    // send purchase request to seller  to buy a land from buyer\r\n    function sendPurchaseRequest(\r\n        uint256 _saleId, \r\n        uint256 _priceOffered\r\n        ) public {\r\n    \r\n            // Get the sales details\r\n            Sales storage sale = sales[_saleId];\r\n            \r\n            // Make sure the sale exists\r\n            require(sale.propertyId != 0, \"Sale does not exist\");\r\n            \r\n            // Make Sure that Sale is not accepted \r\n            require(sale.state == SaleState.Active,\"Property Not in Active State to Purchase\");\r\n\r\n            // Add the request to the requested users array of sale\r\n            requestedUsers[sale.saleId].push(\r\n                RequestedUser({\r\n                user: msg.sender,\r\n                priceOffered: convertToWei(_priceOffered),\r\n                state: RequestedUserToASaleState.SentPurchaseRequest\r\n            }));\r\n            \r\n            // add sale id to myrequested sales\r\n            requestedSales[msg.sender].push(sale.saleId);\r\n\r\n            // Emit an event\r\n            emit PurchaseRequestSent(_saleId, msg.sender, _priceOffered);\r\n    }\r\n\r\n\r\n\r\n    // function to accept buyer request \r\n    function acceptBuyerRequest(\r\n        uint256 _saleId,\r\n        address _buyer,\r\n        uint256 _price\r\n        ) public {\r\n\r\n            _price = convertToWei(_price);\r\n\r\n            // Find the sale object by its ID\r\n            Sales storage sale = sales[_saleId];\r\n\r\n            // Make sure the sale exists\r\n            require(sale.propertyId != 0, \"Sale does not exist\");\r\n\r\n            // Make sure the sale exists\r\n            require(sale.state == SaleState.Active, \"Sale is Not Active\");\r\n\r\n\r\n            // Only owner of property can be allowed\r\n            require(msg.sender == propertiesContract.getLandDetailsAsStruct(sale.propertyId).owner, \"Only the owner can accept the purchase request.\");\r\n\r\n\r\n            // Make sure the buyer has made a request and the price is greater than or equal to the owner's set price\r\n            require(requestedUsers[sale.saleId].length > 0, \"No buyer requests found\");\r\n\r\n            // checking buyer has sent request or not\r\n            bool buyerFound = false;\r\n            uint i = 0;\r\n            for (i = 0; i < requestedUsers[sale.saleId].length; i++) {\r\n                if (requestedUsers[sale.saleId][i].user == _buyer) {\r\n                    buyerFound = true;\r\n                    break;\r\n                }\r\n            }\r\n            require(buyerFound, \"Buyer not found in requested user array\");\r\n\r\n            require(_price == requestedUsers[sale.saleId][i].priceOffered, \"Price sent by seller not equal to price offered by buyer\");\r\n\r\n\r\n\r\n            // Update the sale object with buyer information\r\n            sale.acceptedFor = _buyer;\r\n            sale.acceptedPrice = _price;\r\n            sale.acceptedTime = block.timestamp;\r\n            sale.deadlineForPayment = block.timestamp + 5 minutes;\r\n            \r\n            sale.state = SaleState.AcceptedToABuyer;\r\n\r\n\r\n            // Update the state of requested buyer\r\n            requestedUsers[sale.saleId][i].state = RequestedUserToASaleState.SellerAcceptedPurchaseRequest;\r\n\r\n\r\n            // // Remove the buyer request from the sale's requested users array\r\n            // for (uint i = 0; i < sale.requestedUsers.length; i++) {\r\n            //     if (sale.requestedUsers[i].requestedUser == _buyer) {\r\n            //         delete sale.requestedUsers[i];\r\n            //         sale.requestedUsers[i] = sale.requestedUsers[sale.requestedUsers.length - 1];\r\n            //         sale.requestedUsers.pop();\r\n            //         break;\r\n            //     }\r\n            // }\r\n\r\n            emit SaleAccepted(_saleId, _buyer, _price, sale.deadlineForPayment);\r\n    }\r\n\r\n\r\n    // function to canel sale created by seller\r\n    function cancelSaleBySeller(uint256 _saleId) public returns (bool){\r\n\r\n        Sales storage sale = sales[_saleId];\r\n        \r\n        require(sale.owner == msg.sender, \"Only property owner can cancel sale\");\r\n        require(!sale.paymentDone, \"Payment has already been made\");\r\n        require(sale.state != SaleState.Success, \"Successed Sale Can't be Canceled.\");\r\n        require(sale.state != SaleState.CancelSaleBySeller, \"Sale is Already Cancelled\");\r\n        require(sale.state != SaleState.AcceptedToABuyer, \"Accepted To Buyer,Can't Cancel Sale.Please Cancel Acceptanc First\");\r\n\r\n        sale.state = SaleState.CancelSaleBySeller;\r\n        sale.acceptedFor = address(0);\r\n        sale.acceptedPrice = 0;\r\n        sale.acceptedTime = 0;\r\n        sale.deadlineForPayment = 0;\r\n        sale.paymentDone = false;\r\n\r\n        // change state of property again back to verified\r\n        propertiesContract.changeStateBackToVerified(sale.propertyId, msg.sender);\r\n\r\n        return true;\r\n    }\r\n\r\n\r\n    // Reactive sale when deadline is over\r\n    function reactivateSale(uint256 _saleId) public {\r\n\r\n        Sales storage sale = sales[_saleId];\r\n\r\n        require(sale.owner == msg.sender, \"Only property owner can Re-activate\");\r\n        require(sale.state != SaleState.Active , \"Sale is Already in Active State\");\r\n        require(sale.state != SaleState.CancelSaleBySeller, \"Closed Sale can't be reactivated.Please Create New Sale\");\r\n        require(sale.state != SaleState.AcceptedToABuyer, \"Closed Sale can't be reactivated.Please Create New Sale\");\r\n        require(sale.state != SaleState.Success, \"Successed Sale can't be reactivated.\");\r\n        \r\n        sale.state = SaleState.Active;\r\n        sale.acceptedFor =  address(0);\r\n        sale.acceptedPrice =  0;\r\n        sale.acceptedTime =  0;\r\n        sale.deadlineForPayment =  0;\r\n        sale.paymentDone  =  false;\r\n    }\r\n\r\n\r\n    // Buyer can rejects acceptance request for payment \r\n    function rejectingAcceptanceRequestByBuyer(uint256 _saleId) public {\r\n        Sales storage sale = sales[_saleId];\r\n\r\n        // Check that the sale state is either \"accepted\" or \"deadlineOver\"\r\n        require(sale.state == SaleState.AcceptedToABuyer || sale.state == SaleState.DeadlineOverForPayment, \"Sale state does not allow cancellation\");\r\n\r\n        // Check that the sale was accepted by the caller\r\n        require(sale.acceptedFor == msg.sender, \"Not Authorized to Reject Acceptance Request of Seller\");\r\n\r\n\r\n        // Reset the sale state to \"RejectedAcceptanceRequestByBuyer\"\r\n        sale.state = SaleState.RejectedAcceptanceRequestByBuyer;\r\n\r\n\r\n        // Gettin index value of buyer in \r\n        // requestedUsers of a sale to purchase.\r\n        bool buyerFound = false;\r\n        uint i = 0;\r\n        for (i = 0; i < requestedUsers[sale.saleId].length; i++) {\r\n            if (requestedUsers[sale.saleId][i].user == msg.sender) {\r\n                buyerFound = true;\r\n                break;\r\n            }\r\n        }\r\n\r\n        // Change State of Buyer in RequesteUsers of a Sale.\r\n        requestedUsers[sale.saleId][i].state = RequestedUserToASaleState.YouRejectedAcceptanceRequest;\r\n\r\n        // Emit event\r\n        // emit SaleCanceled(_saleId);\r\n    }\r\n\r\n\r\n    // function to cancel acceptance request by seller \r\n    // allowed only before payment\r\n    function rejectingAcceptanceRequestBySeller(uint256 _saleId) public{\r\n        Sales storage sale = sales[_saleId];\r\n\r\n        // Check that the sale state is either \"accepted\" or \"deadlineOver\"\r\n        require(sale.state == SaleState.AcceptedToABuyer || sale.state == SaleState.DeadlineOverForPayment, \"Sale state does not allow cancellation\");\r\n\r\n        // Check that the sale was accepted by the caller\r\n        require(sale.owner == msg.sender, \"Not Authorized to Cancel Acceptance Request of Buyer\");\r\n\r\n\r\n        address acceptedBuyer = sale.acceptedFor;\r\n\r\n        // Reset the sale state to \"CancelAcceptanceRequestGivenBySeller\"\r\n        sale.state = SaleState.CancelAcceptanceRequestGivenBySeller;\r\n        sale.acceptedFor = address(0);\r\n        sale.acceptedPrice = 0;\r\n        sale.acceptedTime = 0;\r\n        sale.deadlineForPayment = 0;\r\n        sale.paymentDone = false;\r\n\r\n\r\n        // Gettin index value of buyer in \r\n        // requestedUsers of a sale to purchase.\r\n        bool buyerFound = false;\r\n        uint i = 0;\r\n        for (i = 0; i < requestedUsers[sale.saleId].length; i++) {\r\n            if (requestedUsers[sale.saleId][i].user == acceptedBuyer) {\r\n                buyerFound = true;\r\n                break;\r\n            }\r\n        }\r\n\r\n        // Change State of Buyer in RequesteUsers of a Sale.\r\n        requestedUsers[sale.saleId][i].state = RequestedUserToASaleState.SellerCanceledAcceptanceRequest;\r\n\r\n    }\r\n\r\n\r\n\r\n    // function to cancel purchase request sent to seller from buyer\r\n    function cancelPurchaseRequestSentToSeller(uint256 _saleId) public {\r\n        \r\n        Sales storage sale = sales[_saleId];\r\n\r\n        // Check that the sale state is active\r\n        require(sale.state == SaleState.Active, \"Sale state does not allow cancellation\");\r\n\r\n        // Gettin index value of buyer in \r\n        // requestedUsers of a sale to purchase.\r\n        bool buyerFound = false;\r\n        uint i = 0;\r\n        for (i = 0; i < requestedUsers[sale.saleId].length; i++) {\r\n            if (requestedUsers[sale.saleId][i].user == msg.sender) {\r\n                buyerFound = true;\r\n                break;\r\n            }\r\n        }\r\n\r\n        require(buyerFound,\"Only Requested Buyers can cancel\");\r\n\r\n        // Change State of Buyer in RequesteUsers of a Sale.\r\n        requestedUsers[sale.saleId][i].state = RequestedUserToASaleState.CancelPurchaseRequest;\r\n\r\n\r\n    }\r\n\r\n\r\n\r\n     // function to reject purchase request sent by buyer from seller\r\n    function rejectPurchaseRequestOfBuyer(\r\n        uint256 _saleId,\r\n        address _buyer\r\n        ) public {\r\n        \r\n        Sales storage sale = sales[_saleId];\r\n\r\n        // only owner of sale can reject purchase request of buyer\r\n        require(sale.owner == msg.sender,\"Only Owner is allowed\");\r\n        // Check allowed states\r\n        require(sale.state != SaleState.CancelSaleBySeller,\"Can't do operation on Canceled sale\");\r\n        require(sale.state != SaleState.Success,\"Can't do operation on Closed Sale\");\r\n       \r\n\r\n        // Gettin index value of buyer in \r\n        // requestedUsers of a sale to purchase.\r\n        bool buyerFound = false;\r\n        uint i = 0;\r\n        for (i = 0; i < requestedUsers[sale.saleId].length; i++) {\r\n            if (requestedUsers[sale.saleId][i].user == _buyer) {\r\n                buyerFound = true;\r\n                break;\r\n            }\r\n        }\r\n\r\n        require(buyerFound,\"Buyer is not Requested to purchase\");\r\n\r\n        // Change State of Buyer in RequesteUsers of a Sale.\r\n        requestedUsers[sale.saleId][i].state = RequestedUserToASaleState.SellerRejectedPurchaseRequest;\r\n\r\n\r\n    }\r\n\r\n\r\n\r\n    // function to re-request purchase request\r\n    function rerequestPurchaseRequest(\r\n        uint256 _saleId, \r\n        uint256 _priceOffered\r\n        ) public {\r\n    \r\n            // Get the sales details\r\n            Sales storage sale = sales[_saleId];\r\n            \r\n            // Make sure the sale exists\r\n            require(sale.propertyId != 0, \"Sale does not exist\");\r\n            \r\n            // Make sure that sale is active state\r\n            require(sale.state == SaleState.Active, \"Sale is Not Active\");\r\n\r\n             // Gettin index value of buyer in \r\n            // requestedUsers of a sale to purchase.\r\n            bool buyerFound = false;\r\n            uint i = 0;\r\n            for (i = 0; i < requestedUsers[sale.saleId].length; i++) {\r\n                if (requestedUsers[sale.saleId][i].user == msg.sender) {\r\n                    buyerFound = true;\r\n                    break;\r\n                }\r\n            }\r\n\r\n            // checking existed buyer or not\r\n            require(buyerFound,\"Buyer Not found in Requested List\");\r\n\r\n            // allowed states\r\n            require(requestedUsers[sale.saleId][i].state != RequestedUserToASaleState.SentPurchaseRequest,\"State Not Allowed to Re-sent Purchase Request\");\r\n            require(requestedUsers[sale.saleId][i].state != RequestedUserToASaleState.SellerAcceptedPurchaseRequest,\"State Not Allowed to Re-sent Purchase Request\");\r\n            require(requestedUsers[sale.saleId][i].state != RequestedUserToASaleState.ReRequestedPurchaseRequest,\"State Not Allowed to Re-sent Purchase Request\");\r\n    \r\n\r\n            // Reset Buyer in RequesteUsers of a Sale.\r\n            requestedUsers[sale.saleId][i].state = RequestedUserToASaleState.ReRequestedPurchaseRequest;\r\n            requestedUsers[sale.saleId][i].priceOffered = convertToWei(_priceOffered);\r\n                        \r\n            // Emit an event\r\n            emit PurchaseRequestSent(_saleId, msg.sender, _priceOffered);\r\n    }\r\n\r\n   \r\n    // function to transfer owner ship \r\n    function transferOwnerShip(\r\n        uint256 saleId\r\n        ) public payable {\r\n\r\n            Sales storage sale = sales[saleId];\r\n            \r\n            require(msg.sender == sale.acceptedFor, \"Only accepted buyer can complete the sale\");\r\n\r\n            require(msg.value == sale.acceptedPrice, \"Payment amount must be equal to accepted price\");\r\n\r\n            require(block.timestamp <= sale.deadlineForPayment, \"Payment deadline has passed\");\r\n            \r\n\r\n            // Gettin index value of buyer in \r\n            // requestedUsers of a sale to purchase.\r\n            bool buyerFound = false;\r\n            uint i = 0;\r\n            for (i = 0; i < requestedUsers[sale.saleId].length; i++) {\r\n                if (requestedUsers[sale.saleId][i].user == msg.sender) {\r\n                    buyerFound = true;\r\n                    break;\r\n                }\r\n            }\r\n\r\n            // checking existed buyer or not\r\n            require(buyerFound,\"Buyer Not found in Requested List\");\r\n            \r\n\r\n            // transfer payment to property owner\r\n            payable(sale.owner).transfer(msg.value);\r\n\r\n            // transfer ownership of property to buyer\r\n            LandRegistryContract.transferOwnership(sale.propertyId, msg.sender);\r\n            \r\n           // chaging state of Requested user to successfully transformed\r\n           requestedUsers[sale.saleId][i].state = RequestedUserToASaleState.SuccessfullyTransfered;\r\n\r\n            // Remove sale from availabel sales by location\r\n\r\n            uint256 _location = propertiesContract.getLandDetailsAsStruct(sale.propertyId).locationId;\r\n\r\n            uint256[] storage propertiesOnSale = propertiesOnSaleByLocation[_location];\r\n\r\n            for (i = 0; i < propertiesOnSale.length; i++) {\r\n                if (propertiesOnSale[i] == sale.saleId) {\r\n                    propertiesOnSale[i] = propertiesOnSale[propertiesOnSale.length - 1];\r\n                    propertiesOnSale.pop();\r\n                    break;\r\n                }\r\n            }\r\n            \r\n\r\n            sale.state = SaleState.Success;\r\n\r\n            // // remove sale from buyer's requested sales\r\n            // delete requestedSales[msg.sender][saleId];\r\n            \r\n            // // emit event\r\n            // emit SaleCompleted(saleId, msg.sender, sale.acceptedPrice);\r\n    }\r\n\r\n}",
  "sourcePath": "/mnt/c/Users/Dantez Mwaxh/Land-Registraion-System-with-Blockchain/Smart_contracts/contracts/TransferOfOwnership.sol",
  "compiler": {
    "name": "solc",
    "version": "0.8.18+commit.87f61d96.Emscripten.clang"
  },
  "schemaVersion": "3.4.16",
  "updatedAt": "2025-05-06T09:31:57.404Z",
  "devdoc": {
    "kind": "dev",
    "methods": {},
    "version": 1
  },
  "userdoc": {
    "kind": "user",
    "methods": {},
    "version": 1
  }
}