{
  "contractName": "Users",
  "abi": [
    {
      "inputs": [],
      "stateMutability": "nonpayable",
      "type": "constructor"
    },
    {
      "anonymous": false,
      "inputs": [
        {
          "indexed": false,
          "internalType": "uint256",
          "name": "newFee",
          "type": "uint256"
        }
      ],
      "name": "FeeChanged",
      "type": "event"
    },
    {
      "anonymous": false,
      "inputs": [
        {
          "indexed": true,
          "internalType": "address",
          "name": "payer",
          "type": "address"
        },
        {
          "indexed": false,
          "internalType": "uint256",
          "name": "amount",
          "type": "uint256"
        }
      ],
      "name": "FeeReceived",
      "type": "event"
    },
    {
      "anonymous": false,
      "inputs": [
        {
          "indexed": true,
          "internalType": "address",
          "name": "owner",
          "type": "address"
        },
        {
          "indexed": false,
          "internalType": "uint256",
          "name": "amount",
          "type": "uint256"
        }
      ],
      "name": "FundsWithdrawn",
      "type": "event"
    },
    {
      "anonymous": false,
      "inputs": [
        {
          "indexed": true,
          "internalType": "address",
          "name": "userID",
          "type": "address"
        },
        {
          "indexed": true,
          "internalType": "uint256",
          "name": "accountCreatedDateTime",
          "type": "uint256"
        }
      ],
      "name": "UserRegistered",
      "type": "event"
    },
    {
      "inputs": [],
      "name": "owner",
      "outputs": [
        {
          "internalType": "address",
          "name": "",
          "type": "address"
        }
      ],
      "stateMutability": "view",
      "type": "function",
      "constant": true
    },
    {
      "inputs": [],
      "name": "registrationFee",
      "outputs": [
        {
          "internalType": "uint256",
          "name": "",
          "type": "uint256"
        }
      ],
      "stateMutability": "view",
      "type": "function",
      "constant": true
    },
    {
      "inputs": [],
      "name": "registrationsPaused",
      "outputs": [
        {
          "internalType": "bool",
          "name": "",
          "type": "bool"
        }
      ],
      "stateMutability": "view",
      "type": "function",
      "constant": true
    },
    {
      "inputs": [
        {
          "internalType": "address",
          "name": "",
          "type": "address"
        }
      ],
      "name": "users",
      "outputs": [
        {
          "internalType": "address",
          "name": "userID",
          "type": "address"
        },
        {
          "internalType": "string",
          "name": "firstName",
          "type": "string"
        },
        {
          "internalType": "string",
          "name": "lastName",
          "type": "string"
        },
        {
          "internalType": "string",
          "name": "idNumber",
          "type": "string"
        },
        {
          "internalType": "uint256",
          "name": "accountCreatedDateTime",
          "type": "uint256"
        }
      ],
      "stateMutability": "view",
      "type": "function",
      "constant": true
    },
    {
      "inputs": [],
      "name": "payRegistrationFee",
      "outputs": [],
      "stateMutability": "payable",
      "type": "function",
      "payable": true
    },
    {
      "inputs": [
        {
          "internalType": "string",
          "name": "_firstName",
          "type": "string"
        },
        {
          "internalType": "string",
          "name": "_lastName",
          "type": "string"
        },
        {
          "internalType": "string",
          "name": "_idNumber",
          "type": "string"
        }
      ],
      "name": "registerUser",
      "outputs": [],
      "stateMutability": "nonpayable",
      "type": "function"
    },
    {
      "inputs": [
        {
          "internalType": "address",
          "name": "_userId",
          "type": "address"
        }
      ],
      "name": "getUserDetails",
      "outputs": [
        {
          "internalType": "string",
          "name": "firstName",
          "type": "string"
        },
        {
          "internalType": "string",
          "name": "lastName",
          "type": "string"
        },
        {
          "internalType": "string",
          "name": "idNumber",
          "type": "string"
        },
        {
          "internalType": "uint256",
          "name": "accountCreated",
          "type": "uint256"
        }
      ],
      "stateMutability": "view",
      "type": "function",
      "constant": true
    },
    {
      "inputs": [
        {
          "internalType": "address",
          "name": "_user",
          "type": "address"
        }
      ],
      "name": "hasPaidFee",
      "outputs": [
        {
          "internalType": "bool",
          "name": "",
          "type": "bool"
        }
      ],
      "stateMutability": "view",
      "type": "function",
      "constant": true
    },
    {
      "inputs": [
        {
          "internalType": "address",
          "name": "_user",
          "type": "address"
        }
      ],
      "name": "isRegistered",
      "outputs": [
        {
          "internalType": "bool",
          "name": "",
          "type": "bool"
        }
      ],
      "stateMutability": "view",
      "type": "function",
      "constant": true
    },
    {
      "inputs": [
        {
          "internalType": "uint256",
          "name": "_newFee",
          "type": "uint256"
        }
      ],
      "name": "setRegistrationFee",
      "outputs": [],
      "stateMutability": "nonpayable",
      "type": "function"
    },
    {
      "inputs": [
        {
          "internalType": "address payable",
          "name": "_to",
          "type": "address"
        }
      ],
      "name": "withdrawFees",
      "outputs": [],
      "stateMutability": "nonpayable",
      "type": "function"
    },
    {
      "inputs": [],
      "name": "pauseRegistrations",
      "outputs": [],
      "stateMutability": "nonpayable",
      "type": "function"
    },
    {
      "inputs": [],
      "name": "unpauseRegistrations",
      "outputs": [],
      "stateMutability": "nonpayable",
      "type": "function"
    }
  ],
  "bytecode": "0x6080604052662386f26fc1000060015534801561001b57600080fd5b50336000806101000a81548173ffffffffffffffffffffffffffffffffffffffff021916908373ffffffffffffffffffffffffffffffffffffffff1602179055506120f48061006b6000396000f3fe6080604052600436106100c15760003560e01c8063a87430ba1161007f578063cc3d967b11610059578063cc3d967b1461024a578063d637dcfa1461028a578063ec00cd8e146102b3578063fbc55feb146102de576100c1565b8063a87430ba146101a3578063c320c727146101e4578063c3c5a5471461020d576100c1565b8062dca657146100c657806314c44e09146100dd578063164e68de146101085780632432c0f11461013157806342b3ca891461013b5780638da5cb5b14610178575b600080fd5b3480156100d257600080fd5b506100db6102f5565b005b3480156100e957600080fd5b506100f26103a0565b6040516100ff9190611299565b60405180910390f35b34801561011457600080fd5b5061012f600480360381019061012a9190611326565b6103a6565b005b6101396105ea565b005b34801561014757600080fd5b50610162600480360381019061015d9190611391565b610763565b60405161016f91906113d9565b60405180910390f35b34801561018457600080fd5b5061018d6107b9565b60405161019a9190611403565b60405180910390f35b3480156101af57600080fd5b506101ca60048036038101906101c59190611391565b6107dd565b6040516101db9594939291906114ae565b60405180910390f35b3480156101f057600080fd5b5061020b60048036038101906102069190611542565b6109cb565b005b34801561021957600080fd5b50610234600480360381019061022f9190611391565b610ade565b60405161024191906113d9565b60405180910390f35b34801561025657600080fd5b50610271600480360381019061026c9190611391565b610b34565b604051610281949392919061156f565b60405180910390f35b34801561029657600080fd5b506102b160048036038101906102ac91906116fe565b610e13565b005b3480156102bf57600080fd5b506102c86111c2565b6040516102d591906113d9565b60405180910390f35b3480156102ea57600080fd5b506102f36111d5565b005b60008054906101000a900473ffffffffffffffffffffffffffffffffffffffff1673ffffffffffffffffffffffffffffffffffffffff163373ffffffffffffffffffffffffffffffffffffffff1614610383576040517f08c379a000000000000000000000000000000000000000000000000000000000815260040161037a90611817565b60405180910390fd5b6001600660006101000a81548160ff021916908315150217905550565b60015481565b60008054906101000a900473ffffffffffffffffffffffffffffffffffffffff1673ffffffffffffffffffffffffffffffffffffffff163373ffffffffffffffffffffffffffffffffffffffff1614610434576040517f08c379a000000000000000000000000000000000000000000000000000000000815260040161042b90611817565b60405180910390fd5b600073ffffffffffffffffffffffffffffffffffffffff168173ffffffffffffffffffffffffffffffffffffffff16036104a3576040517f08c379a000000000000000000000000000000000000000000000000000000000815260040161049a90611883565b60405180910390fd5b6000479050600081116104eb576040517f08c379a00000000000000000000000000000000000000000000000000000000081526004016104e2906118ef565b60405180910390fd5b60008273ffffffffffffffffffffffffffffffffffffffff168260405161051190611940565b60006040518083038185875af1925050503d806000811461054e576040519150601f19603f3d011682016040523d82523d6000602084013e610553565b606091505b5050905080610597576040517f08c379a000000000000000000000000000000000000000000000000000000000815260040161058e906119a1565b60405180910390fd5b8273ffffffffffffffffffffffffffffffffffffffff167feaff4b37086828766ad3268786972c0cd24259d4c87a80f9d3963a3c3d999b0d836040516105dd9190611299565b60405180910390a2505050565b600360003373ffffffffffffffffffffffffffffffffffffffff1673ffffffffffffffffffffffffffffffffffffffff16815260200190815260200160002060009054906101000a900460ff1615610677576040517f08c379a000000000000000000000000000000000000000000000000000000000815260040161066e90611a0d565b60405180910390fd5b60015434146106bb576040517f08c379a00000000000000000000000000000000000000000000000000000000081526004016106b290611a79565b60405180910390fd5b6001600260003373ffffffffffffffffffffffffffffffffffffffff1673ffffffffffffffffffffffffffffffffffffffff16815260200190815260200160002060006101000a81548160ff0219169083151502179055503373ffffffffffffffffffffffffffffffffffffffff167fbb527541f6cc244ae00ab689f8c23d072a30a3b4176021df62ea1c2bac8aa226346040516107599190611299565b60405180910390a2565b6000600260008373ffffffffffffffffffffffffffffffffffffffff1673ffffffffffffffffffffffffffffffffffffffff16815260200190815260200160002060009054906101000a900460ff169050919050565b60008054906101000a900473ffffffffffffffffffffffffffffffffffffffff1681565b60046020528060005260406000206000915090508060000160009054906101000a900473ffffffffffffffffffffffffffffffffffffffff169080600101805461082690611ac8565b80601f016020809104026020016040519081016040528092919081815260200182805461085290611ac8565b801561089f5780601f106108745761010080835404028352916020019161089f565b820191906000526020600020905b81548152906001019060200180831161088257829003601f168201915b5050505050908060020180546108b490611ac8565b80601f01602080910402602001604051908101604052809291908181526020018280546108e090611ac8565b801561092d5780601f106109025761010080835404028352916020019161092d565b820191906000526020600020905b81548152906001019060200180831161091057829003601f168201915b50505050509080600301805461094290611ac8565b80601f016020809104026020016040519081016040528092919081815260200182805461096e90611ac8565b80156109bb5780601f10610990576101008083540402835291602001916109bb565b820191906000526020600020905b81548152906001019060200180831161099e57829003601f168201915b5050505050908060040154905085565b60008054906101000a900473ffffffffffffffffffffffffffffffffffffffff1673ffffffffffffffffffffffffffffffffffffffff163373ffffffffffffffffffffffffffffffffffffffff1614610a59576040517f08c379a0000000000000000000000000000000000000000000000000000000008152600401610a5090611817565b60405180910390fd5b6001548103610a9d576040517f08c379a0000000000000000000000000000000000000000000000000000000008152600401610a9490611b45565b60405180910390fd5b806001819055507f6bbc57480a46553fa4d156ce702beef5f3ad66303b0ed1a5d4cb44966c6584c381604051610ad39190611299565b60405180910390a150565b6000600360008373ffffffffffffffffffffffffffffffffffffffff1673ffffffffffffffffffffffffffffffffffffffff16815260200190815260200160002060009054906101000a900460ff169050919050565b606080606060008073ffffffffffffffffffffffffffffffffffffffff16600460008773ffffffffffffffffffffffffffffffffffffffff1673ffffffffffffffffffffffffffffffffffffffff16815260200190815260200160002060000160009054906101000a900473ffffffffffffffffffffffffffffffffffffffff1673ffffffffffffffffffffffffffffffffffffffff1603610c0b576040517f08c379a0000000000000000000000000000000000000000000000000000000008152600401610c0290611bb1565b60405180910390fd5b6000600460008773ffffffffffffffffffffffffffffffffffffffff1673ffffffffffffffffffffffffffffffffffffffff16815260200190815260200160002090508060010181600201826003018360040154838054610c6b90611ac8565b80601f0160208091040260200160405190810160405280929190818152602001828054610c9790611ac8565b8015610ce45780601f10610cb957610100808354040283529160200191610ce4565b820191906000526020600020905b815481529060010190602001808311610cc757829003601f168201915b50505050509350828054610cf790611ac8565b80601f0160208091040260200160405190810160405280929190818152602001828054610d2390611ac8565b8015610d705780601f10610d4557610100808354040283529160200191610d70565b820191906000526020600020905b815481529060010190602001808311610d5357829003601f168201915b50505050509250818054610d8390611ac8565b80601f0160208091040260200160405190810160405280929190818152602001828054610daf90611ac8565b8015610dfc5780601f10610dd157610100808354040283529160200191610dfc565b820191906000526020600020905b815481529060010190602001808311610ddf57829003601f168201915b505050505091509450945094509450509193509193565b600360003373ffffffffffffffffffffffffffffffffffffffff1673ffffffffffffffffffffffffffffffffffffffff16815260200190815260200160002060009054906101000a900460ff1615610ea0576040517f08c379a0000000000000000000000000000000000000000000000000000000008152600401610e9790611c1d565b60405180910390fd5b6000835111610ee4576040517f08c379a0000000000000000000000000000000000000000000000000000000008152600401610edb90611c89565b60405180910390fd5b6000825111610f28576040517f08c379a0000000000000000000000000000000000000000000000000000000008152600401610f1f90611cf5565b60405180910390fd5b6000815111610f6c576040517f08c379a0000000000000000000000000000000000000000000000000000000008152600401610f6390611d61565b60405180910390fd5b600581604051610f7c9190611dbd565b908152602001604051809103902060009054906101000a900460ff1615610fd8576040517f08c379a0000000000000000000000000000000000000000000000000000000008152600401610fcf90611e20565b60405180910390fd5b6040518060a001604052803373ffffffffffffffffffffffffffffffffffffffff16815260200184815260200183815260200182815260200142815250600460003373ffffffffffffffffffffffffffffffffffffffff1673ffffffffffffffffffffffffffffffffffffffff16815260200190815260200160002060008201518160000160006101000a81548173ffffffffffffffffffffffffffffffffffffffff021916908373ffffffffffffffffffffffffffffffffffffffff16021790555060208201518160010190816110b09190611fec565b5060408201518160020190816110c69190611fec565b5060608201518160030190816110dc9190611fec565b50608082015181600401559050506001600360003373ffffffffffffffffffffffffffffffffffffffff1673ffffffffffffffffffffffffffffffffffffffff16815260200190815260200160002060006101000a81548160ff02191690831515021790555060016005826040516111549190611dbd565b908152602001604051809103902060006101000a81548160ff021916908315150217905550423373ffffffffffffffffffffffffffffffffffffffff167fe29d35093005f4d575e1003753426b57a7f64378ba73332eef9c6ccc2b8decd660405160405180910390a3505050565b600660009054906101000a900460ff1681565b60008054906101000a900473ffffffffffffffffffffffffffffffffffffffff1673ffffffffffffffffffffffffffffffffffffffff163373ffffffffffffffffffffffffffffffffffffffff1614611263576040517f08c379a000000000000000000000000000000000000000000000000000000000815260040161125a90611817565b60405180910390fd5b6000600660006101000a81548160ff021916908315150217905550565b6000819050919050565b61129381611280565b82525050565b60006020820190506112ae600083018461128a565b92915050565b6000604051905090565b600080fd5b600080fd5b600073ffffffffffffffffffffffffffffffffffffffff82169050919050565b60006112f3826112c8565b9050919050565b611303816112e8565b811461130e57600080fd5b50565b600081359050611320816112fa565b92915050565b60006020828403121561133c5761133b6112be565b5b600061134a84828501611311565b91505092915050565b600061135e826112c8565b9050919050565b61136e81611353565b811461137957600080fd5b50565b60008135905061138b81611365565b92915050565b6000602082840312156113a7576113a66112be565b5b60006113b58482850161137c565b91505092915050565b60008115159050919050565b6113d3816113be565b82525050565b60006020820190506113ee60008301846113ca565b92915050565b6113fd81611353565b82525050565b600060208201905061141860008301846113f4565b92915050565b600081519050919050565b600082825260208201905092915050565b60005b8381101561145857808201518184015260208101905061143d565b60008484015250505050565b6000601f19601f8301169050919050565b60006114808261141e565b61148a8185611429565b935061149a81856020860161143a565b6114a381611464565b840191505092915050565b600060a0820190506114c360008301886113f4565b81810360208301526114d58187611475565b905081810360408301526114e98186611475565b905081810360608301526114fd8185611475565b905061150c608083018461128a565b9695505050505050565b61151f81611280565b811461152a57600080fd5b50565b60008135905061153c81611516565b92915050565b600060208284031215611558576115576112be565b5b60006115668482850161152d565b91505092915050565b600060808201905081810360008301526115898187611475565b9050818103602083015261159d8186611475565b905081810360408301526115b18185611475565b90506115c0606083018461128a565b95945050505050565b600080fd5b600080fd5b7f4e487b7100000000000000000000000000000000000000000000000000000000600052604160045260246000fd5b61160b82611464565b810181811067ffffffffffffffff8211171561162a576116296115d3565b5b80604052505050565b600061163d6112b4565b90506116498282611602565b919050565b600067ffffffffffffffff821115611669576116686115d3565b5b61167282611464565b9050602081019050919050565b82818337600083830152505050565b60006116a161169c8461164e565b611633565b9050828152602081018484840111156116bd576116bc6115ce565b5b6116c884828561167f565b509392505050565b600082601f8301126116e5576116e46115c9565b5b81356116f584826020860161168e565b91505092915050565b600080600060608486031215611717576117166112be565b5b600084013567ffffffffffffffff811115611735576117346112c3565b5b611741868287016116d0565b935050602084013567ffffffffffffffff811115611762576117616112c3565b5b61176e868287016116d0565b925050604084013567ffffffffffffffff81111561178f5761178e6112c3565b5b61179b868287016116d0565b9150509250925092565b7f4f6e6c79206f776e65722063616e2063616c6c20746869732066756e6374696f60008201527f6e00000000000000000000000000000000000000000000000000000000000000602082015250565b6000611801602183611429565b915061180c826117a5565b604082019050919050565b60006020820190508181036000830152611830816117f4565b9050919050565b7f496e76616c6964207769746864726177616c2061646472657373000000000000600082015250565b600061186d601a83611429565b915061187882611837565b602082019050919050565b6000602082019050818103600083015261189c81611860565b9050919050565b7f4e6f206665657320746f20776974686472617700000000000000000000000000600082015250565b60006118d9601383611429565b91506118e4826118a3565b602082019050919050565b60006020820190508181036000830152611908816118cc565b9050919050565b600081905092915050565b50565b600061192a60008361190f565b91506119358261191a565b600082019050919050565b600061194b8261191d565b9150819050919050565b7f5769746864726177616c206661696c6564000000000000000000000000000000600082015250565b600061198b601183611429565b915061199682611955565b602082019050919050565b600060208201905081810360008301526119ba8161197e565b9050919050565b7f416c726561647920726567697374657265640000000000000000000000000000600082015250565b60006119f7601283611429565b9150611a02826119c1565b602082019050919050565b60006020820190508181036000830152611a26816119ea565b9050919050565b7f496e636f72726563742066656520616d6f756e74000000000000000000000000600082015250565b6000611a63601483611429565b9150611a6e82611a2d565b602082019050919050565b60006020820190508181036000830152611a9281611a56565b9050919050565b7f4e487b7100000000000000000000000000000000000000000000000000000000600052602260045260246000fd5b60006002820490506001821680611ae057607f821691505b602082108103611af357611af2611a99565b5b50919050565b7f46656520697320616c726561647920746869732076616c756500000000000000600082015250565b6000611b2f601983611429565b9150611b3a82611af9565b602082019050919050565b60006020820190508181036000830152611b5e81611b22565b9050919050565b7f5573657220646f6573206e6f7420657869737400000000000000000000000000600082015250565b6000611b9b601383611429565b9150611ba682611b65565b602082019050919050565b60006020820190508181036000830152611bca81611b8e565b9050919050565b7f5573657220616c72656164792072656769737465726564000000000000000000600082015250565b6000611c07601783611429565b9150611c1282611bd1565b602082019050919050565b60006020820190508181036000830152611c3681611bfa565b9050919050565b7f4669727374206e616d652063616e6e6f7420626520656d707479000000000000600082015250565b6000611c73601a83611429565b9150611c7e82611c3d565b602082019050919050565b60006020820190508181036000830152611ca281611c66565b9050919050565b7f4c617374206e616d652063616e6e6f7420626520656d70747900000000000000600082015250565b6000611cdf601983611429565b9150611cea82611ca9565b602082019050919050565b60006020820190508181036000830152611d0e81611cd2565b9050919050565b7f4944206e756d6265722063616e6e6f7420626520656d70747900000000000000600082015250565b6000611d4b601983611429565b9150611d5682611d15565b602082019050919050565b60006020820190508181036000830152611d7a81611d3e565b9050919050565b600081905092915050565b6000611d978261141e565b611da18185611d81565b9350611db181856020860161143a565b80840191505092915050565b6000611dc98284611d8c565b915081905092915050565b7f4944206e756d62657220616c7265616479207265676973746572656400000000600082015250565b6000611e0a601c83611429565b9150611e1582611dd4565b602082019050919050565b60006020820190508181036000830152611e3981611dfd565b9050919050565b60008190508160005260206000209050919050565b60006020601f8301049050919050565b600082821b905092915050565b600060088302611ea27fffffffffffffffffffffffffffffffffffffffffffffffffffffffffffffffff82611e65565b611eac8683611e65565b95508019841693508086168417925050509392505050565b6000819050919050565b6000611ee9611ee4611edf84611280565b611ec4565b611280565b9050919050565b6000819050919050565b611f0383611ece565b611f17611f0f82611ef0565b848454611e72565b825550505050565b600090565b611f2c611f1f565b611f37818484611efa565b505050565b5b81811015611f5b57611f50600082611f24565b600181019050611f3d565b5050565b601f821115611fa057611f7181611e40565b611f7a84611e55565b81016020851015611f89578190505b611f9d611f9585611e55565b830182611f3c565b50505b505050565b600082821c905092915050565b6000611fc360001984600802611fa5565b1980831691505092915050565b6000611fdc8383611fb2565b9150826002028217905092915050565b611ff58261141e565b67ffffffffffffffff81111561200e5761200d6115d3565b5b6120188254611ac8565b612023828285611f5f565b600060209050601f8311600181146120565760008415612044578287015190505b61204e8582611fd0565b8655506120b6565b601f19841661206486611e40565b60005b8281101561208c57848901518255600182019150602085019450602081019050612067565b868310156120a957848901516120a5601f891682611fb2565b8355505b6001600288020188555050505b50505050505056fea2646970667358221220da3428d4c47b687ff9c8c502843a9ea319bb8e927f6635ace9109f86d03139fe64736f6c63430008120033",
  "immutableReferences": {},
  "source": "// SPDX-License-Identifier: MIT\npragma solidity >=0.4.22 <0.9.0;\n\ncontract Users {\n    struct User {\n        address userID;\n        string firstName;\n        string lastName;\n        string idNumber;\n        uint256 accountCreatedDateTime;\n    }\n\n    address public owner;\n    uint256 public registrationFee = 0.01 ether;\n    \n    // Track fee payments separately from registration status\n    mapping(address => bool) private feePayments;\n    mapping(address => bool) private registeredUsers;\n    mapping(address => User) public users;\n    mapping(string => bool) private idNumbers;\n    \n    event UserRegistered(address indexed userID, uint256 indexed accountCreatedDateTime);\n    event FeeReceived(address indexed payer, uint256 amount);\n    event FeeChanged(uint256 newFee);\n    event FundsWithdrawn(address indexed owner, uint256 amount);\n\n    constructor() {\n        owner = msg.sender;\n    }\n\n    modifier onlyOwner() {\n        require(msg.sender == owner, \"Only owner can call this function\");\n        _;\n    }\n\n    /**\n     * @dev Allows users to pay the registration fee\n     * @notice Payment must be exact amount of current registrationFee\n     * @notice User cannot have already paid or registered\n     */\n    function payRegistrationFee() external payable {\n      //  require(!feePayments[msg.sender], \"Fee already paid\");\n        require(!registeredUsers[msg.sender], \"Already registered\");\n        require(msg.value == registrationFee, \"Incorrect fee amount\");\n        \n        feePayments[msg.sender] = true;\n        emit FeeReceived(msg.sender, msg.value);\n    }\n\n    /**\n     * @dev Registers a new user after fee payment verification\n     * @param _firstName User's first name\n     * @param _lastName User's last name\n     * @param _idNumber Government-issued ID number\n     */\n    function registerUser(\n        string memory _firstName,\n        string memory _lastName,\n        string memory _idNumber\n    ) public {\n        // Verify fee payment\n        //require(feePayments[msg.sender], \"Registration fee not paid\");\n        \n        // Original validation checks\n        require(!registeredUsers[msg.sender], \"User already registered\");\n        require(bytes(_firstName).length > 0, \"First name cannot be empty\");\n        require(bytes(_lastName).length > 0, \"Last name cannot be empty\");\n        require(bytes(_idNumber).length > 0, \"ID number cannot be empty\");\n        require(!idNumbers[_idNumber], \"ID number already registered\");\n\n        // Create user record\n        users[msg.sender] = User({\n            userID: msg.sender,\n            firstName: _firstName,\n            lastName: _lastName,\n            idNumber: _idNumber,\n            accountCreatedDateTime: block.timestamp\n        });\n\n        registeredUsers[msg.sender] = true;\n        idNumbers[_idNumber] = true;\n\n        emit UserRegistered(msg.sender, block.timestamp);\n    }\n\n    // ========== HELPER FUNCTIONS ========== //\n\n    function getUserDetails(address _userId) public view returns (\n        string memory firstName, \n        string memory lastName,  \n        string memory idNumber,\n        uint256 accountCreated\n    ) {\n        require(users[_userId].userID != address(0), \"User does not exist\");\n        User storage user = users[_userId];\n        return (\n            user.firstName, \n            user.lastName, \n            user.idNumber,\n            user.accountCreatedDateTime\n        );\n    }\n\n    function hasPaidFee(address _user) public view returns (bool) {\n        return feePayments[_user];\n    }\n\n    function isRegistered(address _user) public view returns (bool) {\n        return registeredUsers[_user];\n    }\n\n    // ========== ADMIN FUNCTIONS ========== //\n\n    function setRegistrationFee(uint256 _newFee) external onlyOwner {\n        require(_newFee != registrationFee, \"Fee is already this value\");\n        registrationFee = _newFee;\n        emit FeeChanged(_newFee);\n    }\n\n    function withdrawFees(address payable _to) external onlyOwner {\n        require(_to != address(0), \"Invalid withdrawal address\");\n        uint256 balance = address(this).balance;\n        require(balance > 0, \"No fees to withdraw\");\n        \n        (bool success, ) = _to.call{value: balance}(\"\");\n        require(success, \"Withdrawal failed\");\n        \n        emit FundsWithdrawn(_to, balance);\n    }\n\n    // Emergency stop pattern\n    bool public registrationsPaused;\n\n    modifier whenNotPaused() {\n        require(!registrationsPaused, \"Registrations are paused\");\n        _;\n    }\n\n    function pauseRegistrations() external onlyOwner {\n        registrationsPaused = true;\n    }\n\n    function unpauseRegistrations() external onlyOwner {\n        registrationsPaused = false;\n    }\n}",
  "sourcePath": "/mnt/c/Users/Dantez Mwaxh/Land-Registraion-System-with-Blockchain/Smart_contracts/contracts/Users.sol",
  "compiler": {
    "name": "solc",
    "version": "0.8.18+commit.87f61d96.Emscripten.clang"
  },
  "schemaVersion": "3.4.16",
  "updatedAt": "2025-04-09T23:13:51.434Z",
  "networkType": "ethereum",
  "devdoc": {
    "kind": "dev",
    "methods": {
      "payRegistrationFee()": {
        "details": "Allows users to pay the registration fee"
      },
      "registerUser(string,string,string)": {
        "details": "Registers a new user after fee payment verification",
        "params": {
          "_firstName": "User's first name",
          "_idNumber": "Government-issued ID number",
          "_lastName": "User's last name"
        }
      }
    },
    "version": 1
  },
  "userdoc": {
    "kind": "user",
    "methods": {
      "payRegistrationFee()": {
        "notice": "Payment must be exact amount of current registrationFeeUser cannot have already paid or registered"
      }
    },
    "version": 1
  }
}